:020000040800F2
:10000000600D00209D010008714900081D3C00089A
:100010002D480008090F0008B55C0008000000002A
:100020000000000000000000000000000D4D00086E
:10003000850F000800000000094D0008AD540008BD
:10004000B7010008B7010008B7010008B7010008B0
:10005000B7010008B7010008B7010008B7010008A0
:10006000B7010008B7010008B7010008490F0008F0
:10007000550F0008610F0008B70100086D0F000858
:10008000B7010008B7010008B7010008B701000870
:10009000B7010008B7010008B7010008B701000860
:1000A000B7010008B7010008B7010008B701000850
:1000B00081550008B7010008B7010008B701000822
:1000C000B7010008B7010008B7010008B701000830
:1000D000B7010008B7010008B7010008255C000857
:1000E000B7010008B7010008B7010008B701000810
:1000F000B7010008B7010008B7010008790F000830
:10010000B7010008B7010008B7010008B7010008EF
:100110001D57000829570008B7010008B70100085B
:10012000B7010008B7010008B7010008B7010008CF
:10013000B7010008B7010008B7010008B7010008BF
:10014000B7010008B7010008B7010008B7010008AF
:10015000B7010008B7010008B7010008B70100089F
:10016000B7010008B7010008B7010008B70100088F
:10017000B7010008B7010008B7010008000000003F
:10018000B7010008B7010008DFF80CD000F0F4FC5C
:1001900000480047A9600008600D0020064880471D
:1001A00006480047FEE7FEE7FEE7FEE7FEE7FEE75C
:1001B000FEE7FEE7FEE7FEE76D550008890100084F
:1001C0002DE9F05F0546002092469B46884606468C
:1001D000814640241BE0284641464746224600F01F
:1001E00041FB53465A46C01A914110D31146184656
:1001F000224600F028FB2D1A67EB01084F462246E5
:100200000120002100F01FFB17EB00094E41201ECA
:10021000A4F10104DFDC484631462A464346BDE8E6
:10022000F09F00000FB400B58DB010A909900B909D
:1002300000914FF0FF300A9000200C900548069086
:10024000054807906A4609A80F9900F02FFB0DB0EA
:100250005DF814FBC9080008E70800082DE9FF5FF6
:100260001D464FF0FF3BD5E9014691465F464FF0F2
:100270000008A9697F1C01988847296A8246884737
:100280000028F6D1BAF1FF3F0CD024F4C064002E50
:1002900019DD600614D5BAF12B0F09D0BAF12D0F74
:1002A0000ED103E0584604B0BDE8F09F44F48064EA
:1002B000A9697F1C01988847761E8246002E02DDC0
:1002C000BAF1300F03D0B9F1000F26D032E0A9699E
:1002D000761E44F400747F1C019888478246002EE5
:1002E00005DDBAF1780F06D0BAF1580F03D0B9F195
:1002F000000F10D01EE0B9F1000F02D0B9F1100FBD
:1003000018D1A969761E24F400747F1C01988847CF
:100310008246102002E0082000E00A20814609E021
:1003200008FB0908A969761E44F400747F1C019833
:1003300088478246002E05DD4946504600F0A2FA65
:100340000028EDDAE96901988847A00502D46FF02A
:100350000100A8E7E00725D1600613D5600502D5A6
:10036000C8F1000000E0404629680A1D2A600968BB
:10037000220501D5087015E0220701D5088011E09B
:1003800008600FE02868011D29600068210502D57A
:1003900080F8008006E0210702D5A0F8008001E087
:1003A000C0F8008038467EE72DE9FF4F087883B01B
:1003B0009946FF2805D0491C2D2804D00024002090
:1003C00008E000200BE00124F9E700EB800003EBDC
:1003D0004000491C0B78FF2BF7D104B140420023A9
:1003E0000293147819461D462D2C01D02B2C04D1D4
:1003F000521C2D2C13D000240294AA461478FF2CF2
:100400000FD00A25A3FB057801FB05814FF0000CF6
:1004100003FB0C11521CE3194AEB0101EEE7012426
:10042000EAE7814453EA010002D019F5C87F06DAF1
:1004300003980021C0E9001107B0BDE8F08F002546
:10044000AE4E2F46DFF8B882184600F089FBCDE9A2
:100450000001B9F1000002DAC9F1000400E004462D
:100460000023A74A1AEB030B42EB045A12E0E00701
:1004700007D02A4633463846414600F045F907463C
:1004800088462A4633461046194600F03DF905468F
:100490000E466410002CEAD1DDE90001B9F1000F2D
:1004A0005A46534606DA00F0ECFA3A46434600F064
:1004B000E8FA05E000F028F93A46434600F024F94E
:1004C000029A0AB181F00041039AC2E90001B3E740
:1004D0002DE9FF4F1F468DB0D7E901464FF0FF3899
:1004E0002E2045464FF000090B90B9696D1C0E98FF
:1004F0008847396A824688470028F6D1BAF1FF3F1B
:100500000AD024F4D064002E11DDBAF12B0F08D0EC
:10051000BAF12D0F0BD102E0404611B08DE744F443
:100520008064B9696D1C0E9888478246761E6946BC
:10053000600501D52D2000E02B208DF8000001F191
:10054000010B0DF1200809E0B9696D1C0E98884770
:1005500082460F9844F40074761E0560002E02DD7A
:10056000BAF1300FF0D00B998A453ED144F08004A7
:1005700006E00F99681CA9F1010944F400740860B1
:10058000B9696D1C761E0E98884782463028F0D0D7
:100590002BE00B998A4505D1200603D444F0800452
:1005A000761E18E0504606F0D3FD08B30DF1130295
:1005B000761EAAF1300044F40074934506D20BF87D
:1005C000010B200607D5A9F1010003E0200602D4A3
:1005D00009F101008146A00502D50F99681C086049
:1005E000B9696D1C0E9888478246002ED1DC53E015
:1005F000002E51DDBAF1650F02D0BAF1450F4BD193
:10060000A00549D5B9696D1C24F44074761E0E9876
:1006100088478246002E0CDD2B2804D0BAF12D0F1E
:1006200007D144F48074B9696D1C0E9888478246DE
:10063000761EE00501D52D2100E02B2108F8011BD5
:10064000CDF82C8021E00DF12901761E44F40074D0
:1006500088450CD2AAF1300010F0FF0088F80000A5
:1006600002D10B99884509D908F1010806E0E00597
:1006700001D5244801E042F20F708146B9696D1C32
:100680000E98884782460F980560002E04DD50467C
:1006900006F05EFD0028D6D1F9690E988847FF2044
:1006A0008BF8000088F800000020069007904B4669
:1006B0006A4608A906A8FFF777FEA00502D46FF0E6
:1006C00001002AE714F0240F0AD0E00714D1DDE975
:1006D00006123868031D3B600068C0E900120BE099
:1006E000DDE9060100F093F80146E00704D138681F
:1006F000021D3A600068016028460EE700001440C1
:100700000000F03FF1D8FFFF2DE9FE4F81EA03041E
:1007100004F0004421F0004100944FF0000B23F05E
:10072000004350EA01045ED052EA03045BD0C3F3F5
:100730000A54C1F30A552C44A4F2F3340194A0FBEB
:100740000254C1F3130141F48011C3F3130343F4C2
:10075000801301FB024400FB034E840A970A44EA1B
:10076000815447EA8357A4FB076802958D0A05FB6D
:1007700007854FEA932C04FB0C542705029D4FEA92
:10078000065847EA1637B5EB08056EEB070C870EDF
:10079000920E47EA811742EA8312A7FB0201B6EBE9
:1007A0000B0164EB00042B0D43EA0C335E1844EBA1
:1007B0001C50DA465146E7FB0201C5F313044FEA29
:1007C0000B3343EA14534FEA0432019C43EA060315
:1007D000A4F10C040294009CCDE900B400F003F9EC
:1007E00003B0BDE8F08F00200146F9E70EB5C10F58
:1007F00080EAE0700844CA07002140F233438DE8E4
:100800000E000A460B4600F0EEF803B000BD01F002
:10081000004330B421F0004150EA010206D00A0D35
:10082000A2F56072C1F31301002A02DC30BC002083
:100830007047440F44EAC104C100E01830BC00EB2B
:10084000C25000F061B8202A04DB203A00FA02F11D
:10085000002070479140C2F1200320FA03F31943AE
:1008600090407047202A04DB203A21FA02F0002150
:10087000704721FA02F3D040C2F1200291400843B0
:10088000194670473A2800D2303820F02002412A19
:1008900001D3A2F13700884201D34FF0FF307047F7
:1008A000026811441378016018467047D16004490A
:1008B00051610449116200211161114600F07AB9B9
:1008C000A1080008A90B0008426842B1016811F8AC
:1008D000013B23B1521EC0E90012184670470121A6
:1008E000C160881E704742685AB1C368016843B945
:1008F00083688B4205D0491E521CC0E900120020BB
:1009000070474FF0FF3070470029A8BF7047401C68
:10091000490008BF20F00100704710B4B0FA80FC15
:1009200000FA0CF050EA010404BF10BC704749B152
:10093000CCF1200421FA04F411FA0CF118BF0121C2
:1009400021430843A3EB0C01CB1D4FEA00614FEAA2
:10095000102042BF002010BC704700EBC350104471
:100960000029A4BF10BC7047401C490008BF20F0FC
:10097000010010BC7047F0B400F0004221F00041CB
:1009800020F00040CE0DC30DC1F3160141F400016B
:10099000C0F316004C42154640F40000761E09E0F4
:1009A00010EB440002D582F0004240428842F7D862
:1009B00040005B1EB342F9DA18B1F0BC0021FFF72A
:1009C000ACBF2846F0BC704710B5141E73F100048C
:1009D00008DA401C41F1000192185B411A4301D131
:1009E00020F0010010BD2DE9F04D92469B4611B15B
:1009F000B1FA81F202E0B0FA80F220329046FFF7BD
:100A000022FF04460F4640EA0A0041EA0B01534622
:100A10005A46084313D0114653EA010019D0C8F1D1
:100A200040025046FFF71EFF05460E465046594607
:100A30004246FFF708FF084305D0012004E02046A6
:100A40003946BDE8F08D0020054346EAE0762C43A8
:100A500037430A986305E40AA0EB08000022FD0A68
:100A600044EA47540A3002D500200146E9E701056F
:100A700010196941DDE9084500196941BDE8F04DEB
:100A8000A2E72DE9F04D81EA030404F0004B21F0C8
:100A9000004514464FF0000A23F0004150EA0502D9
:100AA00020D054EA01021DD0C5F30A570246C5F30F
:100AB0001303C1F31300C1F30A5640F4801543F445
:100AC0008013A7EB0608101BD64608F2FD3873EB1F
:100AD000050002D308F1010801E092185B41B8F16A
:100AE000000F03DA00200146BDE8F08D00204FF42E
:100AF0008011064684460EE0171B73EB050705D3ED
:100B0000121B63EB050306434CEA010C49084FEA4C
:100B1000300092185B4150EA0107EDD152EA030020
:100B200012D082EA040083EA0501084305D0101BB5
:100B3000AB4106D20122002306E000224FF0004321
:100B400002E06FF0010253101AEB06004CEB085163
:100B500010EB0A0041EB0B01BDE8F04DFFF734BF8D
:100B60000EB540F2334202920022CDE90022134634
:100B7000FFF739FF03B000BD1CB5094800900948D4
:100B800001900546009C06E0E06840F0010394E80F
:100B9000070098471034AC42F6D3FFF7F9FA00008B
:100BA0004872000868720008C0B24FF4F05100F0BB
:100BB00097B900002DE9F34F8BB04FF0000801F119
:100BC0000C000C464FF0010B46460DF1080A01904F
:100BD0006269012101989047051E2DD0252D2CD04A
:100BE000216A8847C0B16269012101989047216A52
:100BF00088470028F7D1411E62690198904700E0BC
:100C0000761CA1690B988847216A88470028F7D18C
:100C1000E1690B988847DBE7A1690B98884707468D
:100C2000A84201D1761CD3E7E1690B9888477F1C65
:100C300002D1B8F1000F6FD046E1002762693D464E
:100C40003946019890472A2804D162690121019808
:100C500090470125DFF8849262690121019890474D
:100C6000A0F130010A290AD24F45E5DC07EB8701E4
:100C700000EB4107303FDFD445F01005ECE7E90613
:100C800001D46FF000476C280AD04C2814D0682893
:100C900015D06A280DD074281CD07A281AD01DE0EF
:100CA00062690121019890476C2802D045F0040543
:100CB00014E045F002050DE045F020050AE0626908
:100CC000012101989047682802D045F0080505E009
:100CD00045F400656269012101989047C4E9015714
:100CE00065283DD019DC58287AD00CDC452837D04F
:100CF00004DC252826D0412831D131E046282FD0E8
:100D000047282CD12CE05B2877D0612828D0632895
:100D10007CD0642823D15AE0D0E06F2848D008DC8A
:100D200066281DD067281BD0692821D06E2816D1CF
:100D300027E0702845D0732868D0752847D07828D8
:100D40000DD14DE0A1690B988847054625283FF451
:100D500069AFE1690B9888476D1C3FF46AAFB3E057
:100D600023466A466FF001000B99FFF7B1FB9EE046
:100D700045F040006060A80723464FF0000236D4DB
:100D80003EE0E8077FF447AF2068011D216000685E
:100D9000290501D506701BE7290701D5068017E74D
:100DA000A90703D5F117C0E9006111E706600FE755
:100DB00045F040006060A80723464FF0080216D4B3
:100DC0001EE040F60E0125EA0100606016E045F0E5
:100DD00040006060A80723464FF00A0207D40FE0E6
:100DE00045F040006060A80708D5234610226FF048
:100DF00001000B99AFF3008059E007E02346102271
:100E00006FF001000B99FFF729FA50E04FF000094D
:100E10004F464B46632802D05B2806D040E0E806E8
:100E200001D40120A06001273AE062690121019804
:100E300090475E2805D14FF0010962694946019843
:100E40009047216939B900210A46534643F82120C9
:100E5000491C0829FADBB0B3216969B9C11700EB55
:100E6000D16253110AEB830122F01F02821A012082
:100E70000B68904003430B60626901210198904721
:100E80005D28E8D1B9F1000F09D00020514651F892
:100E90002020D24341F82020401C0828F7DB02AB79
:100EA000224600976FF001000B99AFF300800028F5
:100EB0000CDA401C08D1BBF1000F05D04FF0FF3019
:100EC0000DB0BDE8F08FFFE74046F9E7E90701D133
:100ED00008F1010806444FF0000B79E6CCCCCC0CAD
:100EE0007F2801D9002208E0064A02EB5002C00721
:100EF000127800D1120902F00F0201209040084040
:100F000070470000A4710008FEE700009FED0B1A77
:100F10009FED0C2A20EE010A9FED091A20EE822A8D
:100F200080EE010A82EE011A40F23800C2F200009F
:100F300080ED050A80ED061A704700BFE15CA34111
:100F400000007042E15CA3C140F20440C2F2000024
:100F500000F078B840F2C440C2F2000000F072B86D
:100F600040F24430C2F2000000F06CB840F2A4300D
:100F7000C2F2000000F066B840F26440C2F2000025
:100F800000F060B87047000072B600BFFEE70000D6
:100F900070B5866D044600F02BFB94F835100229DD
:100FA00028D105462068216C026822F016020260F2
:100FB000426922F08002426109B9A16C19B101684D
:100FC00021F008010160016821F00101016000BF0A
:100FD00020680068C00715D000F00AFB401B0628F7
:100FE000F6D320206065032084F83500002184F8C2
:100FF000341070BD802060650120002184F8341019
:1010000070BD00BFE06D3F2101FA00F0B06001202B
:1010100084F835000020002184F8341070BD0000F1
:1010200090F83510022909D1052180F835100068A3
:10103000016821F0010101600020704780214165B5
:1010400001207047F0B581B004460020009040F2C6
:101050003000C2F200000268D4E9166048F2B5130D
:1010600037680821C1F64E3381403942A2FB03257F
:101070000CD0226813685B0708D5136823F00403BB
:101080001360B160616D41F0010161650121814032
:10109000394208D022685269120604D5B160616DE8
:1010A00041F00201616504218140394208D0226883
:1010B0001268920704D5B160616D41F00401616569
:1010C00010218140394217D020680268120713D5D9
:1010D000B16002680168520308D4C90508D40168E8
:1010E00021F008010160216C21B905E008033FD41B
:1010F000216C09B120468847E16D202000FA01F2F9
:101100003A4241D020680368DB063DD5B26094F8CE
:1011100035300268052B1BD122F0160202604269AD
:1011200022F080024261226C0AB9A26C1AB10268F4
:1011300022F0080202603F208840B060012084F85D
:101140003500216D0020002984F8340052D157E089
:101150000168520310D4C90512D4016821F01001AE
:101160000160012084F83500002084F8340007E095
:10117000A16C0029BED1BFE7080301D4616C00E077
:10118000E16B09B120468847606DC8B3606DC00748
:101190002ED0052084F835002068A90A026822F0C4
:1011A00001020260009A01328A4200921AD8026853
:1011B000D20717D0009A01328A42009212D80268F0
:1011C000D2070FD0009A01328A4200920AD80268F0
:1011D000D20707D0009A01328A42009202D80268F0
:1011E000D207DFD1012084F83500002084F83400D4
:1011F000E16C29B1204601B0BDE8F040084700BFCE
:1012000001B0F0BD2DE9F041044600F0F1F9ECB178
:101210000546022084F835000020216884F8340057
:10122000086820F00100086021680868C00711D034
:1012300000F0DEF9401B0528F6D903252023032002
:10124000636584F83550BDE8F08100BF0120BDE83A
:10125000F08100BF086848F23F02CFF21002D4E9E3
:10126000013500EA020C04F10C0898E8C10143EAD8
:101270000C032B431843D4E9072E30433843104363
:10128000626A40EA0E00042A40EA08031CD1206B7F
:10129000D4E90A2E40EA0E00184308604869BEF1FE
:1012A000000F20F0030040EA020040F0040C11D0CF
:1012B000B8F5005F36D0B8F1000F45D1022A46D00C
:1012C000012A3BD032B942E00B60486920F00700A8
:1012D00040EA020C01F0F8004AF6AB221038CAF6D8
:1012E000AA22A0FB02231A0947F2FC13C1F814C07A
:1012F000C0F600039A5C40F2FF335F284FF03F00D6
:1013000021EA030100FA02F088BF0431C4E9161291
:101310008860002301250020636584F83550BDE80E
:10132000F08100BF032AD5D8012540230120DFE842
:1013300002F0030E030500BF82E700BFAEF1C070EC
:10134000B0FA80F0400904E0032A04D3C2D1CEF3FE
:1013500000600028BED0012540230120636584F889
:101360003550BDE8F081000090F834C0BCF1010FA9
:1013700004BF0220704770B54FF0010C80F834C0F4
:10138000D0F858E090F835C0BCF1010F38D14FF0DB
:10139000020C80F835C04FF0000CC0F854C0D0F8F3
:1013A00000C08468056CC06DDCF80060402C26F439
:1013B0008026CCF80060CCF804300B4604BF1346FE
:1013C0000A463F2101FA00F0CCF80830CCF80C2096
:1013D000CEF80800DCF8000040F01600CCF8000061
:1013E0002DB1DCF8000040F00800CCF80000DCF87B
:1013F000000040F00100CCF80000002070BD00BFEC
:10140000002180F83410022070BD0000B0B5044601
:1014100000F0EEF8054640F20800C2F20000007845
:10142000611C18BF044400BF00F0E2F8401BA0425A
:10143000FAD3B0BD2DE9F04F82B000F13E4707F17D
:10144000FF77860546EA972741F60046C4F2020672
:10145000082243F6004EB04208BF0722C4F2010E34
:10146000072F38BF3A46002600274FF000080092A9
:1014700009E000BF08F101080237B8F1100F06F1CA
:10148000040600F0A3800D68012202FA08F415EAB0
:101490000409EFD0D1F804B003220BF0030CACF137
:1014A0000105BA40012D6FEA020A0FD88268CD68A3
:1014B00002EA0A02BD402A4382604268A243CBF39B
:1014C000001404FA08F42243426005E0BCF1030F63
:1014D00002D14FF0030C1EE0C2688C6802EA0A02D7
:1014E000BC402243BCF1020FC26014D16FF0030272
:1014F00002EA58020244D2F820C006F01C040F236E
:101500000D69A3402CEA0303A5402B431362D1F8D5
:1015100004B00BF0030C02680CFA07F302EA0A02AB
:101520001A431BF4403F0260A4D0002243F6440358
:101530000192C4F202031A684FF6084C42F480424A
:101540001A601A68CFF6FF7C02F480420192019A79
:1015500028F00302724452F80C3006F00C050F24F8
:10156000AC40A343009C04FA05F52B4342F80C3031
:10157000DEF808204B6842EA090543F60C4CDC0211
:1015800058BF22EA0905CEF80850C4F2010CDCF875
:1015900000209C0242EA090558BF22EA0905CCF85E
:1015A0000050DEF804209C0342EA090558BF22EAF5
:1015B0000905CEF80450DEF80020DB0342EA0905F5
:1015C00058BF22EA0905CEF8005053E702B0BDE843
:1015D000F08F0000426902EA0103914341EA0341AE
:1015E00081617047002A08BF0904816170470000CB
:1015F00040F62C10C2F2000000687047002804BFBB
:1016000001207047F0B581B0044690F83D0028B93C
:10161000002084F83C00204600F050F9242084F893
:101620003D002068016821F001010160016841F47A
:1016300000410160016821F40041016000F014FBE9
:10164000636848F2A16CC0F2010C40F60011C0F2D0
:101650003D0163453CBF48F28041C0F21E01884213
:1016600002D2012001B0F0BD4DF68361C4F21B31FE
:10167000A0FB01122168970CD1F804E04FF4967694
:101680002EF03F0545EA92454D60774348F63816FF
:101690000D6AC0F24106A7FB067625F03F076345B9
:1016A00038BF960C721C3A430A62CA6948F2A066B7
:1016B0004CF6FF77C0F20106B34222EA07020BD8CC
:1016C00001385B00B0FBF3F001306FF31F300428EA
:1016D00098BF04201BE000BFA768013857B1192745
:1016E0007B43B0FBF3F001306FF31F3070B100F5B6
:1016F000804007E003EB4303B0FBF3F001306FF3EE
:101700001F3018B100F5004001E000BF0120104378
:10171000C8610868D4E9072320F0C00010431843CB
:101720000860886848F2FF3204F10C0790438CCFC0
:1017300018431043A6698860C86820F0FF0038434A
:101740003043C860086840F0010008600020202194
:10175000206484F83D10206384F83E0001B0F0BDA1
:101760002DE9F04383B0994616460F460446FFF72D
:101770003FFF94F83D10202924D10546206800BF82
:10178000816989071AD5FFF733FF411B20681A29A1
:10179000F6D381698907F3D500202021206384F8DE
:1017A0003D1084F83E00216C41F02001216484F852
:1017B0003C00022003B0BDE8F08300BF94F83C1069
:1017C000012903D1022003B0BDE8F083012284F88F
:1017D0003C200368DDE90B180A9ADB0703D1036894
:1017E00043F001030360036823F4006303602120D6
:1017F00084F83D00402084F83E00002020646262AE
:101800006185608D394620850020CFF6FF70E0624B
:10181000204632464B46CDE9008502F001FA18B168
:10182000012003B0BDE8F083208D98B920464146E1
:101830002A4602F059FA88B3206C0428F0D12068B7
:10184000016841F400710160012003B0BDE8F0833C
:101850000004EBD0204641462A4602F0F5FB002862
:10186000EAD1616A2268084610F8013B1361238DB2
:101870006062581E2085678D013F678557697F0725
:10188000E6D50704E4D048781061881C6062981E91
:101890002085618D01396185DAE700BF2068016824
:1018A00041F400710160202084F83D00002084F89C
:1018B0003E0084F83C0003B0BDE8F083B0B586B0CC
:1018C000006845F60001C4F2000100248842CDE919
:1018D0000444CDE9024401942ED045F20041C4F203
:1018E0000001884251D143F630050094C4F202054C
:1018F000286801A940F002002860286800F0020072
:10190000009000984FF4407001901220CDE902043D
:10191000032004900420059040F20040C4F202002D
:10192000FFF788FD0094286940F4001028612869B9
:1019300000F4001027E000BF43F630050094C4F225
:101940000205286801A940F002002860286800F01C
:101950000200009000984FF4406001901220CDE901
:101960000204032004900420059040F20040C4F2D9
:101970000200FFF75FFD0094286940F480002861B1
:10198000286900F480000090009806B0B0BD000007
:1019900040F2080040F62C11C2F20000C2F2000131
:1019A00000780A68104408607047000080B543F66C
:1019B0000040C4F20200016841F400710160016856
:1019C00041F480610160016841F48071016003208D
:1019D00000F088F8032000F005F800F027F8002058
:1019E00080BD000070B540F20806C2F2000640F269
:1019F00030013278C2F200014FF47A730968B3FB08
:101A0000F2F20446B1FBF2F1084600F0B7FB0F2CEE
:101A10004FF0010508D838B94FF0FF3021460022B9
:101A2000002500F033F87460284670BD82B00020B5
:101A300043F640010190C4F202014A6842F4804238
:101A40004A604A6802F480420192019A0090086854
:101A500040F080500860086800F0805000900098C6
:101A6000052002B000F03EB8002848BF704700F0E3
:101A70001F01012202FA01F11C2202EAD0004EF2FB
:101A80000012CEF2000281507047000010B54EF6F1
:101A90000C5CCEF2000CDCF80030C3F3022E8EF0AA
:101AA0000704042C28BF0424BEF103034FF0FF3EBB
:101AB0000EFA04F438BF0023A14399400EFA03F351
:101AC0009A43114300F00F0200F160430901043A08
:101AD00003F564436244002848BF02F10C03197007
:101AE00010BD00004EF60C51CEF200010A684FF610
:101AF000FF031A4060F30A2242F0806040F0FD705C
:101B000008607047002804BF012070472DE9F041AC
:101B100043F60808C4F202080446D8F8F8030D4654
:101B200000F00700884207D288F8F853D8F8F80385
:101B300000F00700A84277D12068810717D5410738
:101B400005D5D8F8001041F4E051C8F8001001079D
:101B500005D5D8F8001041F46041C8F80010D8F855
:101B60000010A26821F0F0011143C8F80010C0076E
:101B700040D1D8F8F80300F00700A84207D988F848
:101B8000F853D8F8F80300F00700A8424CD12068B9
:101B9000410707D5D8F80010E26821F4E05111435D
:101BA000C8F80010000708D5D8F80000216920F413
:101BB000604040EAC100C8F8000000F07DF8D8F8A5
:101BC000001047F2E412C1F30311C0F60002515CA9
:101BD00040F2300220FA01F140F20C00C2F20000A3
:101BE0000068C2F200021160FFF7FCFE0020BDE8B1
:101BF000F08100BF6068811E022907D258F8081CD6
:101C000089015CBF0120BDE8F08111E0012807D106
:101C100058F8081C89035CBF0120BDE8F08107E08B
:101C200058F8081C890703D40120BDE8F08100BFE3
:101C3000D8F8001021F003010843C8F80000FFF7AE
:101C4000D7FC064641F28837D8F80000616800F0FA
:101C50000C00B0EB810F8CD0FFF7CAFC801BB842A0
:101C6000F2D90320BDE8F08140F2300043F60801CC
:101C7000C2F20000C4F202010068096847F2F412DF
:101C8000C1F38221C0F60002515CC84070470000D9
:101C900040F2300043F60801C2F20000C4F2020133
:101CA0000068096847F2F412C1F34231C0F600023D
:101CB000515CC8407047000010B543F60404C4F2FC
:101CC0000204606800F00C0142F200400829C0F2F2
:101CD000F40007D0042918BF10BD41F20020C0F263
:101CE0007A0010BD216801F03F0221682368490293
:101CF000C3F3881106D4A1FB00010023FEF760FAAC
:101D000007E000BF41F20020C0F27A004843B0FB78
:101D1000F2F021680222C1F3014102EB4101B0FB64
:101D2000F1F010BD70B586B043F63006002840F2E1
:101D3000000014460D46C4F20206C4F202004FF041
:101D4000000123D00191326800F5006042F00402E6
:101D50003260326802F004020192019A4FF400727C
:101D60000192022202920322CDE90312059101A9F8
:101D7000FFF760FB56F8280C20F0784040EAC400DA
:101D8000284346F8280C06B070BD00BF01913268A8
:101D900042F001023260326802F001020192019ABF
:101DA0004FF480720192022202920322CDE90312C3
:101DB000059101A9FFF73EFB56F8280C20F0EC60D6
:101DC0002843204346F8280C06B070BD002804BF05
:101DD000012070472DE9F04182B00446007843F6B7
:101DE0000006C007C4F202060CD0B06800F00C0078
:101DF000042840F081803068800303D560680028A3
:101E000000F06A81207880071BD5B06810F00C0FB5
:101E100009D0B06800F00C00082840F08780706896
:101E2000400200F183803068800703D5E068012814
:101E300040F052813068216920F0F80040EAC1008A
:101E400030602078000713D4207840072AD4A56991
:101E5000002D00F03C81B06800F00C00082840F034
:101E6000A180012D40F01081012002B0BDE8F08179
:101E70006069002840F20000C4F2472000F07E8034
:101E80000121C0F8801EFFF7B3FB0546706F800785
:101E9000DAD4FFF7ADFB401B0228F7D9032002B0CC
:101EA000BDE8F081306C5FEAC0080AD400200190E0
:101EB000306C40F080503064306C00F08050019005
:101EC000019847F20007C4F200073868C00547D4FC
:101ED000386840F480703860FFF78AFB054600BF21
:101EE0003868C0053CD4FFF783FB401B0228F7D9B4
:101EF000032002B0BDE8F081B06800F00C000828B3
:101F000003D1706840023FF576AF6068B0F5803F5E
:101F100007D0B0F5A02F40F09B80306840F48020BF
:101F20003060306840F4803030609BE0E06800282A
:101F30005CD00020C4F2472001210160FFF758FB6C
:101F4000054600BF306880073FF574AFFFF750FBD0
:101F5000401B0228F6D9032002B0BDE8F08100BF83
:101F6000A068012805D0052854D1306F40F0040046
:101F70003067306F40F00100306755E00021C0F855
:101F8000801EFFF735FB0546706F80077FF55CAF5D
:101F9000FFF72EFB401B0228F6D9032002B0BDE854
:101FA000F08100BF0027C4F2472700203866FFF702
:101FB0001FFB022D05460DD13068800140F1908055
:101FC000FFF716FB401B02284FF00300F4D902B0C4
:101FD000BDE8F0813068800179D5FFF709FB401B2F
:101FE00002284FF00300F5D9F1E700BF0020C4F24A
:101FF000472000210160FFF7FBFA054630688007A3
:102000007FF51FAFFFF7F4FA401B02284FF00300E3
:10201000F4D9DCE7316F002821F001013167316F1D
:1020200021F0040131677DD0FFF7E2FA054641F265
:10203000883700BF306F800700F18680FFF7D8FA3D
:10204000401BB842F6D9032002B0BDE8F08100BFC2
:102050003168002821F480313160316821F4802119
:1020600031607BD0FFF7C4FA054600BF30688003BB
:102070003FF5C8AEFFF7BCFA401B6428F6D9032031
:1020800002B0BDE8F08100BF7068E16900F4800231
:102090008A4221D1216A00F03F028A421CD147F6D0
:1020A000C071626A0140B1EB821F15D1A16A4FF67F
:1020B000FF73C903994300F44032A1F580318A428D
:1020C0000AD1E16A00F07060B0EB016F04D100202A
:1020D00002B0BDE8F08100BF012002B0BDE8F08190
:1020E00004F11C052FCD084340EA8210D9034FF6B6
:1020F000FF729143A1F5803140EA056008437060AA
:1021000001203866FFF774FA044600BF306880018A
:10211000DDD4FFF76DFA001B02284FF00300F5D95C
:1021200055E700BFFFF764FA054641F2883700BF64
:10213000306F800708D5FFF75BFA401BB8424FF0BD
:102140000300F5D943E700BFB8F1000F3FF57FAEBC
:10215000306C20F08050306479E600BFFFF748FA19
:10216000054600BF306880037FF54CAEFFF740FAAC
:10217000401B64284FF00300F4D928E7411E0020DB
:10218000B0EB116F1CBF012070474EF21002CEF26F
:10219000000251604EF62351CEF20001F0230B7085
:1021A0000721906011607047704700007047000081
:1021B00090F83C20012A04BF02207047B0B501F11D
:1021C00008053CCDD1E900CE23F47C5322F47052B3
:1021D0001A432EF4F0431A432CF4E0431A4324F438
:1021E000C0431A432A43C96922F480420368114359
:1021F0005964002180F83C10BDE8B04008467047A3
:1022000090F83C20012A4FF0020254D010B580F81B
:102210003D200268D2F804E0D2F808C00C682EF025
:102220007003234341F2FF74C4F20004A2425360DE
:102230000EDC40F2FF73C4F200039A4216DCB2F1E6
:10224000804F2BD040F20043C4F2000324E000BFD3
:1022500040F2FF33C4F201039A4213DC41F600035B
:10226000C4F200039A4219D0002313E040F60003A1
:10227000C4F200039A4211D040F60043C4F20003B6
:102280000AE000BF44F20003C4F201039A4205D001
:1022900040F20043C4F201039A4204D149682CF091
:1022A0008003194391600121002280F83D1080F8DD
:1022B0003C20BDE81040104670470000002804BFD5
:1022C0000120704710B5044690F83D0028B9002061
:1022D00084F83C00204600F01FF8022084F83D00FE
:1022E0002068211D03F078F9012084F8460084F865
:1022F0003E0084F83F0084F8400084F8410084F8F0
:10230000420084F8430084F8440084F8450084F8CF
:102310003D00002010BD00000068B0F1804F18BFE4
:10232000704780B582B00020019043F64000C4F2AF
:1023300002000168002241F00101016000680021F3
:1023400000F00100019001981C20FFF79FFB1C206A
:1023500002B0BDE88040FFF787BB000090F83D1059
:1023600001291CBF01207047022180F83D10006840
:1023700041F2FF72C168C4F20002904241F00101D3
:10238000C1600DDC40F2FF71C4F20001884215DC2F
:10239000B0F1804F2AD040F20041C4F2000123E0A6
:1023A00040F2FF31C4F20101884213DC41F6000122
:1023B000C4F20001884219D0002113E040F6000168
:1023C000C4F20001884211D040F60041C4F200017D
:1023D0000AE000BF44F20001C4F20101884205D0C6
:1023E00040F20041C4F20101884206D1816801F047
:1023F0000701062904BF00207047016841F0010170
:10240000016000207047000090F83C20012A4FF046
:10241000020200F0C58080B580F83D20D0F800C0F1
:102420004FF67772DCF8083023EA0202CCF8082075
:102430000B684F2B28DC1F2B44DD202B45D0302B85
:1024400043D0402B40F0AE80D1F804E0C968DCF8FE
:102450002030DCF8202022F00102CCF82020DCF82B
:10246000182022F0F00242EA011123F00A0242EAA7
:102470000E02CCF81810CCF82020DCF8081041F03F
:10248000470121F0300180E06F2B27DDB3F5005FBD
:1024900048D0B3F5805F7AD0702B40F08380D1E9CB
:1024A00001E3C968DCF8082043EA0E0322F47F4206
:1024B00043EA01211143CCF80810DCF8081041F080
:1024C000770162E00BB1102B6CD1DCF8081021F021
:1024D0007001194341F0070157E000BF502B35D080
:1024E000602B5FD1D1F804E0C968DCF82030DCF85B
:1024F000202022F01002CCF82020DCF8182022F452
:10250000704242EA013123F0A00242EA0E12CCF8F6
:102510001810CCF82020DCF8081041F0670121F0F9
:10252000100132E0D1E901E3C968DCF8082043EA90
:102530000E0322F47F4243EA01211143CCF8081034
:10254000DCF8081041F480411FE000BFD1F804E03E
:10255000C968DCF82030DCF8202022F00102CCF839
:102560002020DCF8182022F0F00242EA011123F0CA
:102570000A0242EA0E02CCF81810CCF82020DCF84F
:10258000081041F0570121F02001CCF8081000227A
:10259000012180F83D10002180F83C10BDE880400A
:1025A000104670470122F3E7002804BF012070475E
:1025B0002DE9F047044690F83D000D4628B900206B
:1025C00084F83C00204600F049F8022084F83D00E1
:1025D000206844F20702816891438160211D02F066
:1025E000FBFF20684FF6FF7881688269D0F820C031
:1025F000D5E9003ED5E9026A43EA0109AB6922EA5E
:10260000080246EA03234FF6FC46B343D5E90767C1
:1026100042EA0A0229691A4342EA062242EA011101
:102620002CF0AA026B6942EA0E0241EA073142EA43
:102630000312C0F8089081610262012084F846000C
:1026400084F83E0084F83F0084F8420084F8430098
:1026500084F83D000020BDE8F087000080B586B01A
:10266000006840F60042C4F2000200219042CDE929
:102670000411CDE90211019120D040F20041C4F2D1
:102680000001884240D1002043F630010090C4F29E
:1026900002010A6942F002020A610A6902F00202BA
:1026A0000092009A0090086840F0010008600868F5
:1026B00000F0010000900098C02018E043F63000C0
:1026C0000091C4F20200026942F00802026102694C
:1026D00002F008020092009A0091016841F00101A5
:1026E0000160006800F00100009000980F20019048
:1026F00002200290002105900020CDE90311C4F2D0
:10270000020001A9FEF796FE06B080BD80B590F8E4
:102710003E2090F83F3090F842E090F843C0042902
:102720000AD0B9B9012A4FF0010208BFBEF1010F6A
:1027300034D0104680BD00BF012B4FF0010208BF0E
:10274000BCF1010FF5D1022180F83F1080F8431051
:1027500000681EE0012A4FF0010208BF012BE8D1FA
:10276000BEF1010FE5D1BCF1010FE2D1022280F8E8
:102770003E2080F83F2080F8422080F8432091B12D
:102780000068016A21F001010162016A41F0010162
:10279000016210216FF0100209E000BF022180F8F1
:1027A0003E1080F84210006801216FF00102036AB8
:1027B0001A400262026A114301620168002241F07C
:1027C00001010160104680BD7047000070B50446ED
:1027D0000068C5680669B10716D515F0020113D067
:1027E0006FF002010161012121778069800703D028
:1027F0002046FFF7E9FF05E0204600F08FF820466D
:1028000000F0FEF900202077700719D515F00400BC
:1028100016D020686FF004010161022121778069E0
:1028200010F4407F04D02046FFF7CEFF06E000BF43
:10283000204600F073F8204600F0E2F900202077EF
:10284000300717D515F0080014D020686FF0080184
:10285000016104212177C069800703D02046FFF77A
:10286000B3FF05E0204600F059F8204600F0C8F913
:1028700000202077F00619D515F0100016D020683A
:102880006FF01001016108212177C06910F4407FC9
:1028900004D02046FFF798FF06E000BF204600F076
:1028A0003DF8204600F0ACF900202077F00718BF73
:1028B00015F0010002D1300609D412E020686FF053
:1028C00001010161204600F02DFA300609D515F00E
:1028D000800006D020686FF0800101612046FFF77C
:1028E00063FC700609D515F0400006D020686FF033
:1028F00040010161204600F02FFAB00658BF70BDBC
:1029000015F0200008D021686FF0200220460A61EF
:10291000BDE87040FFF74ABC70BD00007047000082
:1029200090F83C30012B04BF022070474FEAB202FE
:10293000032A00F201812DE9F043DFE802F0033FB2
:102940007FBF00BF036840F200461C6A1A6A24F089
:10295000020422F001021A621A46D3F804C052F8A7
:1029600018EF8F6843F48065C4F20106B54244EA6B
:10297000070405D1CF6824F00C0427F004073C437A
:102980000F68B54206D1D1E905582CF440762E43A4
:1029900046EA080C2EF073063743C3F804C09F6163
:1029A0004F6809695F631C629F6947F008079F6170
:1029B0009F6927F004079F61B2E000BF036840F2FF
:1029C00000481C6A1A6A24F0200422F010021A62DD
:1029D0001A46D3F804C052F818EF8F6843F48065A4
:1029E000C4F20108454544EA071407D1CF686FF0E7
:1029F000400624F0C00406EA07163443D1F80090DC
:102A0000454506D1D1E905562CF440672E4347EAE7
:102A1000860C2EF4E64747EA0927C3F804C09F61F5
:102A20004F6809699F631C629F6947F400679F6153
:102A30009F6927F480679F6171E000BF036840F2DF
:102A400000481C6A1A6A24F4007422F480721A6224
:102A50001A46D3F804C052F81CEF8F6843F480651F
:102A6000C4F20108454544EA072408D1CF6840F282
:102A7000FF463F0224F4406427EA06063443D1F8B7
:102A80000090454506D1D1E905562CF440572E4318
:102A900047EA061C2EF0730747EA0907C3F804C08B
:102AA000DF614F680969DF631C62DF6947F008076F
:102AB000DF61DF6927F00407DF6131E0036840F27E
:102AC0000045D3F820C01A6A43F4806722F480528C
:102AD0001A621A465C6852F81CEFD1F800808E68C2
:102AE000C4F20105AF4204D14D6924F4804444EAA4
:102AF00085142CF4005747EA06372EF4E64646EADA
:102B000008265C60DE614E6809691E641F62DF6929
:102B100047F40067DF61DF6927F48067DF6109023E
:102B20001368194311600021BDE8F043002280F8CA
:102B30003C200846704700BF0121002280F83C205D
:102B400008467047002804BF0120704710B50446AE
:102B500090F83D0028B9002084F83C00204600F0A1
:102B60001FF8022084F83D002068211D02F034FD8A
:102B7000012084F8460084F83E0084F83F0084F881
:102B8000400084F8410084F8420084F8430084F84F
:102B9000440084F8450084F83D00002010BD00008A
:102BA00082B0006840F60001C4F20001884215D0EE
:102BB0000021C4F2010188421FD10020019043F698
:102BC0004000C4F20200416841F0010141604068E8
:102BD00000F001000190019802B0704700200090C1
:102BE00043F64000C4F20200016841F004010160B4
:102BF000006800F004000090009802B070470000E8
:102C00007047000041B1082910D0042914BF00F119
:102C1000410200F13F020BE090F83E20012A1CBF68
:102C200001207047022280F83E2013E000F14002AC
:102C30001278012A1CBF012070470222082907D000
:102C4000042914BF80F8412080F83F2002E000BF33
:102C500080F84020006801F01F010122036A02FA97
:102C600001F123EA01020262026A114341F2FF729A
:102C7000C4F200029042016210DC40F2FF71C4F223
:102C8000000188421CDCB0F1804F3FD040F200418F
:102C9000C4F20001884239D03DE000BF40F2FF316C
:102CA000C4F20101884219DC41F60001C4F20001BE
:102CB00088422BD00021C4F2010188421AD02AE0B8
:102CC00040F60001C4F2000188421FD040F60041E6
:102CD000C4F20001884219D01DE000BF44F2000197
:102CE000C4F20101884211D040F20041C4F2010156
:102CF000884210D1416C40F2004340F48062C4F23B
:102D0000010341F400419A42416404D1816801F019
:102D10000701062903D0016841F00101016000208C
:102D2000704700000068B0F1804F18BF704780B551
:102D300002F02CFC40F2B010C2F200000178013128
:102D4000CAB20A2A0170BDE8804003D30021017095
:102D500002F030BC704700007047000070B582B0D0
:102D6000044690F8420020280AD113460A4600295A
:102D70004FF0010018BF002B06D102B070BD00BF9C
:102D8000022002B070BD00BF2063002622206663CF
:102D9000A262A385666484F84200E06B45F6BD0C30
:102DA00045F61D252168C0F6000CC0F60005C0E9F7
:102DB0000FC545F24175C0F600050431C0E9135650
:102DC000FEF7D2FAE0B310206064202084F84200BD
:102DD0000120216B012940F0B3800021009121687E
:102DE0000A68009249680091009900BF216851E883
:102DF000031F226841F0100142E80313002BBCD0EE
:102E0000216851E8031F226841F0100142E80313D2
:102E1000002BB2D0216851E8031F226841F0100155
:102E200042E80313002BA8D0216851E8031F226851
:102E300041F0100142E80313002BD7D19DE700BFFA
:102E4000019620680168019140680190019820690D
:102E500030B300BF206850E8030F216840F4807051
:102E600041E80302E2B1206850E8030F216840F412
:102E7000807041E803029AB1206850E8030F21688E
:102E800040F4807041E8030252B1206850E8030F1B
:102E9000216840F4807041E80302002ADAD100BFC3
:102EA000206850E8050F216840F0010041E8050264
:102EB000BAB3206850E8050F216840F0010041E8EE
:102EC000050272B3206850E8050F216840F0010048
:102ED00041E805022AB3206850E8050F216840F058
:102EE000010041E80502002ADAD11AE0206850E822
:102EF000050F216840F0400041E80502DAB1206882
:102F000050E8050F216840F0400041E8050292B109
:102F1000206850E8050F216840F0400041E80502B4
:102F20004AB1206850E8050F216840F0400041E8B0
:102F30000502002ADAD10020216B01293FF44DAFB0
:102F4000012002B070BD000070B584B040F2C472C0
:102F5000C2F2000290420DD040F60C01C2F2000114
:102F6000884225D040F65401C2F20001884247D081
:102F700004B070BD40F600400C46C4F202000221CD
:102F8000FEF728FB40F2EC00C2F20000451C284688
:102F9000214602F0E1FE40F2C470C2F20000294670
:102FA0002122FFF7DBFE40F2C440C2F2000046E0FF
:102FB00040F2940240F28800C2F2000240F2B114E2
:102FC00040F28C05C2F2000002F10801C2F20004D6
:102FD000C2F20005CDE90010131D20A12046029584
:102FE000FDF720F940F60C00C2F200002146C8228D
:102FF000FFF7B4FE40F24430C2F200001FE000BF11
:1030000040F2101240F27926C2F20002C2F200062B
:1030100002F10C0502F10804131D0CA13046CDE9A4
:103020000045FDF7FFF840F65400C2F200003146BB
:10303000C822FFF793FE40F20440C2F2000000688D
:10304000016821F00801016004B070BD212C2566E3
:103050002C25662C25662C25642C2300212C256626
:103060002C25662C25662C25662C25662300000061
:1030700070470000B0B582B0044600680168C368BC
:10308000426901F02F05202D03F0200506D12DB156
:10309000204602B0BDE8B04002F0CCBC5FEA017C43
:1030A0001EBF02F0010E03F4907212EB0E0243D128
:1030B000226BCD0618D5012A16D113F0100213D0B9
:1030C00000210191016801914168019101994069D4
:1030D00040063BD4A08DE18DE28D002A18BF8842C6
:1030E00040F0FE8102B0B0BD0A0640F1E98013F065
:1030F000800200F0E58094F841102129F2D1A16806
:10310000B1F5805F03D12169002900F06F82216A47
:103110004A1C226209784160E18C01390A04E18489
:10312000E0D1C16821F08001C160C16841F0400177
:10313000C16002B0B0BD00BFCA0718BF13F48072EF
:1031400040F0DC804A0700F1DF80E4E0E06B0168DA
:103150004A68A38D91B2002900F0C680994280F0A0
:10316000C380E285C069B0F5807F00F09C80206854
:1031700050E8030F216820F4807041E80302DAB1BF
:10318000206850E8030F216820F4807041E80302B2
:1031900092B1206850E8030F216820F4807041E864
:1031A00003024AB1206850E8030F216820F48070C0
:1031B00041E80302002ADAD1206850E8050F2168AF
:1031C00020F0010041E80502DAB1206850E8050F5F
:1031D000216820F0010041E8050292B1206850E822
:1031E000050F216820F0010041E805024AB120687E
:1031F00050E8050F216820F0010041E80502002A8F
:10320000DAD1206850E8050F216820F0400041E83D
:103210000502DAB1206850E8050F216820F040006F
:1032200041E8050292B1206850E8050F216820F0BE
:10323000400041E805024AB1206850E8050F2168C6
:1032400020F0400041E80502002ADAD1202084F86D
:10325000420000202063206850E8030F216820F01E
:10326000100041E80302DAB1206850E8030F21683A
:1032700020F0100041E8030292B1206850E8030FEB
:10328000216820F0100041E803024AB1206850E8AC
:10329000030F216820F0100041E80302002ADAD170
:1032A000E06BFDF775FE02206063A08DE18D401A92
:1032B00081B2204602B0BDE8B040FFF745BE00BF76
:1032C00049067FF50FAF13F040013FF40BAFC16823
:1032D00021F04001C1602021204684F8411002B055
:1032E000BDE8B04000F08CBC8B427FF4FBAEC069FF
:1032F000B0F5807F7FF4F6AE02226AE1626C42F0A4
:10330000010262644A0706D5BEF1000F03D0626C69
:1033100042F0020262648A0706D5BEF1000F03D0B4
:10332000626C42F004026264BCF1000F06D55EEAF2
:10333000050203D0626C42F008026264626C002AEB
:103340003FF4D0AE890604D51DB1204602F072FBD1
:1033500020684069616C00F0400001F008014018ED
:1033600000F0B680206850E8030F216820F49070C8
:1033700041E80302BAB3206850E8030F216820F443
:10338000907041E8030272B3206850E8030F21688F
:1033900020F4907041E803022AB3206850E8030F3C
:1033A000216820F4907041E80302002ADAD11AE083
:1033B000206850E8050F216820F0010041E805026F
:1033C000DAB1206850E8050F216820F0010041E8DB
:1033D000050292B1206850E8050F216820F0010035
:1033E00041E805024AB1206850E8050F216820F045
:1033F000010041E80502002ADAD1206B012824D11E
:10340000206850E8030F216820F0100041E8030213
:10341000DAB1206850E8030F216820F0100041E87D
:10342000030292B1206850E8030F216820F01000D9
:1034300041E803024AB1206850E8030F216820F0F8
:10344000100041E80302002ADAD1202084F842006B
:103450000020206320684069400640F1C180206858
:1034600050E8050F216820F0400041E80502DAB17C
:10347000206850E8050F216820F0400041E805026F
:1034800092B1206850E8050F216820F0400041E823
:1034900005024AB1206850E8050F216820F040007D
:1034A00041E80502002ADAD1E06B002800F098809C
:1034B00045F23571C0F600010165FDF7B1FD002848
:1034C0003FF410AEE06B016D02B0BDE8B0400847BC
:1034D0002046FFF7CDFD0020606402B0B0BD00BF04
:1034E000401A00BF216851E8031F226821F490713F
:1034F00042E80313BBB3216851E8031F226821F49B
:10350000907142E8031373B3216851E8031F2268E6
:1035100021F4907142E803132BB3216851E8031F93
:10352000226821F4907142E80313002BDAD11AE0EB
:10353000216851E8051F226821F0010142E80513C6
:10354000DBB1216851E8051F226821F0010142E842
:10355000051393B1216851E8051F226821F001018C
:1035600042E805134BB1216851E8051F226821F09C
:10357000010142E80513002BDAD1202184F8421022
:1035800000212163216851E8031F226821F0100106
:1035900042E80313DBB1216851E8031F226821F0E0
:1035A000100142E8031393B1216851E8031F226818
:1035B00021F0100142E803134BB1216851E8031FC9
:1035C000226821F0100142E80313002BDAD1022215
:1035D00081B22046626302B0BDE8B040FFF7B4BCE0
:1035E000204602B0BDE8B040FFF742BD216A31F885
:1035F000022B6FF35F22426021628DE5002804BF39
:103600000120704710B5044690F8410028B9002009
:1036100084F84000204600F021F8242084F841007E
:103620002068C16821F40051C160204602F082FA8E
:103630002068016921F490410161416921F02A016A
:103640004161C16841F40051C160002020216064E3
:1036500084F8411084F84210606310BD2DE9F04FEA
:1036600087B00446006844F6FF71C4F20001884246
:103670004FF000010691CDE90411CDE9021100F3EC
:10368000838044F20041C4F20001884200F0BE8011
:1036900044F60001C4F20001884200F0E58044F6DF
:1036A0000041C4F20001884240F0B881002643F690
:1036B00030000196C4F20200016946F2100841F49C
:1036C000002101610169C4F2020801F400210191A5
:1036D00001990196016841F004010160006802A9A6
:1036E00000F00400019001984FF440600290022025
:1036F000CDE90306032005900820069040F600005F
:10370000C4F20200FDF796FE40F2A43508F1600015
:10371000C2F200054FF000674021C5E9000705F13E
:1037200008004FF4806980E842022846C5E9056632
:10373000C5E907666E62FDF765FD002818BFFDF755
:1037400023FCA563AC6340F2443508F13000C2F2BB
:103750000005C5E900072846C5E90266C5E90496E3
:10376000C5E90666C5E90866FDF74CFD002818BFE7
:10377000FDF70AFC342001210122E563AC63FEF76A
:1037800085F9342048E100BF45F20001C4F2000190
:10379000884200F0BB8041F20001C4F2010188427E
:1037A00000F0408141F20041C4F20101884240F042
:1037B0003581002043F630010190C4F202014A69CC
:1037C00042F020024A614A6902F020020192019A05
:1037D00001900A6842F004020A60096801F00401DD
:1037E00001910199C02102910221CDE9031003202A
:1037F00005900820069040F60000C4F2020002A9DD
:10380000FDF718FE07B0BDE8F08F00BF002043F6BB
:1038100030010190C4F202010A6942F400320A61E7
:103820000A6902F400320192019A01900A6842F09A
:1038300008020A60096801F00801019101996021FC
:1038400002910221CDE90310032005900720069084
:1038500040F60000C4F2020000F5806002A9FDF706
:10386000E9FD07B0BDE8F08F002643F63000019671
:10387000C4F20200016941F480210161016901F48F
:103880008021019101990196016841F008010160D0
:10389000006802A900F00800019001984FF4407000
:1038A00002900220CDE90306032005900720069030
:1038B00040F60000C4F2020000F58060FDF7BAFD9A
:1038C00046F21000C4F2020040F2C4451830C2F2C1
:1038D00000054FF000614FF4806285E84300284600
:1038E000C5E90362C5E90566C5E907666E62FDF7CD
:1038F00089FC002818BFFDF747FB27200021012283
:10390000E563AC63FEF7C2F8272085E0002743F6A5
:1039100030000197C4F20200016940F6000541F44D
:10392000801101610169C4F2020501F48011019165
:1039300001990197016802AE41F00401016001683C
:1039400046F2100801F00401019101990197016804
:103950004FF0020941F00801016000684FF0030ACE
:1039600000F00800019001984FF4805002904FF051
:10397000080B28463146C4F20208CDE90397CDF87A
:1039800014A0CDF818B0FDF755FD0420CDE90209CB
:1039900004A880E8800C05F580603146FDF74AFDFB
:1039A00040F20445C2F200054FF000664FF4806912
:1039B0002846C5E90086C5E90277C5E90497C5E947
:1039C0000677C5E90877FDF71DFC002818BFFDF74D
:1039D000DBFAE563AC6340F2644508F1A800C2F28B
:1039E00000054021C5E9000605F1080080E88202D3
:1039F0002846C5E90577C5E907776F62FDF702FC40
:103A0000002818BFFDF7C0FA352000210222A56367
:103A1000AC63FEF73BF83520FEF726F807B0BDE8AB
:103A2000F08F00BF002043F630010190C4F2020184
:103A30004A6942F010024A614A6902F0100201929A
:103A4000019A01900A6842F002020A60096801F0D6
:103A5000020101910199C02102910221CDE90310D7
:103A6000032005900720069040F60000C4F20200F3
:103A7000A0F5806002A9FDF7DDFC07B0BDE8F08F7E
:103A800070470000704700002DE9F041044690F8AF
:103A9000410020281CBF0220BDE8F0810D4600290E
:103AA0004FF0010000F0AA801646002A08BFBDE8CA
:103AB000F081002060642120984684F84100FDF7E1
:103AC00097FDA684E684A1680646B1F5805F02D121
:103AD0002069002862D02F460025E08C002861D0A4
:103AE00018F1010018D0B8F1000F37D1216808E0B3
:103AF00017F8010B4860E08C0138E084E08C002866
:103B000051D00868000673D5002FF1D135F8020BAB
:103B100000276FF35F20EDE7216802E008680006E8
:103B200009D40868000606D4086800065CBF086867
:103B30005FEA0060F2D51FB117F8010B05E000BF86
:103B400035F8020B00276FF35F204860E08C0138E6
:103B5000E084E08C0028E4D125E000BF216800BFAC
:103B60000868000608D4FDF743FD801B404541D896
:103B70002168C868F4E700BF17B117F8010B04E02B
:103B800035F8020B00276FF35F204860E08C0138A6
:103B9000E084E08C0028E3D105E000BF0027E08C42
:103BA00000289DD12168086840061FD4B8F1000F95
:103BB0001ED018F101000FD10868400616D408681D
:103BC000400613D40868400610D4086840064FF039
:103BD0000000F1D50FE000BFFDF70AFD801B404556
:103BE00008D82068C16800684006F5D5002002E0CA
:103BF000FDF7FEFC0320202184F84110BDE8F08190
:103C000040F60C01C2F20001884218BF704740F232
:103C1000EC00C2F20000002101707047FEE70000D6
:103C20002DE9F04383B0044600680D4601680A9F01
:103C30000B9E41F4807199469046016020464FF0FA
:103C4000011100223B46009600F0ACF850B120680C
:103C50000068C00544BF4FF400702064032003B027
:103C6000BDE8F083206805F0FE0101610221C0F289
:103C7000010120463A46334600F07AF920B101208E
:103C800003B0BDE8F08300BF0020029020683246F8
:103C9000416902918069394602900298204600F0FD
:103CA000D3F958B1206C0428E9D12068016841F4A7
:103CB00000710160012003B0BDE8F0832068B9F114
:103CC000010F0AD04FEA18210161204639463246D9
:103CD00000F0BAF90028E5D120685FFA88F10161A7
:103CE000002003B0BDE8F08370B50368044653F8C4
:103CF000140F400711D40E46481C29D086BB00BFC4
:103D00001868400527D4FDF773FC236853F8140F97
:103D1000400737D518684007F2D5002070BD00BFB6
:103D200018684007F9D41868400514D4186840078B
:103D3000F3D4186840050ED418684007EDD418680D
:103D4000400508D4186840074FF0000048BF70BD18
:103D500018684005E4D56FF480601860042012E014
:103D6000154603E053F8140F4007D6D418684005F1
:103D7000F1D4FDF73DFC401B2368B042F2D95869ED
:103D80004007EFD4202000212022216384F83D2029
:103D900084F83E10226C10432064012084F83C100B
:103DA00070BD00002DE9F041054600681E4614462E
:103DB00001F47F0201338FB242D0DDF81880B2F5F2
:103DC000803F40F0878040693840C01BB0FA80F0E7
:103DD0004009A04240F0C8804EB924E04069384014
:103DE000C01BB0FA80F04009A04240F0BD80FDF752
:103DF000FFFBA0EB08012868B142EFD941693940C7
:103E0000C91BB1FA81F14909A142E7D19BE000BF8A
:103E100040693840C01BB0FA80F04009A0424FF022
:103E2000000040F0A280FDF7E3FB286841693940BB
:103E3000C91BB1FA81F14909A142E9D183E000BF70
:103E4000B2F5803F24D100BF41693940C91BB1FAA6
:103E500081F14909A14240F0878041693940C91B7D
:103E6000B1FA81F14909A14240F07E8041693940AF
:103E7000C91BB1FA81F14909A14275D141693940A3
:103E8000C91BB1FA81F14909A142DDD06CE000BF44
:103E900081693940C91BB1FA81F14909A14263D155
:103EA00081693940C91BB1FA81F14909A1425BD14D
:103EB00081693940C91BB1FA81F14909A14253D145
:103EC00081693940C91BB1FA81F14909A142DFD0AA
:103ED0004AE000BF80693840C01BB0FA80F040095A
:103EE000A04241D146B923E080693840C01BB0FAF6
:103EF00080F04009A04237D1FDF77AFBA0EB080122
:103F00002868B142F0D981693940C91BB1FA81F101
:103F10004909A142E8D116E080693840C01BB0FAD7
:103F200080F04009A0424FF0000018BFBDE8F081CA
:103F3000FDF75EFB286881693940C91BB1FA81F140
:103F40004909A142E8D100202021286385F83D10CD
:103F500085F83E00296C41F02001296485F83C0079
:103F60000120BDE8F08100BF0020BDE8F081000025
:103F7000F0B581B0044600681D4643698FB203EA7C
:103F80000701B94202D1002001B0F0BD41691646D7
:103F900001323FD049053FD4CEB100BFFDF728FB29
:103FA000411B2068B14203D941693940B94215D15A
:103FB00041693940B942E6D041694905EED52BE067
:103FC00041693940B942DED04169490524D4FDF741
:103FD0000FFB206841693940B942F1D0202023E02D
:103FE00041693940B942CED04169490514D441698B
:103FF0003940B942C7D0416949050DD441693940BA
:10400000B942C0D04169490506D441693940B94235
:10401000B9D041694905E3D5016841F400710160F7
:104020006FF480614161042000212022216384F823
:104030003D2084F83E10226C1043206484F83C102C
:10404000012001B0F0BD000070B50368044653F8CC
:10405000140F000611D40E46481C29D086BB00BFA1
:104060001868400527D4FDF7C3FA236853F8140FE6
:10407000000637D518680006F2D5002070BD00BFD5
:1040800018680006F9D41868400514D418680006AA
:10409000F3D4186840050ED418680006EDD41868EB
:1040A000400508D4186800064FF0000048BF70BDF6
:1040B00018684005E4D56FF480601860042012E0B1
:1040C000154603E053F8140F0006D6D418684005CF
:1040D000F1D4FDF78DFA401B2368B042F2D958693C
:1040E0000006EFD4202000212022216384F83D2007
:1040F00084F83E10226C10432064012084F83C10A8
:1041000070BD000080B582B00020019043F6300001
:10411000C4F202000168002241F40011016000684D
:10412000002100F40010019001980B20FDF7AEFC77
:104130000B20FDF799FC0C2000210022FDF7A6FCC6
:104140000C20FDF791FC0D2000210022FDF79EFCC4
:104150000D20FDF789FC0F2000210022FDF796FCC1
:104160000F20FDF781FC2F2000210022FDF78EFC9F
:104170002F2002B0BDE88040FDF776BC2DE9F0436A
:1041800087B0002743F6300006970197C4F202007B
:10419000016840F6004441F0800101600168C4F20A
:1041A000020401F08001019101990197016804F571
:1041B000806641F0010101600168002201F0010107
:1041C00001910199019701684FF41A4541F01001DE
:1041D0000160016801F010010191019901970168E6
:1041E00041F002010160016801F0020101910199B1
:1041F0000197016841F008010160016801F00801C0
:10420000019101990197016841F004010160006882
:104210004FF41A4100F00400019001983046FDF778
:10422000E1F92046022100224FF00208FDF7DAF9F9
:10423000029502AD4FF0010930462946CDE90397BA
:104240000597FDF7F7F84FF4007002901220CDE9C2
:1042500003070320059004200690A4F580602946FA
:10426000FDF7E8F84FF48070CDE90208A4F540604E
:104270002946CDE904770697FDF7DCF82046294664
:10428000CDE90289CDE90477FDF7D4F807B0BDE8A0
:10429000F083000080B540F2245045F20041C2F2A4
:1042A0000000C4F2000100234FF4804C4CF2503265
:1042B00080E80E00C0E9033CC0E90533C0E90733DC
:1042C000FDF79CF9002808BF80BDBDE88040FCF7E1
:1042D0005BBE000080B540F2785045F60001C2F2A6
:1042E0000000C4F2000148F2A06200234FF4804CA9
:1042F000C0F2010280E80E00C0E9033CC0E90533CA
:10430000C0E90733FDF77AF9002808BF80BDBDE892
:104310008040FCF739BE0000B0B598B0002540F2EF
:10432000CC50C4F201050021C2F20000A72244F6DD
:104330001F631191CDE90F11CDE90D11CDE90B11DD
:10434000CDE90911CDE90711CDE90511CDE9031139
:10435000CDE90111C0E90052C0E90213C0E904111E
:104360008161FEF7EFFB002818BFFCF70DFE40F25D
:10437000CC50C2F2000010A9FDF742FF002818BF80
:10438000FCF702FE602009900020CDE90A00CDE98B
:104390000C00CDE90E0040F2CC50C2F2000009A999
:1043A0000822FEF7BDFA002818BFFCF7EDFD40F229
:1043B000CC50C2F2000009A90C22FEF7B1FA002885
:1043C00018BFFCF7E1FD40F2CC5400204FF400513F
:1043D000C2F200040590CDE90300CDE90100069189
:1043E000089001A92046FDF7E3FE002818BFFCF75E
:1043F000CBFD206840F60001C4F20001884217D0CE
:10440000A84233D10020139043F63000C4F20200DA
:1044100001684FF4C04241F01001016000680121C1
:1044200000F010001390139805F5883014E000BFD9
:104430000020139043F63000C4F2020001684FF4EC
:10444000404241F0080101600068022100F00800CC
:104450001390139805F586301392022214920022CD
:10446000179113A9CDE91522FCF7E4FF18B0B0BDF0
:1044700080B586B040F214600021C2F2000040F224
:10448000E73C0591CDE90311CDE900114FF08042E1
:104490005323C0E9021C01618021C0E9002381612E
:1044A000FDF70CFF002818BFFCF76EFD4FF480509D
:1044B000029040F21460C2F2000002A9FDF7A4FFCE
:1044C000002818BFFCF760FD40F21460C2F2000043
:1044D0006946FDF795FE002818BFFCF755FD06B0AC
:1044E00080BD000080B58CB040F25C6040F20042BC
:1044F0000021C2F20000C4F20002C0E90021032240
:104500004FF6FF73CDE903210122CDE90011C0E987
:10451000021301618161CDE90521CDE90711CDE9E2
:1045200009210B9103A9FEF73FF8002818BFFCF7FB
:104530002BFD40F25C60C2F200006946FDF760FEB0
:10454000002818BFFCF720FD0CB080BDB0B590B0BE
:1045500040F6000540F2A460C4F200050021C2F25A
:104560000000072240F21A43CDE90811CDE90611F7
:10457000CDE90411C0E90052C0E902130161816173
:10458000FEF7E0FA002818BFFCF7FEFC40F2A4603A
:10459000C2F2000008A9FDF733FE002818BFFCF79F
:1045A000F3FC602001900020CDE90200059040F26C
:1045B000A460C2F2000001A90822FEF7B1F90028A8
:1045C00018BFFCF7E1FC40F2A464C2F2000401A9A8
:1045D00020460C22FEF7A4F9002818BFFCF7D4FCF3
:1045E0002068A8421AD00021C4F20101884233D1C8
:1045F00000200B9043F63000C4F2020001684FF433
:10460000C04241F0100101600068012100F010007B
:104610000B900B9805F5023014E000BF00200B90C2
:1046200043F63000C4F2020001684FF4404241F00A
:10463000080101600068022100F008000B900B984F
:1046400005F501300B9202220C9200220F910BA96A
:10465000CDE90D22FCF7EEFE10B0B0BD80B58CB0F8
:1046600040F2EC6040F600420021C2F20000C4F2C9
:104670000002C0E9002103224FF0FF33CDE90321FE
:104680000122CDE90011C0E9021301618161CDE988
:104690000521CDE90711CDE909210B9103A9FDF70A
:1046A00083FF002818BFFCF76FFC40F2EC60C2F2F9
:1046B00000006946FDF7A4FD002818BFFCF764FC64
:1046C0000CB080BD80B540F60C0044F60041C2F24B
:1046D0000000C4F2000100234FF00C0C4FF4E13253
:1046E00080E80E00C0E90333C0E905C3C361FEF7EB
:1046F00085FF002808BF80BDBDE88040FCF744BCB2
:1047000080B540F6540045F20001C2F20000C4F248
:10471000000100234FF00C0C4FF4E13280E80E0052
:10472000C0E90333C0E905C3C361FEF767FF002892
:1047300008BF80BDBDE88040FCF726BC80B540F2D4
:10474000347041F20001C2F20000C4F20101002302
:104750004FF00C0C4FF4E13280E80E00C0E9033357
:10476000C0E905C3C361FEF749FF002808BF80BD4B
:10477000BDE88040FCF708BC80B540F27C7044F294
:104780000041C2F20000C4F2000100234FF00C0C03
:104790004FF4E13280E80E00C0E90333C0E905C3FD
:1047A000C361FEF72BFF002808BF80BDBDE8804035
:1047B000FCF7EABB80B540F2C47044F60001C2F2D7
:1047C0000000C4F2000100234FF00C0C4FF4E13262
:1047D00080E80E00C0E90333C0E905C3C361FEF7FA
:1047E0000DFF002808BF80BDBDE88040FCF7CCBBB2
:1047F00080B540F69C0041F20041C2F20000C4F2D4
:10480000010100234FF00C0C4FF4E13280E80E0060
:10481000C0E90333C0E905C3C361FEF7EFFE00281A
:1048200008BF80BDBDE88040FCF7AEBBFEE70000DE
:1048300080B501F091FC00F06BFA9FED0B1AB0EE21
:10484000040AF0EE0C0A01F057FD9FED080AF3EEA2
:10485000040AB3EE0E1A01F057FD40F26810C2F2DE
:1048600000000021016080BD000000009A99993E7F
:104870002DE9F04381B00D4640F21A414FF6E6397A
:104880008842B8BF0146CFF6FF794945D8BF4946AF
:1048900008B241F2000881EAE032C4F202080129BC
:1048A000A2EBE03408DB40464FF400710122FCF734
:1048B00099FE00260EE000BF8FB23E4640464FF400
:1048C00000710022002F18BF0126FCF78BFE002F7D
:1048D00008BF3C4640464FF400613246FCF782FE7A
:1048E00040F2A466C2F200063068A1B2C16340F291
:1048F0001A408542B8BF28464845D8BF484601B24D
:1049000080EAE1320128A2EBE13407DB40464FF4B4
:1049100080510122FCF766FE00250DE087B23D467E
:1049200040464FF480510022002F18BF0125FCF7AC
:1049300059FE002F08BF3C4640464FF400412A462E
:10494000FCF750FE3068A1B2016401B0BDE8F0830D
:1049500010B540F2A464C2F2000420460821FEF71C
:1049600051F920460C21BDE81040FEF74BB900007C
:10497000FEE700002DE9F04F85B040F224540025F9
:104980004FF400760127C2F200044FF480780DF155
:1049900013094FF0000A00BF0AF1B0008DF81000B3
:1049A00004A8CDE9000720467821002201230296C1
:1049B000FCF7D6FE0DF11100CDE900072046782165
:1049C000002201238DF811500296FCF7C9FE102039
:1049D0008DF812000DF11200CDE900072046782174
:1049E000002201230296FCF7BBFE4FF0000B00BF34
:1049F00020467821402201238DF81350CDE90097FD
:104A0000CDF80880FCF7ACFE0BF101004FFA80FBFB
:104A1000BBF1FF3FECDCBAF1070F0AF1010ABBD38F
:104A200005B0BDE8F08F00002DE9F04385B04FF4EC
:104A30009670FCF7EBFC40F21807C2F200073878DA
:104A400040F22454C2F200048DF8100004AD204658
:104A50007821002201234FF4007901268DE86002BD
:104A60004FF00008FCF77CFE787878218DF8100074
:104A7000204600220123CDE90056CDF80890FCF72E
:104A80006FFEB87878218DF81000204600220123AF
:104A9000CDE90056CDF80890FCF762FEF878782151
:104AA0008DF81000204600220123CDE90056CDF8F4
:104AB0000890FCF755FE387978218DF810002046D3
:104AC00000220123CDE90056CDF80890FCF748FEFE
:104AD000787978218DF81000204600220123CDE955
:104AE0000056CDF80890FCF73BFEB87978218DF898
:104AF0001000204600220123CDE90056CDF8089091
:104B0000FCF72EFEF87978218DF81000204600225F
:104B10000123CDE90056CDF80890FCF721FE387A44
:104B200078218DF81000204600220123CDE900569F
:104B3000CDF80890FCF714FE787A78218DF81000F3
:104B4000204600220123CDE90056CDF80890FCF75D
:104B500007FEB87A78218DF8100020460022012344
:104B6000CDE90056CDF80890FCF7FAFDF87A7821E7
:104B70008DF81000204600220123CDE90056CDF823
:104B80000890FCF7EDFD387B78218DF81000204669
:104B900000220123CDE90056CDF80890FCF7E0FD96
:104BA000787B78218DF81000204600220123CDE982
:104BB0000056CDF80890FCF7D3FDB87B78218DF82E
:104BC0001000204600220123CDE90056CDF80890C0
:104BD000FCF7C6FDF87B78218DF8100020460022F6
:104BE0000123CDE90056CDF80890FCF7B9FD387CDB
:104BF00078218DF81000204600220123CDE90056CF
:104C0000CDF80890FCF7ACFD787C78218DF8100089
:104C1000204600220123CDE90056CDF80890FCF78C
:104C20009FFDB87C78218DF81000204600220123DA
:104C3000CDE90056CDF80890FCF792FDF87C78217C
:104C40008DF81000204600220123CDE90056CDF852
:104C50000890FCF785FD387D78218DF810002046FE
:104C600000220123CDE90056CDF80890FCF778FD2D
:104C7000787D78218DF81000204600220123CDE9AF
:104C80000056CDF80890FCF76BFDB87D78218DF8C3
:104C90001000204600220123CDE90056CDF80890EF
:104CA000FCF75EFDFFF766FEB0208DF811000DF1F8
:104CB0001100CDE900062046782100220123CDF81D
:104CC0000890FCF74DFD10208DF812000DF1120038
:104CD000CDE900062046782100220123CDF8089076
:104CE000FCF73EFD0DF11300CDE9000620467821CA
:104CF000002201238DF81380CDF80890FCF730FDD9
:104D000005B0BDE8F0830000704700007047000068
:104D1000F0B581B02DED0A8B40F2CC54C2F2000404
:104D20002046FDF70FFF20460821FDF76BFF2046C8
:104D30000C21FDF767FF40F210159FED659A9FED7E
:104D400065AAC2F20005B6EE008AB2EE04BABAEE67
:104D500004CA05F11000B0EE480AF0EE490AB0EEC0
:104D60004A1AF0EE4B1AB0EE4C2A01F071FA00200C
:104D700040F6E404C4F23430C2F200040026C5E96F
:104D80000F0014272046B0EE480AF0EE490AB0EEB4
:104D90004A1AF0EE4B1AB0EE4C2A6E6485F8486061
:104DA000EF6401F055FA0020C4F2B420C4E90B000E
:104DB000666384F83860E763C5E900662E72FCF725
:104DC00017FC95ED0F2A9FED440AE86030EE421A79
:104DD000B4EE401AF1EE10FA02DD9FED423A08E01F
:104DE0009FED3E3AB4EE431AF1EE10FA03DA9FED6E
:104DF0003C3A31EE031A9FED3A3A32EE014A9FED0A
:104E00003A1AB4EE434AF1EE10FAC8BFB0EE434A84
:104E1000B5EE404AB0EE415AF1EE10FAC8BFB0EE1E
:104E2000445A35EE422AB4EE402A14200121F1EE14
:104E300010FA85ED105AC5E9130105DD9FED293AF9
:104E400032EE032A09E000BF9FED244AB4EE442A63
:104E5000F1EE10FAB8BF32EE032A94ED0B3A9FED53
:104E6000234A85ED152A34EE432AB4EE442A012064
:104E7000F1EE10FA85F8480004DD9FED184A32EE95
:104E8000042A08E09FED1A4AB4EE442AF1EE10FA23
:104E9000B8BF32EE002A33EE023AB4EE403AF1EEF9
:104EA00010FAC8BFB0EE403AB5EE403A1420F1EE29
:104EB00010FAC8BFB0EE431A84ED0C1AC4E90F0112
:104EC00084ED112A84F83810BDEC0A8B01B0F0BDD6
:104ED0000AD7233CCDCCCC3D00003443000034C382
:104EE0000000B4430000B4C3000000000000B4425E
:104EF0000000B4C210B52DED088B6EA002F030F9A1
:104F000047F20420C0F6000002F02AF940F6E4045B
:104F1000C2F2000494ED0B0AB3EE0E1A9FED6C8AF8
:104F200031EE401AB4EE481AF1EE10FA02DD9FEDB0
:104F30006B2A08E09FED672AB4EE421AF1EE10FAF0
:104F400003DA9FED652A31EE021A9FED66BA9FEDF6
:104F5000629A81EE0B2A30EE010A9FED61AAB4EE4F
:104F6000490AF1EE10FAC8BFB0EE490AB5EE400AA0
:104F7000B0EE4A1A4FF47A703221F1EE10FAC8BF3F
:104F8000B0EE401AC4E90F01012084F8380040F265
:104F9000DC5084ED0C1A84ED112AFCF737FA47F245
:104FA0003020C0F6000002F0DBF894ED0B0A38EE7A
:104FB000401AB4EE481AF1EE10FA05DD9FED472ACB
:104FC00031EE021A09E000BF9FED422AB4EE421A08
:104FD000F1EE10FAB8BF31EE091A81EE0B2A30EE6D
:104FE000010AB4EE490AF1EE10FAC8BFB0EE490A60
:104FF000B5EE400AB0EE4A1A4FF47A703221F1EE63
:1050000010FAC8BFB0EE401AC4E90F01012084F8BD
:10501000380040F2DC5084ED0C1A84ED112AFCF7C4
:10502000F5F947F21920C0F6000002F099F894ED66
:105030000B0A9FED2D1A31EE401AB4EE481AF1EE2C
:1050400010FA05DD9FED252A31EE021A09E000BFB6
:105050009FED202AB4EE421AF1EE10FAB8BF31EEFD
:10506000091A81EE0B2A30EE010AB4EE490AF1EE7C
:1050700010FAC8BFB0EE490AB5EE400A4FF47A7094
:105080003221F1EE10FAC8BFB0EE40AAC4E90F0118
:10509000012084F8380040F2DC5084ED0CAA84ED45
:1050A000112AFCF7B3F911A0BDEC088BBDE8104044
:1050B00002F056B8E5BC80E5A78B333630E5BAA6DA
:1050C000E888B5E69CBAE6B58BE8AF95000000002D
:1050D0000000B4420000B4C200003443000034C3F6
:1050E000000000000000484200000243333630E573
:1050F000BAA6E888B5E69CBAE6B58BE8AF95E5AE0A
:105100008CE688900000000070B52DED0E8B40F20B
:105110001014C2F2000494F8480040F2CC5C00285D
:10512000C2F2000C42D094ED0F0A94ED151A226DD4
:1051300031EE000A013A84ED0F0A226506D194EDA2
:10514000100A002084ED0F0A84F848009FEDCD2A54
:10515000B5EE400A9FEDCA1AF1EE10FAB8BFB0EEF4
:10516000410AB4EE420AF1EE10FAC8BFB0EE420AAC
:1051700080EE020A9FEDC41A626C20EE010A9FEDD8
:10518000C31A30EE010ABCEEC00A10EE103A1A44FF
:10519000B2F5FA7F98BF4FF4FA72DCF8005040F68F
:1051A000C4139A4228BF1A46EA6300E0002040F682
:1051B000E406C2F2000696F83820002A4AD096ED9E
:1051C0000B0A96ED111A326C31EE000A013A86EDA7
:1051D0000B0A326418BF012206D196ED0C0A002397
:1051E00086ED0B0A86F838309FEDA92AB5EE400A05
:1051F0009FEDA31AF1EE10FAB8BFB0EE410AB4EE7B
:10520000420AF1EE10FAC8BFB0EE420A80EE020A7E
:105210009FED9D1A736B20EE010A9FED9C1A30EEF4
:10522000010ABCEEC00A10EE101A1944B1F5FA7F5B
:1052300098BF4FF4FA71DCF8005040F6C41399425D
:1052400028BF19462964002808BF002A07D0BDECF2
:105250000E8B70BD0022002808BF002AF7D194ED04
:10526000000AB0EE008AB0EEC01AB4EE481AF1EEB1
:1052700010FA0DDDF1EE400A9FED810A04F11000F5
:1052800000F08CFF9FED831A20EE01EA06E000BFDC
:1052900004F1100001F02AF89FED79EA94ED010A7B
:1052A000B0EEC01AB4EE481AF1EE10FA0EDDF1EECF
:1052B000400A40F6E4009FED720AC2F2000000F0DE
:1052C0006DFF9FED741A20EE01BA07E040F6E4008E
:1052D000C2F2000001F00AF89FED69BA94ED0F0ADE
:1052E0009FED688A3EEE000AF0EE480A01F03AFDB2
:1052F00096ED0B1A9FED66AA3BEE01CAB5EE40CAC9
:105300009FED65DA9FED5E9AF1EE10FAB8BFB0EE50
:1053100049CAB4EE4ACAB0EECE1AF1EE10FAB4EEB3
:105320004D1AC8BFB0EE4ACAF1EE10FA64DDB5EE10
:10533000400AF0EE480A30EE081AF1EE10FAB8BF53
:10534000B0EE410A01F00EFDB5EE400A94ED0F1AE1
:1053500030EE082AF1EE10FAB8BFB0EE420A30EE95
:10536000410AB4EE4A0AF1EE10FA05DD9FED4C2A2F
:1053700030EE020A09E000BF9FED482AB4EE420A6F
:10538000F1EE10FAB8BF30EE080A31EE000AB4EEC2
:10539000480AF1EE10FAC8BFB0EE480AB5EE400A6E
:1053A000B0EE492AF1EE10FAC8BFB0EE402A32EE54
:1053B000410AB4EE4A0A28200221F1EE10FA84EDE7
:1053C000102AC4E9130105DD9FED351A30EE010AFC
:1053D00009E000BF9FED311AB4EE410AF1EE10FA78
:1053E000B8BF30EE080AB6EE001A20EE010A01201E
:1053F00084ED150A84F84800B0EECB0AB4EE4D0AED
:10540000F1EE10FA7FF723AF96ED0B1A9FED252AE8
:105410003CEE410AB4EE420AF1EE10FA04DD9FEDD3
:105420001F2A30EE020A08E09FED1F2AB4EE420A5E
:10543000F1EE10FAB8BF30EE0A0A31EE001AB4EEFF
:105440004A1AF1EE10FAC8BFB0EE4A1AB5EE401A89
:10545000F1EE10FAC8BFB0EE419A28200221B6EE54
:10546000001AC6E90F0120EE010A012086ED0C9A10
:1054700086ED110A86F83800BDEC0E8B70BD00BFBA
:10548000000000000000B4430000FA440000FA43AA
:1054900000003443CDCC4C3DCDCCCC3D000034C3DA
:1054A0000000B4C30000B4420000B4C2FCF770BAFC
:1054B000B0B592B0002443F64000CDE90A44CDE9EE
:1054C00008440594CDE90344CDE901440094C4F2B5
:1054D00002000168022541F080510160006800F07F
:1054E00080500090009847F200000094C4F2000041
:1054F000016841F4804101600068A82100F4804007
:1055000000900098032006904FF48030079001200F
:10551000099010200A904FF480000D9004200E9006
:10552000119006A80C95CDE90F15FCF74FFC18B1AA
:1055300072B600BFFEE700BF0F20CDE901054FF4B2
:10554000A05004904FF48050059001A805210394C9
:10555000FCF7D8FA10B172B6FEE700BF00200021B8
:105560000022FCF7DFFB12B0B0BD00004EF6885001
:10557000CEF20000016841F4700101607047000044
:1055800040F21460C2F20000FDF720B980B500F0CF
:1055900093FB40F24400C2F2000090ED000A40F29A
:1055A0004800C2F20000D0ED000ABDE88040FBF7E1
:1055B000ADBC000080B540F60040C4F202000221FC
:1055C000FCF708F800F0F4FF00F0AEFE01F01EF961
:1055D000BDE88040FFF798BDB0B540F6FF3E0568D6
:1055E000C4F2000E40F2004C7045C4F2010C27DCFE
:1055F000B0F1804F31D040F20043C4F20003984232
:105600002BD040F60003C4F20003984225D041F6A7
:10561000FF73C4F2000398422ADC70453CDCB0F111
:10562000804F5FD040F20043C4F20003984259D04B
:1056300040F60003C4F20003984253D057E000BF85
:1056400040F60043C4F20003984206D0604504D0FF
:105650000023C4F201039842D9D14B6825F07002AF
:1056600043EA020541F6FF73C4F200039842D4DD19
:1056700043F6FF73C4F20103984221DC42F20003B7
:10568000C4F2000398422DD00023C4F201039842D3
:1056900028D0604526D02AE040F60043C4F200033B
:1056A00098421FD041F60003C4F20003984219D07B
:1056B00041F60043C4F20003984213D017E000BF44
:1056C00044F20003C4F2010398420BD044F60003F5
:1056D000C4F20103984205D044F20043C4F201032E
:1056E000984204D1CB6825F4407243EA02050A6867
:1056F0008C684B69C46240F480648262644504BF74
:1057000009690163026825F0800142F0040219432F
:105710000260012242610160B0BD000040F60C0051
:10572000C2F20000FDF7A6BC40F65400C2F2000031
:10573000FDF7A0BC806B0021C185FDF799BC00007E
:10574000806B01684A6990F84130212B2DD112F00D
:1057500080022AD00021C184016851E8031F026839
:1057600021F0C00142E80313DBB1016851E8031FD7
:10577000026821F0C00142E8031393B1016851E8C7
:10578000031F026821F0C00142E803134BB1016816
:1057900051E8031F026821F0C00142E80313002B07
:1057A000DAD1202180F841100168496990F842203F
:1057B000222A40F07D8011F0400179D00021C1857E
:1057C000016851E8031F026821F4907142E8031355
:1057D000BBB3016851E8031F026821F4907142E8ED
:1057E000031373B3016851E8031F026821F4907139
:1057F00042E803132BB3016851E8031F026821F448
:10580000907142E80313002BDAD11AE0016851E8E5
:10581000051F026821F0010142E80513DBB10168B0
:1058200051E8051F026821F0010142E8051393B118
:10583000016851E8051F026821F0010142E80513E3
:105840004BB1016851E8051F026821F0010142E8EF
:105850000513002BDAD1016B012924D1016851E82D
:10586000031F026821F0100142E80313DBB1016855
:1058700051E8031F026821F0100142E8031393B1BD
:10588000016851E8031F026821F0100142E8031388
:105890004BB1016851E8031F026821F0100142E892
:1058A0000313002BDAD1202180F84210002101637C
:1058B000416C41F010014164FDF7DABB0168806B77
:1058C0000968C90500F19F800021C185016851E880
:1058D000031F026821F4807142E80313E3B10168F9
:1058E00051E8031F026821F4807142E803139BB161
:1058F000016851E8031F026821F4807142E8031334
:1059000053B1016851E8031F026821F4807142E835
:105910000313002BDAD100BF016851E8051F0268AC
:1059200021F0010142E80513BBB3016851E8051FEE
:10593000026821F0010142E8051373B3016851E8E0
:10594000051F026821F0010142E805132BB301682D
:1059500051E8051F026821F0010142E80513002B00
:10596000DAD11AE0016851E8051F026821F0400110
:1059700042E80513DBB1016851E8051F026821F018
:10598000400142E8051393B1016851E8051F026820
:1059900021F0400142E805134BB1016851E8051FB1
:1059A000026821F0400142E80513002BDAD12021E2
:1059B00080F84210016B012925D100BF016851E830
:1059C000031F026821F0100142E80313DBB10168F4
:1059D00051E8031F026821F0100142E8031393B15C
:1059E000016851E8031F026821F0100142E8031327
:1059F0004BB1016851E8031F026821F0100142E831
:105A00000313002BDAD100214163016B012918BF78
:105A1000FEF736B8818DFDF797BA0000806B012143
:105A20004163016B012918BFFEF72CB8818D49082D
:105A3000FDF78ABA81B090F84210222921D18368FB
:105A40000246B3F5805F09D152F8281F52F8183C7E
:105A5000002B63D003685B680AE000BF52F8281F80
:105A600013B90369002BF5D003685B6803F07F036B
:105A70000B70116801311160C18D01390A04C185B3
:105A800002D001B0704700BF0168CA6822F020024E
:105A9000CA60CA6822F48072CA604A6922F00102B0
:105AA0004A61202180F8421000214163026B012AE3
:105AB0003CD10163016851E8031F026821F0100125
:105AC00042E80313DBB1016851E8031F026821F0CB
:105AD000100142E8031393B1016851E8031F026803
