:020000040800F2
:10000000680E00209D010008013C00089D35000895
:10001000FD3A0008750D0008ED47000800000000DB
:100020000000000000000000000000002140000867
:10003000D90D0008000000001D4000082540000800
:10004000B7010008B7010008B7010008B7010008B0
:10005000B7010008B7010008B7010008B7010008A0
:10006000B7010008B7010008B7010008B701000890
:10007000B50D0008C10D0008B7010008CD0D00083E
:10008000B7010008B7010008B7010008B701000870
:10009000B7010008B7010008B7010008B701000860
:1000A000B7010008B7010008B7010008B701000850
:1000B000F9400008B7010008B7010008B7010008BF
:1000C000B7010008B7010008B7010008B701000830
:1000D000B7010008B7010008B70100088D47000804
:1000E000B7010008B7010008B7010008B701000810
:1000F000B7010008B7010008B7010008B701000800
:10010000B7010008B7010008B7010008B7010008EF
:1001100091420008B7010008B7010008B7010008C4
:10012000B7010008B7010008B7010008B7010008CF
:10013000B7010008B7010008B7010008B7010008BF
:10014000B7010008B7010008B7010008B7010008AF
:10015000B7010008B7010008B7010008B70100089F
:10016000B7010008B7010008B7010008B70100088F
:10017000B7010008B7010008B7010008000000003F
:10018000B7010008B7010008DFF80CD000F02AFC26
:1001900000480047C14B0008680E00200648804711
:1001A00006480047FEE7FEE7FEE7FEE7FEE7FEE75C
:1001B000FEE7FEE7FEE7FEE7E540000889010008EC
:1001C0002DE9F05F0546002092469B46884606468C
:1001D000814640241BE0284641464746224600F01F
:1001E0001CFB53465A46C01A914110D3114618467B
:1001F000224600F003FB2D1A67EB01084F4622460A
:100200000120002100F0FAFA17EB00094E41201EF0
:10021000A4F10104DFDC484631462A464346BDE8E6
:10022000F09FD2B201E000F8012B491EFBD27047CB
:100230000022F6E710B513460A4604461946FFF7B2
:10024000F0FF204610BD00000FB400B58DB010A91E
:1002500009900B9000914FF0FF300A9000200C9015
:1002600005480690054807906A4609A80F9900F0CE
:10027000EBFA0DB05DF814FB650800088308000870
:100280002DE9FF4F087883B09946FF2805D0491C17
:100290002D2804D00024002008E000200BE00124D9
:1002A000F9E700EB800003EB4000491C0B78FF2BC3
:1002B000F7D104B1404200230293147819461D4639
:1002C0002D2C01D02B2C04D1521C2D2C13D000240A
:1002D0000294AA461478FF2C0FD00A25A3FB0578B8
:1002E00001FB05814FF0000C03FB0C11521CE319BC
:1002F0004AEB0101EEE70124EAE7814453EA0100F9
:1003000002D019F5C87F06DA03980021C0E9001170
:1003100007B0BDE8F08F0025AE4E2F46DFF8B8825B
:10032000184600F053FBCDE90001B9F1000002DAF4
:10033000C9F1000400E004460023A74A1AEB030BAE
:1003400042EB045A12E0E00707D02A46334638460B
:10035000414600F045F9074688462A46334610468E
:10036000194600F03DF905460E466410002CEAD10E
:10037000DDE90001B9F1000F5A46534606DA00F0F4
:10038000A1F93A46434600F09DF905E000F028F94E
:100390003A46434600F024F9029A0AB181F000413E
:1003A000039AC2E90001B3E72DE9FF4F1F468DB064
:1003B000D7E901464FF0FF382E2045464FF000099F
:1003C0000B90B9696D1C0E988847396A8246884738
:1003D0000028F6D1BAF1FF3F0AD024F4D064002EF1
:1003E00011DDBAF12B0F08D0BAF12D0F0BD102E0BD
:1003F000404611B08DE744F48064B9696D1C0E98D5
:1004000088478246761E6946600501D52D2000E0AA
:100410002B208DF8000001F1010B0DF1200809E0FF
:10042000B9696D1C0E98884782460F9844F4007491
:10043000761E0560002E02DDBAF1300FF0D00B9968
:100440008A453ED144F0800406E00F99681CA9F16A
:10045000010944F400740860B9696D1C761E0E9899
:10046000884782463028F0D02BE00B998A4505D189
:10047000200603D444F08004761E18E0504605F0B0
:10048000B7FA08B30DF11302761EAAF1300044F456
:100490000074934506D20BF8010B200607D5A9F18D
:1004A000010003E0200602D409F101008146A00505
:1004B00002D50F99681C0860B9696D1C0E988847B1
:1004C0008246002ED1DC53E0002E51DDBAF1650FDB
:1004D00002D0BAF1450F4BD1A00549D5B9696D1CC1
:1004E00024F44074761E0E9888478246002E0CDD58
:1004F0002B2804D0BAF12D0F07D144F48074B969C8
:100500006D1C0E9888478246761EE00501D52D2188
:1005100000E02B2108F8011BCDF82C8021E00DF123
:100520002901761E44F4007488450CD2AAF13000EB
:1005300010F0FF0088F8000002D10B99884509D916
:1005400008F1010806E0E00501D5244801E042F287
:100550000F708146B9696D1C0E98884782460F98C6
:100560000560002E04DD504605F042FA0028D6D181
:10057000F9690E988847FF208BF8000088F8000082
:100580000020069007904B466A4608A906A8FFF788
:1005900077FEA00502D46FF001002AE714F0240FC3
:1005A0000AD0E00714D1DDE906123868031D3B606C
:1005B0000068C0E900120BE0DDE9060100F002F975
:1005C0000146E00704D13868021D3A600068016006
:1005D00028460EE7000014400000F03FF1D8FFFF6E
:1005E0002DE9FE4F81EA030404F0004421F00041AC
:1005F00000944FF0000B23F0004350EA01045ED05A
:1006000052EA03045BD0C3F30A54C1F30A552C44E5
:10061000A4F2F3340194A0FB0254C1F3130141F49A
:100620008011C3F3130343F4801301FB024400FB66
:10063000034E840A970A44EA815447EA8357A4FB8D
:10064000076802958D0A05FB07854FEA932C04FB8A
:100650000C542705029D4FEA065847EA1637B5EBBA
:1006600008056EEB070C870E920E47EA811742EAE7
:100670008312A7FB0201B6EB0B0164EB00042B0D08
:1006800043EA0C335E1844EB1C50DA465146E7FB54
:100690000201C5F313044FEA0B3343EA14534FEA44
:1006A0000432019C43EA0603A4F10C040294009C6A
:1006B000CDE900B400F03CF903B0BDE8F08F0020B4
:1006C0000146F9E72DE9F04D81EA030404F0004BFF
:1006D00021F0004514464FF0000A23F0004150EA93
:1006E000050220D054EA01021DD0C5F30A57024684
:1006F000C5F31303C1F31300C1F30A5640F4801588
:1007000043F48013A7EB0608101BD64608F2FD3809
:1007100073EB050002D308F1010801E092185B4178
:10072000B8F1000F03DA00200146BDE8F08D00208B
:100730004FF48011064684460EE0171B73EB050745
:1007400005D3121B63EB050306434CEA010C490871
:100750004FEA300092185B4150EA0107EDD152EAAE
:10076000030012D082EA040083EA0501084305D0A1
:10077000101BAB4106D20122002306E000224FF0FD
:10078000004302E06FF0010253101AEB06004CEB3D
:10079000085110EB0A0041EB0B01BDE8F04D00F0F1
:1007A000B8B80EB5C10F80EAE0700844CA0700214E
:1007B00040F233438DE80E000A460B4600F0B8F8CD
:1007C00003B000BD01F0004330B421F0004150EA15
:1007D000010206D00A0DA2F56072C1F31301002ACE
:1007E00002DC30BC00207047440F44EAC104C10061
:1007F000E01830BC00EBC25000F054B8202A04DBF3
:10080000203A00FA02F1002070479140C2F1200323
:1008100020FA03F3194390407047202A04DB203A62
:1008200021FA02F00021704721FA02F3D040C2F110
:1008300020029140084319467047000002681144A5
:100840001378016018467047D1600449516104492A
:10085000116200211161114600F0E2B83D08000864
:10086000150A0008426842B1016811F8013B23B142
:10087000521EC0E90012184670470121C160881E4F
:10088000704742685AB1C368016843B983688B42B4
:1008900005D0491E521CC0E90012002070474FF0DD
:1008A000FF3070470029A8BF7047401C490008BFAF
:1008B00020F00100704710B4B0FA80FC00FA0CF090
:1008C00050EA010404BF10BC704749B1CCF12004C8
:1008D00021FA04F411FA0CF118BF01212143084355
:1008E000A3EB0C01CB1D4FEA00614FEA102042BF81
:1008F000002010BC704700EBC35010440029A4BF77
:1009000010BC7047401C490008BF20F0010010BC1B
:10091000704710B5141E73F1000408DA401C41F151
:10092000000192185B411A4301D120F0010010BD73
:100930002DE9F04D92469B4611B1B1FA81F202E0E9
:10094000B0FA80F220329046FFF758FF04460F4677
:1009500040EA0A0041EA0B0153465A46084313D0C5
:10096000114653EA010019D0C8F140025046FFF782
:1009700054FF05460E46504659464246FFF73EFF95
:10098000084305D0012004E020463946BDE8F08D3B
:100990000020054346EAE0762C4337430A98630576
:1009A000E40AA0EB08000022FD0A44EA47540A309A
:1009B00002D500200146E9E7010510196941DDE98A
:1009C000084500196941BDE8F04DA2E70EB540F2B7
:1009D000334202920022CDE900221346FFF7A8FF1E
:1009E00003B000BD1CB509480090094801900546B8
:1009F000009C06E0E06840F0010394E80700984797
:100A00001034AC42F6D3FFF7C3FB0000805A000855
:100A1000A05A0008C0B24FF4F05100F097B900009E
:100A20002DE9F34F8BB04FF0000801F10C000C469C
:100A30004FF0010B46460DF1080A01906269012151
:100A400001989047051E2DD0252D2CD0216A88476E
:100A5000C0B16269012101989047216A8847002846
:100A6000F7D1411E62690198904700E0761CA169A8
:100A70000B988847216A88470028F7D1E1690B98CD
:100A80008847DBE7A1690B9888470746A84201D150
:100A9000761CD3E7E1690B9888477F1C02D1B8F137
:100AA000000F6FD046E1002762693D463946019844
:100AB00090472A2804D162690121019890470125B5
:100AC000DFF884926269012101989047A0F130011A
:100AD0000A290AD24F45E5DC07EB870100EB410705
:100AE000303FDFD445F01005ECE7E90601D46FF0A4
:100AF00000476C280AD04C2814D0682815D06A28E2
:100B00000DD074281CD07A281AD01DE0626901210A
:100B1000019890476C2802D045F0040514E045F098
:100B200002050DE045F020050AE062690121019807
:100B30009047682802D045F0080505E045F40065B7
:100B40006269012101989047C4E9015765283DD0A9
:100B500019DC58287AD00CDC452837D004DC25284D
:100B600026D0412831D131E046282FD047282CD13A
:100B70002CE05B2877D0612828D063287CD06428BB
:100B800023D15AE0D0E06F2848D008DC66281DD079
:100B900067281BD0692821D06E2816D127E070283D
:100BA00045D0732868D0752847D078280DD14DE0FE
:100BB000A1690B988847054625283FF469AFE1698C
:100BC0000B9888476D1C3FF46AAFB3E023466A4632
:100BD0006FF001000B99FFF7E7FB9EE045F0400046
:100BE0006060A80723464FF0000236D43EE0E807D5
:100BF0007FF447AF2068011D21600068290501D5F9
:100C000006701BE7290701D5068017E7A90703D55A
:100C1000F117C0E9006111E706600FE745F04000F9
:100C20006060A80723464FF0080216D41EE040F685
:100C30000E0125EA0100606016E045F040006060AA
:100C4000A80723464FF00A0207D40FE045F0400002
:100C50006060A80708D5234610226FF001000B99A9
:100C6000AFF3008059E007E0234610226FF0010047
:100C70000B99AFF3008050E04FF000094F464B4610
:100C8000632802D05B2806D040E0E80601D40120AA
:100C9000A06001273AE062690121019890475E282F
:100CA00005D14FF0010962694946019890472169D1
:100CB00039B900210A46534643F82120491C082926
:100CC000FADBB0B3216969B9C11700EBD1625311E6
:100CD0000AEB830122F01F02821A01200B68904068
:100CE00003430B6062690121019890475D28E8D1B8
:100CF000B9F1000F09D00020514651F82020D2430D
:100D000041F82020401C0828F7DB02AB2246009760
:100D10006FF001000B99AFF3008000280CDA401C43
:100D200008D1BBF1000F05D04FF0FF300DB0BDE88A
:100D3000F08FFFE74046F9E7E90701D108F1010824
:100D400006444FF0000B79E6CCCCCC0C7F2801D9BF
:100D5000002208E0064A02EB5002C007127800D1D8
:100D6000120902F00F020120904008407047000075
:100D7000205A0008FEE700009FED0B1A9FED0C2A99
:100D800020EE010A9FED091A20EE822A80EE010A68
:100D900082EE011A40F22000C2F2000080ED050A46
:100DA00080ED061A704700BFE15CA341000070426D
:100DB000E15CA3C140F2B060C2F2000000F06CB888
:100DC00040F2F050C2F2000000F066B840F250600D
:100DD000C2F2000000F060B87047000072B600BFB9
:100DE000FEE7000070B5866D044600F017FB94F82E
:100DF0003510022928D105462068216C026822F0AE
:100E000016020260426922F08002426109B9A16CB7
:100E100019B1016821F008010160016821F00101A8
:100E2000016000BF20680068C00715D000F0F6FA26
:100E3000401B0628F6D320206065032084F8350087
:100E4000002184F8341070BD8020606501200021ED
:100E500084F8341070BD00BFE06D3F2101FA00F04E
:100E6000B060012084F835000020002184F834109F
:100E700070BD000090F83510022909D1052180F8D5
:100E800035100068016821F0010101600020704701
:100E90008021416501207047F0B581B004460020F3
:100EA000009040F21800C2F200000268D4E9166017
:100EB00048F2B51337680821C1F64E3381403942F4
:100EC000A2FB03250CD0226813685B0708D51368C2
:100ED00023F004031360B160616D41F001016165AD
:100EE00001218140394208D022685269120604D596
:100EF000B160616D41F002016165042181403942B8
:100F000008D022681268920704D5B160616D41F083
:100F10000401616510218140394217D020680268C0
:100F2000120713D5B16002680168520308D4C905DD
:100F300008D4016821F008010160216C21B905E0A5
:100F400008033FD4216C09B120468847E16D202079
:100F500000FA01F23A4241D020680368DB063DD531
:100F6000B26094F835300268052B1BD122F01602CE
:100F70000260426922F080024261226C0AB9A26CCE
:100F80001AB1026822F0080202603F208840B06077
:100F9000012084F83500216D0020002984F83400F8
:100FA00052D157E00168520310D4C90512D4016828
:100FB00021F010010160012084F83500002084F840
:100FC000340007E0A16C0029BED1BFE7080301D4BB
:100FD000616C00E0E16B09B120468847606DC8B3E1
:100FE000606DC0072ED0052084F835002068A90A5E
:100FF000026822F001020260009A01328A420092E5
:101000001AD80268D20717D0009A01328A42009299
:1010100012D80268D2070FD0009A01328A42009299
:101020000AD80268D20707D0009A01328A42009299
:1010300002D80268D207DFD1012084F835000020F1
:1010400084F83400E16C29B1204601B0BDE8F040DD
:10105000084700BF01B0F0BD2DE9F041044600F0A3
:10106000DDF9ECB10546022084F835000020216846
:1010700084F83400086820F00100086021680868DE
:10108000C00711D000F0CAF9401B0528F6D9032586
:1010900020230320636584F83550BDE8F08100BF4C
:1010A0000120BDE8F08100BF086848F23F02CFF29E
:1010B0001002D4E9013500EA020C04F10C0898E8AA
:1010C000C10143EA0C032B431843D4E9072E3043F4
:1010D00038431043626A40EA0E00042A40EA0803DB
:1010E0001CD1206BD4E90A2E40EA0E001843086098
:1010F0004869BEF1000F20F0030040EA020040F012
:10110000040C11D0B8F5005F36D0B8F1000F45D10E
:10111000022A46D0012A3BD032B942E00B6048692E
:1011200020F0070040EA020C01F0F8004AF6AB227A
:101130001038CAF6AA22A0FB02231A0945F6782322
:10114000C1F814C0C0F600039A5C40F2FF335F2878
:101150004FF03F0021EA030100FA02F088BF04319A
:10116000C4E916128860002301250020636584F815
:101170003550BDE8F08100BF032AD5D801254023B2
:101180000120DFE802F0030E030500BF82E700BF85
:10119000AEF1C070B0FA80F0400904E0032A04D335
:1011A000C2D1CEF300600028BED00125402301202B
:1011B000636584F83550BDE8F081000090F834C0D4
:1011C000BCF1010F04BF0220704770B54FF0010C55
:1011D00080F834C0D0F858E090F835C0BCF1010F69
:1011E00038D14FF0020C80F835C04FF0000CC0F839
:1011F00054C0D0F800C08468056CC06DDCF8006095
:10120000402C26F48026CCF80060CCF804300B4645
:1012100004BF13460A463F2101FA00F0CCF808301B
:10122000CCF80C20CEF80800DCF8000040F01600E6
:10123000CCF800002DB1DCF8000040F00800CCF83C
:101240000000DCF8000040F00100CCF800000020B5
:1012500070BD00BF002180F83410022070BD000076
:101260002DE9F04F82B000F13E4707F1FF77860588
:1012700046EA972741F60046C4F20206082243F6E2
:10128000004EB04208BF0722C4F2010E072F38BF3C
:101290003A46002600274FF00008009209E000BF00
:1012A00008F101080237B8F1100F06F1040600F04A
:1012B000A3800D68012202FA08F415EA0409EFD0B0
:1012C000D1F804B003220BF0030CACF10105BA40D5
:1012D000012D6FEA020A0FD88268CD6802EA0A027D
:1012E000BD402A4382604268A243CBF3001404FA53
:1012F00008F42243426005E0BCF1030F02D14FF035
:10130000030C1EE0C2688C6802EA0A02BC40224359
:10131000BCF1020FC26014D16FF0030202EA58025E
:101320000244D2F820C006F01C040F230D69A3402C
:101330002CEA0303A5402B431362D1F804B00BF051
:10134000030C02680CFA07F302EA0A021A431BF4C0
:10135000403F0260A4D0002243F644030192C4F24D
:1013600002031A684FF6084C42F480421A601A6869
:10137000CFF6FF7C02F480420192019A28F003022A
:10138000724452F80C3006F00C050F24AC40A34315
:10139000009C04FA05F52B4342F80C30DEF80820D7
:1013A0004B6842EA090543F60C4CDC0258BF22EABE
:1013B0000905CEF80850C4F2010CDCF800209C02AC
:1013C00042EA090558BF22EA0905CCF80050DEF8C8
:1013D00004209C0342EA090558BF22EA0905CEF819
:1013E0000450DEF80020DB0342EA090558BF22EA78
:1013F0000905CEF8005053E702B0BDE8F08F0000B9
:10140000426902EA0103914341EA03418161704765
:10141000002A08BF090481617047000040F63420AB
:10142000C2F2000000687047002804BF0120704726
:10143000F0B581B0044690F83D0028B9002084F84A
:101440003C00204600F0A2F8242084F83D002068EB
:10145000016821F001010160016841F4004101606F
:10146000016821F40041016000F032FA636848F23B
:10147000A16CC0F2010C40F60011C0F23D016345C1
:101480003CBF48F28041C0F21E01884202D20120D6
:1014900001B0F0BD4DF68361C4F21B31A0FB011217
:1014A0002168970CD1F804E04FF496762EF03F05B2
:1014B00045EA92454D60774348F638160D6AC0F20A
:1014C0004106A7FB067625F03F07634538BF960C1B
:1014D000721C3A430A62CA6948F2A0664CF6FF776A
:1014E000C0F20106B34222EA07020BD801385B00C2
:1014F000B0FBF3F001306FF31F30042898BF0420D5
:101500001BE000BFA768013857B119277B43B0FB28
:10151000F3F001306FF31F3070B100F5804007E049
:1015200003EB4303B0FBF3F001306FF31F3018B14E
:1015300000F5004001E000BF01201043C8610868C9
:10154000D4E9072320F0C0001043184308608868DE
:1015500048F2FF3204F10C0790438CCF184310433C
:10156000A6698860C86820F0FF0038433043C8602F
:10157000086840F00100086000202021206484F801
:101580003D10206384F83E0001B0F0BD016845F6CF
:101590000000C4F20000814218BF7047B0B586B0A9
:1015A000002443F630050194C4F20205296800F5D1
:1015B000D63041F002012960296801F00201019151
:1015C00001994FF4406101911221CDE902140321E8
:1015D00004910421059101A9FFF742FE00942869B6
:1015E00040F480002861286900F480000090009891
:1015F00006B0BDE8B040704740F2040040F6342128
:10160000C2F20000C2F2000100780A6810440860CB
:101610007047000080B543F60040C4F20200016844
:1016200041F400710160016841F48061016001686A
:1016300041F480710160032000F088F8032000F07D
:1016400005F800F027F8002080BD000070B540F2DA
:101650000406C2F2000640F218013278C2F200011C
:101660004FF47A730968B3FBF2F20446B1FBF2F16E
:10167000084600F0B7FB0F2C4FF0010508D838B929
:101680004FF0FF3021460022002500F033F874604F
:10169000284670BD82B0002043F640010190C4F29C
:1016A00002014A6842F480424A604A6802F4804279
:1016B0000192019A0090086840F080500860086824
:1016C00000F0805000900098052002B000F03EB875
:1016D000002848BF704700F01F01012202FA01F103
:1016E0001C2202EAD0004EF20012CEF2000281501B
:1016F0007047000010B54EF60C5CCEF2000CDCF822
:101700000030C3F3022E8EF00704042C28BF0424FB
:10171000BEF103034FF0FF3E0EFA04F438BF00237E
:10172000A14399400EFA03F39A43114300F00F02CC
:1017300000F160430901043A03F564436244002860
:1017400048BF02F10C03197010BD00004EF60C5199
:10175000CEF200010A684FF6FF031A4060F30A2236
:1017600042F0806040F0FD7008607047002804BFC0
:10177000012070472DE9F04143F60808C4F2020841
:101780000446D8F8F8030D4600F00700884207D257
:1017900088F8F853D8F8F80300F00700A84277D18A
:1017A0002068810717D5410705D5D8F8001041F406
:1017B000E051C8F80010010705D5D8F8001041F431
:1017C0006041C8F80010D8F80010A26821F0F001BC
:1017D0001143C8F80010C00740D1D8F8F80300F052
:1017E0000700A84207D988F8F853D8F8F80300F0A2
:1017F0000700A8424CD12068410707D5D8F800104F
:10180000E26821F4E0511143C8F80010000708D540
:10181000D8F80000216920F4604040EAC100C8F80F
:10182000000000F07DF8D8F8001045F66022C1F302
:101830000311C0F60002515C40F2180220FA01F1D7
:1018400040F20800C2F200000068C2F2000211601B
:10185000FFF7FCFE0020BDE8F08100BF6068811E3C
:10186000022907D258F8081C89015CBF0120BDE895
:10187000F08111E0012807D158F8081C89035CBFEA
:101880000120BDE8F08107E058F8081C890703D45F
:101890000120BDE8F08100BFD8F8001021F003015D
:1018A0000843C8F80000FFF7B9FD064641F2883743
:1018B000D8F80000616800F00C00B0EB810F8CD00C
:1018C000FFF7ACFD801BB842F2D90320BDE8F081E0
:1018D00040F2180043F60801C2F20000C4F202010F
:1018E0000068096845F67022C1F38221C0F6000243
:1018F000515CC8407047000040F2180043F60801F0
:10190000C2F20000C4F202010068096845F67022C4
:10191000C1F34231C0F60002515CC840704700007C
:1019200010B543F60404C4F20204606800F00C0130
:1019300042F200400829C0F2F40007D0042918BF81
:1019400010BD41F20020C0F27A0010BD216801F004
:101950003F02216823684902C3F3881106D4A1FB22
:1019600000010023FEF72CFC07E000BF41F200203D
:10197000C0F27A004843B0FBF2F021680222C1F3C2
:10198000014102EB4101B0FBF1F010BD70B586B032
:1019900043F63006002840F2000014460D46C4F21B
:1019A0000206C4F202004FF0000123D00191326818
:1019B00000F5006042F004023260326802F0040276
:1019C0000192019A4FF400720192022202920322C4
:1019D000CDE90312059101A9FFF742FC56F8280C46
:1019E00020F0784040EAC400284346F8280C06B0AE
:1019F00070BD00BF0191326842F00102326032686E
:101A000002F001020192019A4FF4807201920222C7
:101A100002920322CDE90312059101A9FFF720FCF0
:101A200056F8280C20F0EC602843204346F8280C98
:101A300006B070BD002804BF012070472DE9F041B9
:101A400082B00446007843F60006C007C4F20206DE
:101A50000CD0B06800F00C00042840F081803068A1
:101A6000800303D56068002800F06A812078800731
:101A70001BD5B06810F00C0F09D0B06800F00C0056
:101A8000082840F087807068400200F18380306849
:101A9000800703D5E068012840F052813068216951
:101AA00020F0F80040EAC10030602078000713D42D
:101AB000207840072AD4A569002D00F03C81B06849
:101AC00000F00C00082840F0A180012D40F01081AA
:101AD000012002B0BDE8F0816069002840F20000FA
:101AE000C4F2472000F07E800121C0F8801EFFF77D
:101AF00095FC0546706F8007DAD4FFF78FFC401B1A
:101B00000228F7D9032002B0BDE8F081306C5FEA0B
:101B1000C0080AD400200190306C40F0805030643E
:101B2000306C00F080500190019847F20007C4F239
:101B300000073868C00547D4386840F480703860C2
:101B4000FFF76CFC054600BF3868C0053CD4FFF7C2
:101B500065FC401B0228F7D9032002B0BDE8F081E4
:101B6000B06800F00C00082803D1706840023FF50F
:101B700076AF6068B0F5803F07D0B0F5A02F40F099
:101B80009B80306840F480203060306840F48030C2
:101B900030609BE0E06800285CD00020C4F2472061
:101BA00001210160FFF73AFC054600BF306880075D
:101BB0003FF574AFFFF732FC401B0228F6D9032033
:101BC00002B0BDE8F08100BFA068012805D005285B
:101BD00054D1306F40F004003067306F40F00100A6
:101BE000306755E00021C0F8801EFFF717FC05465E
:101BF000706F80077FF55CAFFFF710FC401B022879
:101C0000F6D9032002B0BDE8F08100BF0027C4F27E
:101C1000472700203866FFF701FC022D05460DD14D
:101C20003068800140F19080FFF7F8FB401B0228EC
:101C30004FF00300F4D902B0BDE8F08130688001B4
:101C400079D5FFF7EBFB401B02284FF00300F5D9D5
:101C5000F1E700BF0020C4F2472000210160FFF738
:101C6000DDFB0546306880077FF51FAFFFF7D6FB29
:101C7000401B02284FF00300F4D9DCE7316F002845
:101C800021F001013167316F21F0040131677DD00E
:101C9000FFF7C4FB054641F2883700BF306F80076D
:101CA00000F18680FFF7BAFB401BB842F6D903204B
:101CB00002B0BDE8F08100BF3168002821F4803116
:101CC0003160316821F4802131607BD0FFF7A6FBC1
:101CD000054600BF306880033FF5C8AEFFF79EFBA6
:101CE000401B6428F6D9032002B0BDE8F08100BF94
:101CF0007068E16900F480028A4221D1216A00F013
:101D00003F028A421CD147F6C071626A0140B1EBC2
:101D1000821F15D1A16A4FF6FF73C903994300F4DE
:101D20004032A1F580318A420AD1E16A00F0706048
:101D3000B0EB016F04D1002002B0BDE8F08100BF1C
:101D4000012002B0BDE8F08104F11C052FCD08434D
:101D500040EA8210D9034FF6FF729143A1F580311A
:101D600040EA05600843706001203866FFF756FBC3
:101D7000044600BF30688001DDD4FFF74FFB001B35
:101D800002284FF00300F5D955E700BFFFF746FBE7
:101D9000054641F2883700BF306F800708D5FFF74E
:101DA0003DFB401BB8424FF00300F5D943E700BFAD
:101DB000B8F1000F3FF57FAE306C20F080503064FA
:101DC00079E600BFFFF72AFB054600BF30688003B5
:101DD0007FF54CAEFFF722FB401B64284FF0030059
:101DE000F4D928E7411E0020B0EB116F1CBF012081
:101DF00070474EF21002CEF2000251604EF62351AF
:101E0000CEF20001F0230B70072190601160704743
:101E1000704700007047000090F83C20012A4FF006
:101E2000020254D010B580F83D200268D2F804E0D8
:101E3000D2F808C00C682EF07003234341F2FF74FF
:101E4000C4F20004A24253600EDC40F2FF73C4F2FD
:101E500000039A4216DCB2F1804F2BD040F20043CF
:101E6000C4F2000324E000BF40F2FF33C4F20103D8
:101E70009A4213DC41F60003C4F200039A4219D0DF
:101E8000002313E040F60003C4F200039A4211D08D
:101E900040F60043C4F200030AE000BF44F200032E
:101EA000C4F201039A4205D040F20043C4F2010398
:101EB0009A4204D149682CF08003194391600121B2
:101EC000002280F83D1080F83C20BDE8104010460C
:101ED00070470000002804BF0120704710B5044679
:101EE00090F83D0028B9002084F83C00204600F01E
:101EF0001FF8022084F83D002068211D02F026F919
:101F0000012084F8460084F83E0084F83F0084F8FD
:101F1000400084F8410084F8420084F8430084F8CB
:101F2000440084F8450084F83D00002010BD000006
:101F30000068B0F1804F18BF704780B582B00020B4
:101F4000019043F64000C4F202000168002241F013
:101F5000010101600068002100F00100019001987A
:101F60001C20FFF7C7FB1C2002B0BDE88040FFF734
:101F7000AFBB000090F83D1001291CBF0120704745
:101F8000022180F83D10006841F2FF72C168C4F27E
:101F90000002904241F00101C1600DDC40F2FF718E
:101FA000C4F20001884215DCB0F1804F2AD040F223
:101FB0000041C4F2000123E040F2FF31C4F201010C
:101FC000884213DC41F60001C4F20001884219D0B6
:101FD000002113E040F60001C4F20001884211D054
:101FE00040F60041C4F200010AE000BF44F20001E3
:101FF000C4F20101884205D040F20041C4F201015F
:10200000884206D1816801F00701062904BF00203B
:102010007047016841F00101016000207047000035
:1020200090F83C20012A4FF0020200F0C58080B5F4
:1020300080F83D20D0F800C04FF67772DCF8083009
:1020400023EA0202CCF808200B684F2B28DC1F2B58
:1020500044DD202B45D0302B43D0402B40F0AE80C8
:10206000D1F804E0C968DCF82030DCF8202022F048
:102070000102CCF82020DCF8182022F0F00242EA1D
:10208000011123F00A0242EA0E02CCF81810CCF833
:102090002020DCF8081041F0470121F0300180E0F9
:1020A0006F2B27DDB3F5005F48D0B3F5805F7AD0A2
:1020B000702B40F08380D1E901E3C968DCF8082087
:1020C00043EA0E0322F47F4243EA01211143CCF894
:1020D0000810DCF8081041F0770162E00BB1102B1A
:1020E0006CD1DCF8081021F07001194341F00701B0
:1020F00057E000BF502B35D0602B5FD1D1F804E002
:10210000C968DCF82030DCF8202022F01002CCF87E
:102110002020DCF8182022F4704242EA013123F03A
:10212000A00242EA0E12CCF81810CCF82020DCF8FD
:10213000081041F0670121F0100132E0D1E901E31C
:10214000C968DCF8082043EA0E0322F47F4243EA20
:1021500001211143CCF80810DCF8081041F480414B
:102160001FE000BFD1F804E0C968DCF82030DCF8DB
:10217000202022F00102CCF82020DCF8182022F0E8
:10218000F00242EA011123F00A0242EA0E02CCF800
:102190001810CCF82020DCF8081041F0570121F08D
:1021A0002001CCF808100022012180F83D10002108
:1021B00080F83C10BDE88040104670470122F3E7EC
:1021C000002804BF012070472DE9F047044690F82D
:1021D0003D000D4628B9002084F83C00204600F060
:1021E00049F8022084F83D00206844F20702816823
:1021F00091438160211D01F0A9FF20684FF6FF780F
:1022000081688269D0F820C0D5E9003ED5E9026A2C
:1022100043EA0109AB6922EA080246EA03234FF6C2
:10222000FC46B343D5E9076742EA0A0229691A4323
:1022300042EA062242EA01112CF0AA026B6942EA44
:102240000E0241EA073142EA0312C0F808908161A8
:102250000262012084F8460084F83E0084F83F00C2
:1022600084F8420084F8430084F83D000020BDE873
:10227000F087000080B586B0006840F60042C4F2E6
:10228000000200219042CDE90411CDE90211019133
:1022900020D040F20041C4F20001884240D1002029
:1022A00043F630010090C4F202010A6942F00202D2
:1022B0000A610A6902F002020092009A009008681E
:1022C00040F001000860086800F0010000900098EC
:1022D000C02018E043F630000091C4F20200026909
:1022E00042F008020261026902F008020092009ABC
:1022F0000091016841F001010160006800F00100F7
:10230000009000980F20019002200290002105907B
:102310000020CDE90311C4F2020001A9FEF7A0FFDD
:1023200006B080BD80B590F83E2090F83F3090F820
:1023300042E090F843C004290AD0B9B9012A4FF00D
:10234000010208BFBEF1010F34D0104680BD00BFAE
:10235000012B4FF0010208BFBCF1010FF5D10221A2
:1023600080F83F1080F8431000681EE0012A4FF00B
:10237000010208BF012BE8D1BEF1010FE5D1BCF18C
:10238000010FE2D1022280F83E2080F83F2080F841
:10239000422080F8432091B10068016A21F00101D8
:1023A0000162016A41F00101016210216FF0100227
:1023B00009E000BF022180F83E1080F8421000685A
:1023C00001216FF00102036A1A400262026A11439E
:1023D00001620168002241F001010160104680BDE8
:1023E0007047000070B504460068C5680669B1070B
:1023F00016D515F0020113D06FF002010161012121
:1024000021778069800703D02046FFF7E9FF05E0C8
:10241000204600F08FF8204600F0E8F900202077F1
:10242000700719D515F0040016D020686FF004016C
:10243000016102212177806910F4407F04D0204699
:10244000FFF7CEFF06E000BF204600F073F82046FD
:1024500000F0CCF900202077300717D515F00800E0
:1024600014D020686FF00801016104212177C06950
:10247000800703D02046FFF7B3FF05E0204600F0B9
:1024800059F8204600F0B2F900202077F00619D55F
:1024900015F0100016D020686FF0100101610821BE
:1024A0002177C06910F4407F04D02046FFF798FFE1
:1024B00006E000BF204600F03DF8204600F096F907
:1024C00000202077F00718BF15F0010002D1300678
:1024D00009D412E020686FF001010161204600F08C
:1024E00017FA300609D515F0800006D020686FF085
:1024F000800101612046FFF78BFC700609D515F0BD
:10250000400006D020686FF040010161204600F0D5
:1025100019FAB00658BF70BD15F0200008D0216828
:102520006FF0200220460A61BDE87040FFF772BCE0
:1025300070BD00007047000090F83C30012B04BFD4
:10254000022070474FEAB202032A00F201812DE90E
:10255000F043DFE802F0033F7FBF00BF036840F2B3
:1025600000461C6A1A6A24F0020422F001021A6270
:102570001A46D3F804C052F818EF8F6843F4806508
:10258000C4F20106B54244EA070405D1CF6824F03D
:102590000C0427F004073C430F68B54206D1D1E98B
:1025A00005582CF440762E4346EA080C2EF07306AC
:1025B0003743C3F804C09F614F6809695F631C62B9
:1025C0009F6947F008079F619F6927F004079F6193
:1025D000B2E000BF036840F200481C6A1A6A24F0A7
:1025E000200422F010021A621A46D3F804C052F8EE
:1025F00018EF8F6843F48065C4F20108454544EA4A
:10260000071407D1CF686FF0400624F0C00406EA33
:1026100007163443D1F80090454506D1D1E9055657
:102620002CF440672E4347EA860C2EF4E64747EA2F
:102630000927C3F804C09F614F6809699F631C6242
:102640009F6947F400679F619F6927F480679F61D6
:1026500071E000BF036840F200481C6A1A6A24F463
:10266000007422F480721A621A46D3F804C052F839
:102670001CEF8F6843F48065C4F20108454544EAC5
:10268000072408D1CF6840F2FF463F0224F440649B
:1026900027EA06063443D1F80090454506D1D1E932
:1026A00005562CF440572E4347EA061C2EF07307BC
:1026B00047EA0907C3F804C0DF614F680969DF63AF
:1026C0001C62DF6947F00807DF61DF6927F0040754
:1026D000DF6131E0036840F20045D3F820C01A6A98
:1026E00043F4806722F480521A621A465C6852F8FA
:1026F0001CEFD1F800808E68C4F20105AF4204D10E
:102700004D6924F4804444EA85142CF4005747EAC8
:1027100006372EF4E64646EA08265C60DE614E681F
:1027200009691E641F62DF6947F40067DF61DF69C2
:1027300027F48067DF6109021368194311600021E3
:10274000BDE8F043002280F83C200846704700BFF7
:102750000121002280F83C2008467047002804BF71
:102760000120704710B5044690F83D0028B90020BC
:1027700084F83C00204600F01FF8022084F83D0059
:102780002068211D01F0E2FC012084F8460084F855
:102790003E0084F83F0084F8400084F8410084F84B
:1027A000420084F8430084F8440084F8450084F82B
:1027B0003D00002010BD0000006840F60001C4F29A
:1027C0000001884218BF704781B00020009043F696
:1027D0004000C4F20200016841F004010160006899
:1027E00000F004000090009801B0704770470000AE
:1027F00041B1082910D0042914BF00F1410200F1B1
:102800003F020BE090F83E20012A1CBF01207047D8
:10281000022280F83E2013E000F140021278012AE3
:102820001CBF012070470222082907D0042914BFC9
:1028300080F8412080F83F2002E000BF80F840206F
:10284000006801F01F010122036A02FA01F123EA84
:1028500001020262026A114341F2FF72C4F20002F5
:102860009042016210DC40F2FF71C4F20001884224
:102870001CDCB0F1804F3FD040F20041C4F20001B7
:10288000884239D03DE000BF40F2FF31C4F201017F
:10289000884219DC41F60001C4F2000188422BD0C5
:1028A0000021C4F2010188421AD02AE040F600015A
:1028B000C4F2000188421FD040F60041C4F200017A
:1028C000884219D01DE000BF44F20001C4F20101AA
:1028D000884211D040F20041C4F20101884210D177
:1028E000416C40F2004340F48062C4F2010341F4C1
:1028F00000419A42416404D1816801F00701062930
:1029000003D0016841F00101016000207047000020
:102910000068B0F1804F18BF704780B501F0F2FB3E
:1029200040F20010C2F2000001780131CAB20A2A56
:102930000170BDE8804003D30021017001F0F6BBB7
:10294000704700007047000070B582B0044690F8F0
:10295000420020280AD113460A4600294FF0010000
:1029600018BF002B06D102B070BD00BF022002B01C
:1029700070BD00BF2063002622206663A262A3858B
:10298000666484F84200E06B44F2254C44F28555BD
:102990002168C0F6000CC0F60005C0E90FC544F27E
:1029A000A925C0F600050431C0E91356FEF706FC60
:1029B000E0B310206064202084F842000120216BE5
:1029C000012940F0B3800021009121680A6800923B
:1029D00049680091009900BF216851E8031F2268EF
:1029E00041F0100142E80313002BBCD0216851E8EC
:1029F000031F226841F0100142E80313002BB2D0FC
:102A0000216851E8031F226841F0100142E80313D6
:102A1000002BA8D0216851E8031F226841F0100163
:102A200042E80313002BD7D19DE700BF0196206831
:102A300001680191406801900198206930B300BF9E
:102A4000206850E8030F216840F4807041E80302D9
:102A5000E2B1206850E8030F216840F4807041E83B
:102A600003029AB1206850E8030F216840F4807097
:102A700041E8030252B1206850E8030F216840F496
:102A8000807041E80302002ADAD100BF206850E8D4
:102A9000050F216840F0010041E80502BAB3206843
:102AA00050E8050F216840F0010041E8050272B3CB
:102AB000206850E8050F216840F0010041E8050258
:102AC0002AB3206850E8050F216840F0010041E872
:102AD0000502002ADAD11AE0206850E8050F2168C3
:102AE00040F0400041E80502DAB1206850E8050FE7
:102AF000216840F0400041E8050292B1206850E8AA
:102B0000050F216840F0400041E805024AB1206805
:102B100050E8050F216840F0400041E80502002A16
:102B2000DAD10020216B01293FF44DAF012002B022
:102B300070BD0000B0B584B040F65C12C2F2000275
:102B4000904209D00C4640F61411C2F200018842AE
:102B50002AD004B0B0BD00BF40F27C0240F2700049
:102B6000C2F2000240F2255440F27405C2F20000A5
:102B700002F10801C2F20004C2F20005CDE9001022
:102B8000131D1AA120460295FDF75EFB40F65C106E
:102B9000C2F200002146C822FFF7D6FE40F2F050F4
:102BA000C2F200001BE000BF40F60040C4F2020089
:102BB0000221FEF725FC40F20455C2F2000528462A
:102BC000214601F055FE40F61410C2F200002946DD
:102BD0002122FFF7B9FE40F2B060C2F200000068A7
:102BE000016821F00801016004B0B0BD212C256608
:102BF0002C25662C25662C25662C256623000000D6
:102C000070470000B0B582B0044600680168C36830
:102C1000426901F02F05202D03F0200506D12DB1CA
:102C2000204602B0BDE8B04001F0B8BC5FEA017CCC
:102C30001EBF02F0010E03F4907212EB0E0243D19C
:102C4000226BCD0618D5012A16D113F0100213D02D
:102C50000021019101680191416801910199406948
:102C600040063BD4A08DE18DE28D002A18BF88423A
:102C700040F0FE8102B0B0BD0A0640F1E98013F0D9
:102C8000800200F0E58094F841102129F2D1A1687A
:102C9000B1F5805F03D12169002900F06F82216ABC
:102CA0004A1C226209784160E18C01390A04E184FE
:102CB000E0D1C16821F08001C160C16841F04001EC
:102CC000C16002B0B0BD00BFCA0718BF13F4807264
:102CD00040F0DC804A0700F1DF80E4E0E06B01684F
:102CE0004A68A38D91B2002900F0C680994280F015
:102CF000C380E285C069B0F5807F00F09C802068C9
:102D000050E8030F216820F4807041E80302DAB133
:102D1000206850E8030F216820F4807041E8030226
:102D200092B1206850E8030F216820F4807041E8D8
:102D300003024AB1206850E8030F216820F4807034
:102D400041E80302002ADAD1206850E8050F216823
:102D500020F0010041E80502DAB1206850E8050FD3
:102D6000216820F0010041E8050292B1206850E896
:102D7000050F216820F0010041E805024AB12068F2
:102D800050E8050F216820F0010041E80502002A03
:102D9000DAD1206850E8050F216820F0400041E8B2
:102DA0000502DAB1206850E8050F216820F04000E4
:102DB00041E8050292B1206850E8050F216820F033
:102DC000400041E805024AB1206850E8050F21683B
:102DD00020F0400041E80502002ADAD1202084F8E2
:102DE000420000202063206850E8030F216820F093
:102DF000100041E80302DAB1206850E8030F2168AF
:102E000020F0100041E8030292B1206850E8030F5F
:102E1000216820F0100041E803024AB1206850E820
:102E2000030F216820F0100041E80302002ADAD1E4
:102E3000E06BFDF7D7FF02206063A08DE18D401AA3
:102E400081B2204602B0BDE8B040FFF773BE00BFBC
:102E500049067FF50FAF13F040013FF40BAFC16897
:102E600021F04001C1602021204684F8411002B0C9
:102E7000BDE8B04000F090BB8B427FF4FBAEC06970
:102E8000B0F5807F7FF4F6AE02226AE1626C42F018
:102E9000010262644A0706D5BEF1000F03D0626CDE
:102EA00042F0020262648A0706D5BEF1000F03D029
:102EB000626C42F004026264BCF1000F06D55EEA67
:102EC000050203D0626C42F008026264626C002A60
:102ED0003FF4D0AE890604D51DB1204601F05EFB5B
:102EE00020684069616C00F0400001F00801401862
:102EF00000F0B680206850E8030F216820F490703D
:102F000041E80302BAB3206850E8030F216820F4B7
:102F1000907041E8030272B3206850E8030F216803
:102F200020F4907041E803022AB3206850E8030FB0
:102F3000216820F4907041E80302002ADAD11AE0F7
:102F4000206850E8050F216820F0010041E80502E3
:102F5000DAB1206850E8050F216820F0010041E84F
:102F6000050292B1206850E8050F216820F00100A9
:102F700041E805024AB1206850E8050F216820F0B9
:102F8000010041E80502002ADAD1206B012824D192
:102F9000206850E8030F216820F0100041E8030288
:102FA000DAB1206850E8030F216820F0100041E8F2
:102FB000030292B1206850E8030F216820F010004E
:102FC00041E803024AB1206850E8030F216820F06D
:102FD000100041E80302002ADAD1202084F84200E0
:102FE0000020206320684069400640F1C1802068CD
:102FF00050E8050F216820F0400041E80502DAB1F1
:10300000206850E8050F216820F0400041E80502E3
:1030100092B1206850E8050F216820F0400041E897
:1030200005024AB1206850E8050F216820F04000F1
:1030300041E80502002ADAD1E06B002800F0988010
:1030400044F29D21C0F600010165FDF713FF002841
:103050003FF410AEE06B016D02B0BDE8B040084730
:103060002046FFF7CDFD0020606402B0B0BD00BF78
:10307000401A00BF216851E8031F226821F49071B3
:1030800042E80313BBB3216851E8031F226821F40F
:10309000907142E8031373B3216851E8031F22685B
:1030A00021F4907142E803132BB3216851E8031F08
:1030B000226821F4907142E80313002BDAD11AE060
:1030C000216851E8051F226821F0010142E805133B
:1030D000DBB1216851E8051F226821F0010142E8B7
:1030E000051393B1216851E8051F226821F0010101
:1030F00042E805134BB1216851E8051F226821F011
:10310000010142E80513002BDAD1202184F8421096
:1031100000212163216851E8031F226821F010017A
:1031200042E80313DBB1216851E8031F226821F054
:10313000100142E8031393B1216851E8031F22688C
:1031400021F0100142E803134BB1216851E8031F3D
:10315000226821F0100142E80313002BDAD1022289
:1031600081B22046626302B0BDE8B040FFF7E2BC26
:10317000204602B0BDE8B040FFF742BD216A31F8F9
:10318000022B6FF35F22426021628DE5002804BFAD
:103190000120704710B5044690F8410028B900207E
:1031A00084F84000204600F021F8242084F84100F3
:1031B0002068C16821F40051C160204601F06EFA18
:1031C0002068016921F490410161416921F02A01DF
:1031D0004161C16841F40051C16000202021606458
:1031E00084F8411084F84210606310BD2DE9F0436B
:1031F00087B00446006844F6FF71C4F200018842BB
:103200004FF000010691CDE90411CDE9021100F360
:10321000838044F20041C4F20001884200F0BE8085
:1032200044F60001C4F20001884200F0E58044F653
:103230000041C4F20001884240F03081002643F68C
:1032400030000196C4F20200016946F2280841F4F8
:10325000002101610169C4F2020801F40021019119
:1032600001990196016841F004010160006802A91A
:1032700000F00400019001984FF440600290022099
:10328000CDE90306032005900820069040F60000D3
:10329000C4F20200FDF7E4FF40F2506508F1480077
:1032A000C2F200054FF000674021C5E9000705F1B3
:1032B00008004FF4806980E842022846C5E90566A7
:1032C000C5E907666E62FDF7C7FE002818BFFDF767
:1032D00085FDA563AC6340F2F05508F11800C2F219
:1032E0000005C5E900072846C5E90266C5E9049658
:1032F000C5E90666C5E90866FDF7AEFE002818BFF9
:10330000FDF76CFD342001210122E563AC63FEF77B
:10331000F1F93420C0E000BF45F20001C4F2000121
:10332000884200F0BF8041F20001C4F201018842EE
:1033300000F0008141F20041C4F20101884240F0F6
:10334000AD80002043F630010190C4F202014A69C9
:1033500042F020024A614A6902F020020192019A79
:1033600001900A6842F004020A60096801F0040151
:1033700001910199C02102910221CDE9031003209E
:1033800005900820069040F60000C4F2020002A951
:10339000FDF766FF07B0BDE8F08300BF002043F6ED
:1033A00030010190C4F202010A6942F400320A615C
:1033B0000A6902F400320192019A01900A6842F00F
:1033C00008020A60096801F0080101910199602171
:1033D00002910221CDE903100320059007200690F9
:1033E00040F60000C4F2020000F5806002A9FDF77B
:1033F00037FF07B0BDE8F083002643F630000196A2
:10340000C4F20200016941F480210161016901F403
:103410008021019101990196016841F00801016044
:10342000006802A900F00800019001984FF4407074
:1034300002900220CDE903060320059007200690A4
:1034400040F60000C4F2020000F58060FDF708FFBE
:1034500040F2B06546F22800C2F20005C4F2020054
:103460004FF000614FF4806285E843002846C5E9CB
:103470000362C5E90566C5E907666E62FDF7ECFD06
:10348000002818BFFDF7AAFC272000210022E563D1
:10349000AC63FEF72FF92720FEF71AF907B0BDE855
:1034A000F08300BF002643F630000196C4F202000C
:1034B000016940F6000441F4801101610169C4F220
:1034C000020401F48011019101990196016802AD95
:1034D00041F00401016001684FF0020801F00401AD
:1034E00001910199019601684FF0030941F008012B
:1034F00001600068082700F00800019001984FF46F
:103500008050029020462946CDE90386CDF81490DC
:103510000697FDF7A5FE0420CDE90208CDE9046970
:10352000069704F580602946FDF79AFE07B0BDE8CE
:10353000F08300BF002043F630010190C4F2020185
:103540004A6942F010024A614A6902F0100201928F
:10355000019A01900A6842F002020A60096801F0CB
:10356000020101910199C02102910221CDE90310CC
:10357000032005900720069040F60000C4F20200E8
:10358000A0F5806002A9FDF76BFE07B0BDE8F083EF
:10359000704700007047000070470000FEE7000021
:1035A00080B582B00020019043F63000C4F20200E2
:1035B0000168002241F4001101600068002100F45C
:1035C0000010019001980C20FEF794F80C20FEF7F3
:1035D0007FF80D2000210022FEF78CF80D20FEF769
:1035E00077F80F2000210022FEF784F80F2002B0A8
:1035F000BDE88040FEF76CB82DE9F04F87B000249D
:1036000043F6300006940194C4F20200016840F2CF
:10361000004841F0800101600168C4F2020801F035
:103620008001019101990194016808F5406741F01A
:10363000010101600168002201F00101019101997D
:10364000019401684FF42A4641F0100101600168BD
:1036500001F01001019101990194016841F002010A
:103660000160016801F00201019101990194016872
:1036700041F008010160016801F008010191019920
:103680000194016841F00401016000684FF42A418F
:1036900000F00400019001983846FDF7B9FE08F5E6
:1036A00000652846022100224FF0020AFDF7B0FE15
:1036B00040464FF4407100224FF44079FDF7A8FED8
:1036C000029602AE4FF0010B38463146CDE903B405
:1036D0000594FDF7C5FD4FF4007002901220CDE96E
:1036E0000304032005900420069008F5806031460D
:1036F000FDF7B6FD4FF48070CDE9020AA8F58060B1
:103700003146CDE904440694FDF7AAFD284631462A
:10371000CDE902ABCDE90444FDF7A2FD40463146B8
:10372000CDE9029BCDE90444FDF79AFD07B0BDE861
:10373000F08F000080B540F2107045F60001C2F233
:103740000000C4F2000148F2A06200234FF4804C54
:10375000C0F2010280E80E00C0E9033CC0E9053375
:10376000C0E90733FDF760FE002808BF80BDBDE853
:103770008040FDF733BB000080B586B040F2647036
:103780000021C2F200004FF08042102341F24C3C75
:103790000591CDE90311CDE90011C0E90023C0E98D
:1037A000021C01618161FEF795FB002818BFFDF73F
:1037B00015FB4FF48050029040F26470C2F200009A
:1037C00002A9FEF72DFC002818BFFDF707FB40F209
:1037D0006470C2F200006946FEF71EFB002818BFA5
:1037E000FDF7FCFA06B080BD80B58CB040F2AC703D
:1037F00040F200420021C2F20000C4F20002C0E91F
:10380000002103224FF6FF73CDE903210122CDE908
:103810000011C0E9021301618161CDE90521CDE903
:103820000711CDE909210B9103A9FEF7C9FC002876
:1038300018BFFDF7D3FA40F2AC70C2F2000069463F
:10384000FEF7EAFA002818BFFDF7C8FA0CB080BDF1
:10385000B0B590B040F6000540F2F470C4F2000537
:103860000021C2F20000072240F21A43CDE90811FC
:10387000CDE90611CDE90411C0E90052C0E90213F7
:1038800001618161FEF76AFF002818BFFDF7A6FA03
:1038900040F2F470C2F2000008A9FEF7BDFA002859
:1038A00018BFFDF79BFA602001900020CDE90200CF
:1038B000059040F2F470C2F2000001A90822FEF760
:1038C0003BFE002818BFFDF789FA40F2F474C2F2FB
:1038D000000401A920460C22FEF72EFE002818BF86
:1038E000FDF77CFA2068A84202D010B0B0BD00BF3E
:1038F000002043F630010B90C4F202010A6842F046
:1039000008020A60096801F008010B910B994FF455
:1039100040410B910221CDE90C10CDE90E0105F5D6
:1039200001300BA9FDF79CFC10B0B0BD80B58CB088
:1039300040F63C0040F600420021C2F20000C4F212
:103940000002C0E9002103224FF0FF33CDE903213B
:103950000122CDE90011C0E9021301618161CDE9C5
:103960000521CDE90711CDE909210B9103A9FEF746
:1039700027FC002818BFFDF731FA40F63C00C2F2E0
:1039800000006946FEF748FA002818BFFDF726FA3E
:103990000CB080BD80B540F65C1044F60041C2F228
:1039A0000000C4F2000100234FF00C0C4FF4E13290
:1039B00080E80E00C0E90333C0E905C3C361FFF727
:1039C000E5FB002808BF80BDBDE88040FDF706BAD2
:1039D00080B540F6A41045F20001C2F20000C4F226
:1039E000000100234FF00C0C4FF4E13280E80E0090
:1039F000C0E90333C0E905C3C361FFF7C7FB002873
:103A000008BF80BDBDE88040FDF7E8B980B540F64D
:103A1000840041F20001C2F20000C4F2010100235F
:103A20004FF00C0C4FF4E13280E80E00C0E9033394
:103A3000C0E905C3C361FFF7A9FB002808BF80BD2B
:103A4000BDE88040FDF7CAB980B540F6CC0044F22D
:103A50000041C2F20000C4F2000100234FF00C0C40
:103A60004FF4E13280E80E00C0E90333C0E905C33A
:103A7000C361FFF78BFB002808BF80BDBDE8804015
:103A8000FDF7ACB980B540F6141044F60001C2F25F
:103A90000000C4F2000100234FF00C0C4FF4E1329F
:103AA00080E80E00C0E90333C0E905C3C361FFF736
:103AB0006DFB002808BF80BDBDE88040FDF78EB9D2
:103AC00080B540F6EC1041F20041C2F20000C4F2B1
:103AD000010100234FF00C0C4FF4E13280E80E009E
:103AE000C0E90333C0E905C3C361FFF74FFB0028FA
:103AF00008BF80BDBDE88040FDF770B9FEE700005B
:103B00002DE9F04381B00D4640F21A414FF6E639F7
:103B10008842B8BF0146CFF6FF794945D8BF49462C
:103B200008B241F2000881EAE032C4F20208012939
:103B3000A2EBE03408DB40464FF400710122FDF7B0
:103B400067FC00260EE000BF8FB23E4640464FF4B1
:103B500000710022002F18BF0126FDF759FC002F2D
:103B600008BF3C4640464FF400613246FDF750FC2A
:103B700040F2F476C2F200063068A1B2C16340F2AE
:103B80001A408542B8BF28464845D8BF484601B2CA
:103B900080EAE1320128A2EBE13407DB40464FF432
:103BA00000510122FDF734FC00250DE087B23D46AF
:103BB00040464FF400510022002F18BF0125FDF7A9
:103BC00027FC002F08BF3C4640464FF400412A46E0
:103BD000FDF71EFC3068A1B2016401B0BDE8F083BE
:103BE00010B540F2F474C2F2000420460821FEF73A
:103BF000FFFD20460C21BDE81040FEF7F9BD000096
:103C0000FEE7000080B540F20410C2F200004FF45D
:103C10008061FCF70DFB80BDB0B540F20044C4F2FA
:103C200002040546C20920464FF40071FDF7F0FB7F
:103C300020464FF480710122FDF7EAFB20464FF445
:103C400080710022FDF7E4FBC5F3801220464FF49B
:103C50000071FDF7DDFB20464FF480710122FDF776
:103C6000D7FB20464FF480710022FDF7D1FBC5F34E
:103C7000401220464FF40071FDF7CAFB20464FF476
:103C800080710122FDF7C4FB20464FF480710022B1
:103C9000FDF7BEFBC5F3001220464FF40071FDF79F
:103CA000B7FB20464FF480710122FDF7B1FB20469F
:103CB0004FF480710022FDF7ABFBC5F3C002204634
:103CC0004FF40071FDF7A4FB20464FF480710122F0
:103CD000FDF79EFB20464FF480710022FDF798FB14
:103CE000C5F3800220464FF40071FDF791FB20469A
:103CF0004FF480710122FDF78BFB20464FF4807159
:103D00000022FDF785FBC5F3400220464FF4007109
:103D1000FDF77EFB20464FF480710122FDF778FB12
:103D200020464FF480710022FDF772FB05F001027E
:103D300020464FF40071FDF76BFB20464FF4807175
:103D40000122FDF765FB20464FF480710022FDF74C
:103D50005FFB20464FF480710122FDF759FB20469E
:103D60004FF480710022BDE8B040FDF751BB000068
:103D700010B540F20044C4F2020420464FF48071B2
:103D80000122FDF745FB20464FF400710122FDF7AB
:103D90003FFBAE2000F0C4F8D52000F0C1F8802031
:103DA00000F0BEF8A82000F0BBF83F2000F0B8F803
:103DB000D32000F0B5F8002000F0B2F8402000F069
:103DC000AFF8A12000F0ACF8C82000F0A9F8DA2084
:103DD00000F0A6F8122000F0A3F8812000F0A0F86F
:103DE000CF2000F09DF8D92000F09AF8F12000F0E3
:103DF00097F8DB2000F094F8302000F091F8A42030
:103E000000F08EF8A62000F08BF88D2000F088F8E6
:103E1000142000F085F8AF2000F082F840F2041082
:103E2000C2F200004FF48061FCF702FABDE81040D6
:103E3000AFF3008010B5B02000F072F8102000F051
:103E40006FF8002000F06CF840F20414C2F2000495
:103E50002046802100F0A0F8B12000F061F8102089
:103E600000F05EF8002000F05BF804F18000802193
:103E700000F092F8B22000F053F8102000F050F853
:103E8000002000F04DF804F58070802100F084F8E7
:103E9000B32000F045F8102000F042F8002000F0B8
:103EA0003FF804F5C070802100F076F8B42000F0EF
:103EB00037F8102000F034F8002000F031F804F555
:103EC0000070802100F068F8B52000F029F810207B
:103ED00000F026F8002000F023F804F5207080217F
:103EE00000F05AF8B62000F01BF8102000F018F887
:103EF000002000F015F804F54070802100F04CF827
:103F0000B72000F00DF8102000F00AF8002000F0B3
:103F100007F804F560708021BDE8104000F03CB85F
:103F2000B0B540F20044C4F20204054620464FF406
:103F300000710122FDF76CFA20464FF480710122D6
:103F4000FDF766FA20464FF400710022FDF760FA93
:103F500020464FF480710022FDF75AFA7820FFF7CF
:103F60005BFE0020FFF758FE2846FFF755FE20466F
:103F70004FF400710022FDF74BFA20464FF4807198
:103F80000122FDF745FA20464FF400710122BDE8F9
:103F9000B040FDF73DBA000070B540F20044C4F2F5
:103FA00002040D46064620464FF400710122FDF73B
:103FB0002FFA20464FF480710122FDF729FA20469E
:103FC0004FF400710022FDF723FA20464FF4807170
:103FD0000022FDF71DFA7820FFF71EFE4020FFF7B4
:103FE0001BFE3DB1013E00BF16F8010FFFF714FEA6
:103FF000013DF9D120464FF400710022FDF708FA87
:1040000020464FF480710122FDF702FA20464FF45A
:1040100000710122BDE87040FDF7FAB97047000059
:1040200070470000FDF7E8BAB0B592B0002443F63F
:104030004000CDE90A44CDE908440594CDE90344A4
:10404000CDE901440094C4F202000168022541F068
:1040500080510160006800F080500090009847F2A5
:1040600000000094C4F20000016841F48041016046
:104070000068A82100F4804000900098032006907A
:104080004FF4803007900120099010200A904FF4DF
:1040900080000D9004200E90119006A80C95CDE99B
:1040A0000F15FDF7C7FC18B172B600BFFEE700BFE1
:1040B0000F20CDE901054FF4A05004904FF480503B
:1040C000059001A805210394FDF750FB10B172B6CD
:1040D000FEE700BF002000210022FDF757FC12B0D0
:1040E000B0BD00004EF68850CEF20000016841F4E9
:1040F000700101607047000040F26470C2F200007D
:10410000FEF770B980B500F073FB40F22C00C2F2EC
:10411000000090ED000A40F23000C2F20000D0ED45
:10412000000ABDE88040FCF727BE000080B540F6DD
:104130000040C4F202000221FDF762F900F072FFB4
:1041400000F03CFEBDE8804001F09AB8B0B540F602
:10415000FF3E0568C4F2000E40F2004C7045C4F208
:10416000010C27DCB0F1804F31D040F20043C4F2A3
:10417000000398422BD040F60003C4F2000398429B
:1041800025D041F6FF73C4F2000398422ADC704543
:104190003CDCB0F1804F5FD040F20043C4F200033A
:1041A000984259D040F60003C4F20003984253D01D
:1041B00057E000BF40F60043C4F20003984206D027
:1041C000604504D00023C4F201039842D9D14B6862
:1041D00025F0700243EA020541F6FF73C4F20003C2
:1041E0009842D4DD43F6FF73C4F20103984221DC08
:1041F00042F20003C4F2000398422DD00023C4F21F
:104200000103984228D0604526D02AE040F60043BA
:10421000C4F2000398421FD041F60003C4F2000329
:10422000984219D041F60043C4F20003984213D0DB
:1042300017E000BF44F20003C4F2010398420BD020
:1042400044F60003C4F20103984205D044F200434F
:10425000C4F20103984204D1CB6825F4407243EACA
:1042600002050A688C684B69C46240F4806482620B
:10427000644504BF09690163026825F0800142F0CA
:10428000040219430260012242610160B0BD0000D6
:1042900040F65C10C2F20000FEF7B4BC806B002157
:1042A000C185FEF7ADBC0000806B01684A6990F8DB
:1042B0004130212B2DD112F080022AD00021C1845F
:1042C000016851E8031F026821F0C00142E80313AE
:1042D000DBB1016851E8031F026821F0C00142E828
:1042E000031393B1016851E8031F026821F0C00174
:1042F00042E803134BB1016851E8031F026821F043
:10430000C00142E80313002BDAD1202180F84110CC
:104310000168496990F84220222A40F07D8011F01E
:10432000400179D00021C185016851E8031F02686E
:1043300021F4907142E80313BBB3016851E8031FF5
:10434000026821F4907142E8031373B3016851E8E5
:10435000031F026821F4907142E803132BB3016834
:1043600051E8031F026821F4907142E80313002B07
:10437000DAD11AE0016851E8051F026821F0010155
:1043800042E80513DBB1016851E8051F026821F01E
:10439000010142E8051393B1016851E8051F026865
:1043A00021F0010142E805134BB1016851E8051FF6
:1043B000026821F0010142E80513002BDAD1016BFC
:1043C000012924D1016851E8031F026821F010017E
:1043D00042E80313DBB1016851E8031F026821F0D2
:1043E000100142E8031393B1016851E8031F02680A
:1043F00021F0100142E803134BB1016851E8031F9B
:10440000026821F0100142E80313002BDAD12021C9
:1044100080F8421000210163416C41F010014164B9
:10442000FEF7EEBB0168806B0968C90500F19F804B
:104430000021C185016851E8031F026821F48071E1
:1044400042E80313E3B1016851E8031F026821F455
:10445000807142E803139BB1016851E8031F0268B1
:1044600021F4807142E8031353B1016851E8031F3E
:10447000026821F4807142E80313002BDAD100BFF7
:10448000016851E8051F026821F0010142E80513A7
:10449000BBB3016851E8051F026821F0010142E841
:1044A000051373B3016851E8051F026821F001018B
:1044B00042E805132BB3016851E8051F026821F09B
:1044C000010142E80513002BDAD11AE0016851E836
:1044D000051F026821F0400142E80513DBB10168C5
:1044E00051E8051F026821F0400142E8051393B12D
:1044F000016851E8051F026821F0400142E80513F8
:104500004BB1016851E8051F026821F0400142E803
:104510000513002BDAD1202180F84210016B01290C
:1045200025D100BF016851E8031F026821F0100186
:1045300042E80313DBB1016851E8031F026821F070
:10454000100142E8031393B1016851E8031F0268A8
:1045500021F0100142E803134BB1016851E8031F39
:10456000026821F0100142E80313002BDAD1002188
:104570004163016B012918BFFFF70AB8818DFEF76F
:10458000D9BA0000806B01214163016B012918BF7A
:10459000FFF700B8818D4908FEF7CCBA81B090F8DA
:1045A0004210222921D183680246B3F5805F09D1E8
:1045B00052F8281F52F8183C002B63D003685B6840
:1045C0000AE000BF52F8281F13B90369002BF5D089
:1045D00003685B6803F07F030B70116801311160A1
:1045E000C18D01390A04C18502D001B0704700BFF6
:1045F0000168CA6822F02002CA60CA6822F4807288
:10460000CA604A6922F001024A61202180F8421002
:1046100000214163026B012A3CD10163016851E82A
:10462000031F026821F0100142E80313DBB10168A7
:1046300051E8031F026821F0100142E8031393B10F
:10464000016851E8031F026821F0100142E80313DA
:104650004BB1016851E8031F026821F0100142E8E4
:104660000313002BDAD101680A68D20606D50022AE
:1046700000920A680092496800910099818D01B00A
:10468000FEF758BA026852686FF35F2221F8022BD6
:104690008162A5E701B0FEF77BBF000010B50446BC
:1046A0000068D4E902C22369016921F44051114331
:1046B0000161626943EA0C01E3691143C26819436D
:1046C00049F20C639A431143C1604169A26921F424
:1046D000407141F20043114340F48062C4F201038F
:1046E0009A42416102D1FDF707F901E0FDF7F0F8C8
:1046F000E16963681922B1F5004FA0FB020123D1E3
:104700005A00DB0FFBF75CFD48F21F51C5F2EB11BD
:10471000A0FB01235A094FF69C73C0F6FF7303F107
:10472000805302FB0300322303EBC000A0FB010116
:104730004FF4F87000EA111000EB0210C1F34211BF
:1047400008442168886010BD9A009B0FFBF738FD74
:1047500048F21F51C5F2EB11A0FB01235A094FF695
:104760009C73C0F6FF7302FB0300322303EB0010BF
:10477000A0FB0101F02000EA511000EB0210C1F390
:10478000431108442168886010BD000040F61410F1
:10479000C2F20000FEF736BA80B540F65C1040F277
:1047A0002551C2F20000C2F20001C822FEF7CCF887
:1047B00040F2F050C2F2000000682122016821F0AE
:1047C0000801016040F6141040F20451C2F20000EA
:1047D000C2F20001FEF7B8F840F2B060C2F2000089
:1047E0000068016821F00801016080BDFEE700005B
:1047F00040F2AC70C2F2000000689FED1A1A416AE4
:1048000040F22000C2F20000028801808A1A13B22E
:1048100000EE103AB8EEC00A80EE010A41689FED42
:10482000122A01FA82F1416040F63C01C2F2000115
:1048300020EE020A80ED030A0968496A4288418035
:104840008A1A13B200EE103AB8EEC00A80EE010ADE
:10485000816801FA82F1816020EE020A80ED040A8B
:10486000704700BF00C05A4700606A470000000060
:104870002DE9F04F81B02DED048B82B00B29019012
:104880000BD30C46A1F10A000B39032900F00307F2
:104890000AD20025002F40F0D98002B0BDEC048B75
:1048A00001B0BDE8F08F00BF9FEDBF0B009757EC44
:1048B000109B9FEDBF0B20F003009FEDBF8A9FED83
:1048C000BF9AC0F1000B4FF00E0A56EC105B06E0E9
:1048D0000AF1040A0BEB0A000E2800F0B1800198DF
:1048E00000EB0A0818F80E0C552826D118F80D0C04
:1048F000532822D1AAF10300A0421ED838F8080C90
:10490000FBF74FFF4A463B46FBF76AFE2A46334613
:10491000FBF766FEFBF756FF00EE100A40F23C0084
:10492000B4EE490AC2F2000030EE081AF1EE10FAB5
:10493000C8BFB0EE410A80ED0C0A18F80D0C5528DE
:1049400026D118F80C0C532822D1AAF10200A0425B
:104950001ED838F8070CFBF724FF4A463B46FBF706
:104960003FFE2A463346FBF73BFEFBF72BFF00EEEC
:10497000100A40F23C00B4EE490AC2F2000030EEE8
:10498000081AF1EE10FAC8BFB0EE410A80ED0C0A29
:1049900018F80C0C552826D118F80B0C532822D1E6
:1049A000AAF10100A0421ED838F8060CFBF7F9FE68
:1049B0004A463B46FBF714FE2A463346FBF710FEF9
:1049C000FBF700FF00EE100A40F23C00B4EE490A8B
:1049D000C2F2000030EE081AF1EE10FAC8BFB0EED5
:1049E000410A80ED0C0A18F80B0C55287FF470AFC3
:1049F00018F80A0C53287FF46BAFA2453FF668AF56
:104A000038F8050CFBF7CDFE4A463B46FBF7E8FDC0
:104A10002A463346FBF7E4FDFBF7D4FE00EE100A0E
:104A200040F23C00B4EE490AC2F2000030EE081A2F
:104A3000F1EE10FAC8BFB0EE410A80ED0C0A47E76C
:104A4000009FAAF10E05002F3FF427AF01986E1CBE
:104A5000405D55282FD10198805D53282BD105F159
:104A60000B00A04227D801982844C088FBF799FE84
:104A70009FED4D0B53EC102BFBF7B2FD9FED4C0B54
:104A800053EC102BFBF7ACFDFBF79CFE9FED4B2A84
:104A900000EE100A9FED481A40F23C00B4EE420AC4
:104AA000C2F2000030EE011AF1EE10FAC8BFB0EE0B
:104AB000410A80ED0C0A012F3FF4EFAE0198805DB2
:104AC000AE1C552830D10198805D53282CD105F1BA
:104AD0000C00A04228D801982844B0F80700FBF742
:104AE00060FE9FED310B53EC102BFBF779FD9FED32
:104AF000300B53EC102BFBF773FDFBF763FE9FEDC0
:104B00002F2A00EE100A9FED2C1A40F23C00B4EE62
:104B1000420AC2F2000030EE011AF1EE10FAC8BFEC
:104B2000B0EE410A80ED0C0A022F3FF4B6AE0198B8
:104B3000805D55287FF4B1AE01982844C17853298F
:104B40007FF4ABAE05F10D01A1423FF6A6AE0089A0
:104B5000FBF727FE9FED140B53EC102BFBF740FDEA
:104B60009FED130B53EC102BFBF73AFDFBF72AFEDE
:104B70009FED122A00EE100A9FED0F1A40F23C0042
:104B8000B4EE420AC2F2000030EE011AF1EE10FA61
:104B9000C8BFB0EE410A80ED0C0A02B0BDEC048B38
:104BA00001B0BDE8F08F00BF000000000000003F32
:104BB00000000000008066400000B4C300003443E1
:104BC000FCF728FDFFF730FAFEF716FDFEF7E8FCCC
:104BD000FEF7D2FDFEF708FEFEF73AFEFEF7DAFE1C
:104BE000FEF7F6FEFEF712FFFEF74CFFFEF768FF3A
:104BF000FEF7A0FDFEF728FFFEF798FEFEF7F0FF98
:104C000040F26470C2F20000FDF7B4F9FFF7B0F8AB
:104C1000FEF7F8FF40F2AC70C2F200003C21FDF755
:104C200081FB40F63C00C2F200003C21FDF77AFB1C
:104C3000FFF7B2FD00F040F8B3EE0E0AF0EE400AC6
:104C400000F084F800F016F8FFF7A6FD9FED071AB4
:104C5000B6EE000AF3EE040A00F070F8DFED040A85
:104C6000B2EE000A00F07AF8FEE700BF000034421E
:104C70000000000040F24C00C2F2000090ED080A73
:104C80009FED0B1A9FED0B2A20EE010A80EE020A1F
:104C900040F2D400C2F200000021C0E90111C0E9D5
:104CA0000311C0E90511017080ED070A704700BFCC
:104CB000DB0F49400000344380B540F2700140F200
:104CC000000C40F2000EC2F20001C4F2822CC4F2C9
:104CD000F01E00200022C1E903CEC1E90500C1E9B0
:104CE0000700C1E90900C4F27A42002301F12C0750
:104CF000C1E91000C1E91200C1E914005831CCF239
:104D00007A4387E80D500DC140F6382149F69A12D2
:104D1000C2F20001C3F69972C1E90020C1E90200A4
:104D2000C1E90400C1E90600002200232031C4F2D9
:104D3000C832CCF2C8330DC180BD000040F20C0077
:104D4000C2F2000080EC030A7047000040F27000DD
:104D5000C2F2000080EC020A7047000040F2D40169
:104D6000C2F20001087801284FF0000008BF704728
:104D700091ED051A91ED062A30EE411A30EEC22A65
:104D800022EE022A21EE011A31EE021AB1EEC11A08
:104D900040F20C02C2F2000281ED080A92ED000A14
:104DA0000222C1ED090AB4EE401AF1EE10FAA8BFD2
:104DB0000120A8BF01220A7070470000B0B52DED98
:104DC000028B40F2D405C2F20005287801282BD1CD
:104DD00095ED050A95ED061A95ED082A95ED093A27
:104DE00072EE400A33EE410A20EE001A20EEA02AAD
:104DF00032EE011AB1EEC18A40F20C04C2F2000494
:104E000094ED001AB4EE418AF1EE10FA10DA9FED3B
:104E1000840A0220F0EE400A2870BDEC028BBDE847
:104E2000B040FFF793BF00BFBDEC028BB0BD00BF29
:104E300000F042FA9FED741AB4EE410AF1EE10FA56
:104E40001EDD9FED722A00BF30EE020AB4EE410A69
:104E5000F1EE10FA14DD30EE020AB4EE410AF1EE82
:104E600010FA0DDD30EE020AB4EE410AF1EE10FA4E
:104E700006DD30EE020AB4EE410AF1EE10FAE3DC90
:104E80009FED632AB4EE420AF1EE10FA1EDA9FEDAE
:104E9000613A00BF30EE030AB4EE420AF1EE10FAB6
:104EA00014DA30EE030AB4EE420AF1EE10FA0DDA2B
:104EB00030EE030AB4EE420AF1EE10FA06DA30EEF2
:104EC000030AB4EE420AF1EE10FAE3DB95ED073A7D
:104ED00030EE430AB4EE410AF1EE10FA1EDD9FED0A
:104EE0004B3A00BF30EE030AB4EE410AF1EE10FA7D
:104EF00014DD30EE030AB4EE410AF1EE10FA0DDDD6
:104F000030EE030AB4EE410AF1EE10FA06DD30EE9F
:104F1000030AB4EE410AF1EE10FAE3DCB4EE420A01
:104F2000F1EE10FA1EDA9FED3B3A00BF30EE030AB5
:104F3000B4EE420AF1EE10FA14DA30EE030AB4EEDF
:104F4000420AF1EE10FA0DDA30EE030AB4EE420A2C
:104F5000F1EE10FA06DA30EE030AB4EE420AF1EE90
:104F600010FAE3DB9FED2C3A20EE033A83EE011AB0
:104F700094ED023AB4EE431AF1EE10FA02DDB0EE0F
:104F8000431A08E0B1EE433AB4EE431AF1EE10FAD8
:104F9000B8BFB0EE431AB0EEC00A80EE020A94ED3C
:104FA000013AB7EE004A9FED1D5A30EE040A20EE9A
:104FB000032A23EE050AB4EE402AF1EE10FAB4EE0D
:104FC000448AB8BFB0EE402AF1EE10FA0EDAB0EE25
:104FD000080A88EE000A20EE022AB1EE040AB4EEB6
:104FE000402AF1EE10FAB8BFB0EE402AB6EE000A41
:104FF00021EE001A32EE410A71EE020ABDEC028B7C
:10500000BDE8B040FFF7A2BEDB0F4940DB0FC9C0CF
:10501000DB0F49C0DB0FC940000034439A99993E29
:105020000000000010B52DED028B40F23400C2F2FA
:10503000000090ED000A40F2380040F2D404C2F2C1
:1050400000009FED2B1AC2F2000490ED004A94ED8F
:10505000012A94ED023A20EE010A24EE011A40F2F0
:105060004C0032EE002AB2EE040A33EE011AC2F20C
:10507000000082EE005A81EE003A90ED080A9FEDA2
:105080001D4A9FED1D6A20EE040A80EE060A94ED8B
:10509000034A94ED046A84ED012A84ED021AB6EE07
:1050A000002A35EE444A33EE466A34EE061A84EDA1
:1050B000035A84ED043A21EE028A84ED070A00F0D7
:1050C00051FA94ED052A28EE001A94ED070A31EE04
:1050D000021A84ED051A00F0EDFA94ED061A28EE96
:1050E000000A30EE010A84ED060ABDEC028B10BD09
:1050F0000AD7233CDB0F49400000344340F2340020
:10510000C2F2000040F2700290ED001AC2F20002FA
:1051100092ED094A30EE413A82ED060A9FED550ABA
:1051200033EE444A84EE005A82ED071A92ED0A1AD1
:1051300023EE002A32EE011A9FED4F2A9FED4F4ACF
:10514000B4EE421A82ED083AF1EE10FAC8BFB0EEA2
:10515000421AB4EE441AF1EE10FAB8BFB0EE441A97
:1051600092ED036A92ED047AD2ED051A82ED0A1AE5
:1051700027EE011A26EE036A36EE011A21EE856A41
:1051800092ED0C5A36EE011AB4EE451AF1EE10FA11
:1051900082ED0B1AC4BF82ED0B5AB0EE451A92EDA8
:1051A0000D5A40F23800B4EE451AF1EE10FABCBFC9
:1051B00082ED0B5AB0EE451AC2F2000090ED005A93
:1051C00082ED093A30EEC53A82ED125A92ED155A47
:1051D00092ED147A23EE006A36EE055A33EE476AF2
:1051E00086EE000AB4EE425AC2ED110A82ED133A7D
:1051F000F1EE10FAC8BFB0EE425AB4EE445AF1EEE6
:1052000010FAB8BFB0EE445A92ED0E2A92ED0F4A52
:1052100092ED106A24EE054A22EE032A32EE044A89
:1052200026EE000A92ED172A30EE040AB4EE420A86
:1052300082ED155AF1EE10FA82ED160AC4BF82ED26
:10524000162AB0EE420A92ED182ABDEEC11AB4EE4B
:10525000420AF1EE10FABCBF82ED162AB0EE420A05
:10526000BDEEC00A11EE100A10EE101A82ED143ACB
:10527000FEF746BC0AD7233C00007A4400007AC4FB
:1052800040F27000C2F2000090EC020AFFF736BF55
:105290004100080218BF04200A0E18BF40F00100A8
:1052A0004FF07F4232EA010108BF40F002000128BE
:1052B00008BF05207047000070B54FF068422DED23
:1052C000048BF0EE408A18EE900AB0EE608A18EE79
:1052D000101A02EB4003B3F1654F3CBF02EB4102F1
:1052E000B2F1654F7DD200BFC0F3C753C1F3C752BF
:1052F0009A1A1B2A09DD10F0004F14BF9FED830A94
:105300009FED830ABDEC048B70BD12F11A0F36DAE3
:1053100011F0004F09D010F0004F0CBF9FED7D0A37
:105320009FED7D0ABDEC048B70BD88EE889A19EE66
:10533000100AFFF7ADFF042808BF00F091FA18EE3D
:10534000900AFFF7A5FF054618EE100AFFF7A0FF29
:10535000044619EE100AFFF79BFF042D18BF052D18
:1053600008D1042C18BF052C04D1002804BF02204A
:1053700000F038FBB0EE490ABDEC048B70BD420072
:10538000B2EB410F3AD910F0004F19BFDFED630ABD
:105390009FED630ADFED630A9FED630AB0EE481AE2
:1053A0000A46B1EE688A80F00041F0EE418A10466C
:1053B0000A1A5200B2F1807F34D2484010F0004FF8
:1053C000DFED5A1A9FED5A2A1DBFBEEE001A70EE8D
:1053D000E10A30EE420AB6EE001A08BF70EEA10AEA
:1053E00000E040E008BF30EE020AB0EE682A01EEAD
:1053F000482A08EE818AC2EE081A15E011F0004F23
:1054000004BF9FED4C0AF0EE400AD1D010F0004FDF
:1054100019BFDFED490A9FED490ADFED490A9FED0B
:10542000490AC5E7C8EE881A21EEA11A9FED462A5F
:10543000DFED462A41EE022A9FED452A01EE222A9F
:10544000DFED442A41EE022A9FED432ABDEC048B96
:1054500001EE222A21EE811A01EE020A30EE210A23
:1054600030EE200A70BD4FF07F42B2EB400F28BFF4
:10547000B2EB410F09D2F0EE480AB0EE680ABDEC7B
:10548000048BBDE8704000F0E0B940EA01035B0026
:1054900008BF41F0FF410BD0B2EB400F08BFB2EBA9
:1054A000410F08D120F0804008EE900A21F08041A1
:1054B00008EE101A18E7B2EB400F12BF5FEA410383
:1054C00040F0FF4001F000413FF40EAFB2EB410F5E
:1054D00012BF5FEA400200F0004041F0FF413FF49C
:1054E00003AF4A0092EA40033FF5FEAE002AACBF8C
:1054F0009FED1A0A9FED1A0A68EE808A28EE008A4C
:1055000018EE900A18EE101AEEE60000DB0FC9BF85
:10551000DB0FC93FDB0F4940DB0F49C00000C9BFAB
:1055200022AAFDB90000C93F22AAFD390060ED3E64
:10553000C30ACE3700000000000049C022AA7DBA8D
:105540000000494022AA7D3A2DAD65BD8FB8D53DFA
:105550000FB511BE61C84C3EA8AAAABE0000804F7C
:105560000000802F10EE101A08B5444A6846B2EBCE
:10557000410F28D94FF0E640B0EB410F94BF002017
:105580004FF0FF3000900098002861DB60EE000AC9
:1055900010F0010F45D010F0020FDFED391A9FED2A
:1055A000391A00EEA11ADFED381A40EE811A21EE09
:1055B000A01AF0EE400A40EE010A08BFF1EE600AC0
:1055C000B0EE600A08BD314B21F0004293423CD955
:1055D00011F0004FDFED2E0A20EE201ADFED2D0A2C
:1055E00019BF31EE601A71EE200A31EE201A71EE09
:1055F000600ABDEEE01A11EE100A9FED271A00F0C6
:10560000030000EEC10A9FED251A009000EEC10ACA
:105610009FED231A00EEC10A9FED221A00EEC10A87
:10562000B1E79FED211A9FED210A10F0020F00EE65
:10563000810A9FED1F1A00EE801AB7EE000A00EEF5
:10564000810A18BFB1EE400A08BD00F011F99AE7CF
:1056500010EE100A4000B0F17F4F3CBFB7EE000AD9
:1056600008BD07D14FF0010000F0BCF9BDE80840CB
:1056700000F0EEB8BDE8084000F0E4B8B61F927E36
:10568000336D4CB9DA82083CA0AA2ABE490E4946BD
:1056900083F9223F0000004B0000C93F00A0FD3904
:1056A0000020A2331A61342CB93AB2BACA9F2A3DFB
:1056B000DDFFFFBE00B510EE101A2DED028B81B09C
:1056C000524A6846B2EB410F2ED94FF0E640B0EB9C
:1056D000410F94BF00204FF0FF3000900098B0EED3
:1056E000408A00286ADB10F0010F4BD068EE080AF0
:1056F0009FED471A9FED470A00EE810A9FED461A7B
:1057000010F0020F00EE801AB7EE000A00EE810AD8
:1057100002BF01B0BDEC028B00BD00BF01B0B1EE15
:10572000400ABDEC028B00BD3C4B21F0004293428D
:1057300041D911F0004FDFED3A0A20EE201ADFEDDB
:10574000390A19BF31EE601A71EE200A31EE201AC3
:1057500071EE600ABDEEE01A11EE100A9FED321AEA
:1057600000F0030000EEC10A9FED301A009000EE39
:10577000C10A9FED2F1A00EEC10A9FED2E1A00EE0E
:10578000C10AABE728EE080A9FED2B1ADFED2B0AC2
:1057900010F0020F40EE010A9FED291A00EE201AC8
:1057A00061EE000AB0EE480A08EE200AB6D101B058
:1057B000BDEC028B00BD00F05BF88FE718EE100A1D
:1057C0004000B0F17F4F0DD218EE100AFFF760FDD8
:1057D000042808BF00F044F8B0EE480A01B0BDEC60
:1057E000028B00BD09D1012000F0FCF801B0BDEC36
:1057F000028B5DF804EB00F02BB801B0B0EE480A64
:10580000BDEC028B5DF804EB00F01CB8B61F927E75
:10581000B93AB2BACA9F2A3DDDFFFFBE490E4946DA
:1058200083F9223F0000004B0000C93F00A0FD3972
:105830000020A2331A61342C336D4CB9DA82083C53
:10584000A0AA2ABE30EE000A704730EE200A704748
:10585000DFED020A80EEA00A7047000000000000A1
:105860009FED020A20EE000A7047000000000010C1
:105870002DE9F0014FF07F42B2EB410F9FBF4FF097
:10588000FF310160BDE8F00170474FF0004242EA8D
:105890000123C1F3C752783A551112F01F0C434C43
:1058A000CCF120067C44C1F3C752A2F178024FEA42
:1058B000621204EB820254F8254008BFD2E9015677
:1058C00012D0556804FA0CF425FA06F73C439768A1
:1058D00005FA0CF527FA06F8D26807FA0CFCF24034
:1058E00045EA08054CEA0206A4FB034CA5FB03525B
:1058F000A6FB03631D449D4234BF012600261319F5
:10590000334416B1934202D903E0934201D20122FB
:1059100000E00022624402F1200C9206DC0C42EA14
:10592000443200EE102A5B03DFED210AF8EEC01AC4
:1059300000EE103A4FEA9C1C11F0004FB8EE400AFE
:10594000C0F800C020EE201A00EE105ADFED190A50
:10595000B8EE400A20EE200A71EE810A70EE800A4D
:1059600010EE902A02F500626FF30B0200EE902A0F
:1059700070EEE11A31EEC11ADFED101A30EE411A65
:105980009FED0D0A20EE800A01EE210A9FED0C1A10
:1059900000EE810A04BFBDE8F0017047CCF18051F0
:1059A0000160BDE8F001B1EE400A70475801000007
:1059B000000000360000802C22AAFD29DB0FC92F31
:1059C0000000C92F02E008C8121F08C1002AFAD13E
:1059D00070477047002001E001C1121F002AFBD16F
:1059E0007047000001490860704700000000002077
:1059F00030380A2801D2012070470020704700008B
:105A0000000000006E83F9A22915444ED15727FCEF
:105A1000C0DD34F5999562DB4190433CAB6351FEA8
:105A2000DDDDDDDDDCBBBBDDDDDDDDDDDDDDDDDDEB
:105A3000988888888888888877777777778888882B
:105A400085555556666666666666666666688888C3
:105A50008333333222222222222222222228888DBC
:105A6000000000000000000001020304060708090E
:105A700000000000010203040006101600061016C4
:105A8000A05A00080000002020000000C4590008AF
:105A9000C05A000820000020480E0000D459000819
:105AA0000000000001000000100000000000003FA6
:105AB00000002041000070420024F40000000000BB
:040000050800018965
:00000001FF
