:020000040800F2
:10000000901500209D01000809630008ED490008D3
:1000100049590008751100082582000800000000F9
:10002000000000000000000000000000C571000892
:100030002D12000800000000796F000811790008F7
:10004000B7010008B7010008B7010008B7010008B0
:10005000B7010008B7010008B7010008B7010008A0
:10006000B7010008B7010008B7010008B511000882
:10007000C1110008CD110008B7010008D91100080E
:10008000E5110008F1110008B7010008B7010008E8
:10009000B7010008B7010008B7010008B701000860
:1000A000B7010008B7010008B7010008B701000850
:1000B000D1790008B7010008B7010008B7010008AE
:1000C000B7010008B7010008B7010008B701000830
:1000D000B70100084D8100085981000865810008BA
:1000E000B7010008B7010008B7010008B701000810
:1000F000B7010008B7010008B7010008FD110008AA
:10010000B7010008B70100083D7A0008B7010008F0
:100110008D7B0008997B0008B7010008B701000833
:10012000B70100080912000815120008B7010008FD
:10013000B7010008B7010008B7010008B7010008BF
:10014000B7010008B7010008B7010008B7010008AF
:10015000B7010008B701000821120008B701000824
:10016000B7010008B7010008B7010008B70100088F
:10017000B7010008B7010008B7010008000000003F
:10018000B7010008B7010008DFF80CD000F0ECFD63
:1001900000480047B98700089015002006488047AE
:1001A00006480047FEE7FEE7FEE7FEE7FEE7FEE75C
:1001B000FEE7FEE7FEE7FEE7BD79000889010008DB
:1001C0002DE9F05F0546002092469B46884606468C
:1001D000814640241BE0284641464746224600F01F
:1001E00061FB53465A46C01A914110D31146184636
:1001F000224600F048FB2D1A67EB01084F462246C5
:100200000120002100F03FFB17EB00094E41201EAA
:10021000A4F10104DFDC484631462A464346BDE8E6
:10022000F09FCAB2401E10F8011F8A4202D0002976
:10023000F9D10020704700000FB400B58DB010A9AF
:1002400009900B9000914FF0FF300A9000200C9025
:1002500005480690054807906A4609A80F9900F0DE
:1002600045FB0DB05DF814FB0909000827090008DB
:100270002DE9FF5F1D464FF0FF3BD5E90146914652
:100280005F464FF00008A9697F1C01988847296ADA
:10029000824688470028F6D1BAF1FF3F0CD024F4FB
:1002A000C064002E19DD600614D5BAF12B0F09D0F9
:1002B000BAF12D0F0ED103E0584604B0BDE8F09F0F
:1002C00044F48064A9697F1C01988847761E8246A1
:1002D000002E02DDBAF1300F03D0B9F1000F26D0A5
:1002E00032E0A969761E44F400747F1C01988847A7
:1002F0008246002E05DDBAF1780F06D0BAF1580F0C
:1003000003D0B9F1000F10D01EE0B9F1000F02D0F8
:10031000B9F1100F18D1A969761E24F400747F1C5E
:10032000019888478246102002E0082000E00A2059
:10033000814609E008FB0908A969761E44F40074A7
:100340007F1C019888478246002E05DD49465046AD
:1003500000F0B8FA0028EDDAE96901988847A005AD
:1003600002D46FF00100A8E7E00725D1600613D59D
:10037000600502D5C8F1000000E0404629680A1D6A
:100380002A600968220501D5087015E0220701D509
:10039000088011E008600FE02868011D29600068EE
:1003A000210502D580F8008006E0210702D5A0F8DB
:1003B000008001E0C0F8008038467EE72DE9FF4F5D
:1003C000087883B09946FF2805D0491C2D2804D011
:1003D0000024002008E000200BE00124F9E700EBF6
:1003E000800003EB4000491C0B78FF2BF7D104B1D0
:1003F000404200230293147819461D462D2C01D04B
:100400002B2C04D1521C2D2C13D000240294AA466C
:100410001478FF2C0FD00A25A3FB057801FB05817A
:100420004FF0000C03FB0C11521CE3194AEB0101C5
:10043000EEE70124EAE7814453EA010002D019F50E
:10044000C87F06DA03980021C0E9001107B0BDE8B3
:10045000F08F0025AE4E2F46DFF8B882184600F028
:1004600046FCCDE90001B9F1000002DAC9F100044F
:1004700000E004460023A74A1AEB030B42EB045AA0
:1004800012E0E00707D02A4633463846414600F0DE
:1004900045F9074688462A4633461046194600F075
:1004A0003DF905460E466410002CEAD1DDE9000155
:1004B000B9F1000F5A46534606DA00F0A9FB3A4656
:1004C000434600F0A5FB05E000F028F93A46434614
:1004D00000F024F9029A0AB181F00041039AC2E9BE
:1004E0000001B3E72DE9FF4F1F468DB0D7E9014664
:1004F0004FF0FF382E2045464FF000090B90B969A8
:100500006D1C0E988847396A824688470028F6D1C4
:10051000BAF1FF3F0AD024F4D064002E11DDBAF105
:100520002B0F08D0BAF12D0F0BD102E0404611B0CD
:100530008DE744F48064B9696D1C0E988847824643
:10054000761E6946600501D52D2000E02B208DF830
:10055000000001F1010B0DF1200809E0B9696D1CE3
:100560000E98884782460F9844F40074761E056002
:10057000002E02DDBAF1300FF0D00B998A453ED142
:1005800044F0800406E00F99681CA9F1010944F4C5
:1005900000740860B9696D1C761E0E988847824603
:1005A0003028F0D02BE00B998A4505D1200603D4E2
:1005B00044F08004761E18E0504609F097FC08B31A
:1005C0000DF11302761EAAF1300044F40074934535
:1005D00006D20BF8010B200607D5A9F1010003E0B4
:1005E000200602D409F101008146A00502D50F9929
:1005F000681C0860B9696D1C0E9888478246002EF9
:10060000D1DC53E0002E51DDBAF1650F02D0BAF112
:10061000450F4BD1A00549D5B9696D1C24F4407430
:10062000761E0E9888478246002E0CDD2B2804D0BB
:10063000BAF12D0F07D144F48074B9696D1C0E987E
:1006400088478246761EE00501D52D2100E02B214A
:1006500008F8011BCDF82C8021E00DF12901761E50
:1006600044F4007488450CD2AAF1300010F0FF0069
:1006700088F8000002D10B99884509D908F10108D2
:1006800006E0E00501D5244801E042F20F70814602
:10069000B9696D1C0E98884782460F980560002E38
:1006A00004DD504609F022FC0028D6D1F9690E98E5
:1006B0008847FF208BF8000088F800000020069093
:1006C00007904B466A4608A906A8FFF777FEA005E3
:1006D00002D46FF001002AE714F0240F0AD0E007DB
:1006E00014D1DDE906123868031D3B600068C0E9DB
:1006F00000120BE0DDE9060100F093F80146E00787
:1007000004D13868021D3A600068016028460EE78F
:10071000000014400000F03FF1D8FFFF2DE9FE4F2C
:1007200081EA030404F0004421F0004100944FF0FA
:10073000000B23F0004350EA01045ED052EA0304A8
:100740005BD0C3F30A54C1F30A552C44A4F2F3342A
:100750000194A0FB0254C1F3130141F48011C3F3CF
:10076000130343F4801301FB024400FB034E840A8D
:10077000970A44EA815447EA8357A4FB0768029525
:100780008D0A05FB07854FEA932C04FB0C542705C3
:10079000029D4FEA065847EA1637B5EB08056EEB9F
:1007A000070C870E920E47EA811742EA8312A7FBD5
:1007B0000201B6EB0B0164EB00042B0D43EA0C3392
:1007C0005E1844EB1C50DA465146E7FB0201C5F3C4
:1007D00013044FEA0B3343EA14534FEA0432019CEB
:1007E00043EA0603A4F10C040294009CCDE900B492
:1007F00000F019F903B0BDE8F08F00200146F9E7D9
:100800000EB5C10F80EAE0700844CA07002140F22B
:1008100033438DE80E000A460B4600F004F903B09E
:1008200000BD01F0004330B421F0004150EA010264
:1008300006D00A0DA2F56072C1F31301002A02DC92
:1008400030BC00207047440F44EAC104C100E018E6
:1008500030BC00EBC25000F077B830B50B46014613
:1008600000202022012409E021FA02F59D4205D34F
:1008700003FA02F5491B04FA02F52844151EA2F1F9
:100880000102F1DC30BD202A04DB203A00FA02F13B
:10089000002070479140C2F1200320FA03F319436E
:1008A00090407047202A04DB203A21FA02F0002110
:1008B000704721FA02F3D040C2F120029140084370
:1008C000194670473A2800D2303820F02002412AD9
:1008D00001D3A2F13700884201D34FF0FF307047B7
:1008E000026811441378016018467047D1600449CA
:1008F00051610449116200211161114600F064BA8E
:10090000E1080008BD0D0008426842B1016811F815
:10091000013B23B1521EC0E9001218467047012165
:10092000C160881E704742685AB1C368016843B904
:1009300083688B4205D0491E521CC0E9001200207A
:1009400070474FF0FF3070470029A8BF7047401C28
:10095000490008BF20F00100704710B4B0FA80FCD5
:1009600000FA0CF050EA010404BF10BC704749B112
:10097000CCF1200421FA04F411FA0CF118BF012182
:1009800021430843A3EB0C01CB1D4FEA00614FEA62
:10099000102042BF002010BC704700EBC350104431
:1009A0000029A4BF10BC7047401C490008BF20F0BC
:1009B000010010BC7047F0B400F0004221F000418B
:1009C00020F00040CE0DC30DC1F3160141F400012B
:1009D000C0F316004C42154640F40000761E09E0B4
:1009E00010EB440002D582F0004240428842F7D822
:1009F00040005B1EB342F9DA18B1F0BC0021FFF7EA
:100A0000ACBF2846F0BC704710B5141E73F100044B
:100A100008DA401C41F1000192185B411A4301D1F0
:100A200020F0010010BD2DE9F04D92469B4611B11A
:100A3000B1FA81F202E0B0FA80F220329046FFF77C
:100A400022FF04460F4640EA0A0041EA0B015346E2
:100A50005A46084313D0114653EA010019D0C8F191
:100A600040025046FFF71EFF05460E4650465946C7
:100A70004246FFF708FF084305D0012004E0204666
:100A80003946BDE8F08D0020054346EAE0762C4368
:100A900037430A986305E40AA0EB08000022FD0A28
:100AA00044EA47540A3002D500200146E9E701052F
:100AB00010196941DDE9084500196941BDE8F04DAB
:100AC000A2E72DE9FE4F804681EA0300C00F0C46E5
:100AD000009021F0004123F00045B8EB0200A9414D
:100AE00005D24046214690461C460B46024623F05E
:100AF0000040104347D0270DC7F30A00C3F30A5143
:100B00000290401A019040286BDAC3F3130040F4BE
:100B1000801B0098924620B10023D2EB030A63EBBE
:100B20000B0B01985946C0F140025046FFF7ABFE4F
:100B300006460D4650465946019A00F02DF910EB35
:100B400008006141002487EA115284EAE7731A43DE
:100B500040D0009A62B3019A012A4FEA075215DC8D
:100B6000001B61EB02014FF0004202EA0752CDE99F
:100B70000042001C41F5801132462B46FFF753FF1F
:100B800003B0BDE8F08F40462146F9E7001B61EB5A
:100B90000201001C41F5801300185B412018A2F5EA
:100BA000001747EB030140EAD570B6196D4111E01B
:100BB0006D084FEA360645EAC0754FEA0752001B3A
:100BC00061EB0201001C41F5801149084FEA300039
:100BD0000019514132462B4603B0BDE8F04FFFF7F4
:100BE00013BF0098012240000023D0EB020263EB08
:100BF000E073009821464FEAE074B8EB000061EB27
:100C00000401E9E783F000435BE781F0004158E726
:100C10002DE9F04D81EA030404F0004B21F000457A
:100C200014464FF0000A23F0004150EA050220D09C
:100C300054EA01021DD0C5F30A570246C5F3130357
:100C4000C1F31300C1F30A5640F4801543F4801336
:100C5000A7EB0608101BD64608F2FD3873EB05001B
:100C600002D308F1010801E092185B41B8F1000FCE
:100C700003DA00200146BDE8F08D00204FF480111A
:100C8000064684460EE0171B73EB050705D3121BBF
:100C900063EB050306434CEA010C49084FEA3000B8
:100CA00092185B4150EA0107EDD152EA030012D0DD
:100CB00082EA040083EA0501084305D0101BAB411A
:100CC00006D20122002306E000224FF0004302E09A
:100CD0006FF0010253101AEB06004CEB085110EBB9
:100CE0000A0041EB0B01BDE8F04DFFF78DBE0EB5DC
:100CF00040F2334202920022CDE900221346FFF770
:100D000092FE03B000BDC1F30A52C1F3130140F2D9
:100D1000FF3341F480119A4202DA00200146704705
:100D200040F233439A42A2F2334202DC5242FFF7CE
:100D3000B9BDFFF7A8BD000030B5041E71F1000475
:100D400004DB4FF00044404264EB0101141E73F1D8
:100D5000000405DB1C464FF00043524263EB0403E2
:100D6000994208BF904230BD1CB50948009009481F
:100D700001900546009C06E0E06840F0010394E81D
:100D8000070098471034AC42F6D3FFF701FA000091
:100D9000D4AE0008F4AE0008202A06DBCB17203AB8
:100DA00041FA02F043EAE07306E041FA02F3D04070
:100DB000C2F120029140084319467047C0B24FF477
:100DC000F05100F097B900002DE9F34F8BB04FF0D0
:100DD000000801F10C000C464FF0010B46460DF1E6
:100DE000080A01906269012101989047051E2DD0E3
:100DF000252D2CD0216A8847C0B162690121019854
:100E00009047216A88470028F7D1411E62690198FE
:100E1000904700E0761CA1690B988847216A8847B3
:100E20000028F7D1E1690B988847DBE7A1690B98A7
:100E300088470746A84201D1761CD3E7E1690B98A1
:100E400088477F1C02D1B8F1000F6FD046E1002720
:100E500062693D463946019890472A2804D1626963
:100E60000121019890470125DFF8849262690121F0
:100E700001989047A0F130010A290AD24F45E5DCDC
:100E800007EB870100EB4107303FDFD445F0100549
:100E9000ECE7E90601D46FF000476C280AD04C2833
:100EA00014D0682815D06A280DD074281CD07A2850
:100EB0001AD01DE062690121019890476C2802D088
:100EC00045F0040514E045F002050DE045F020056D
:100ED0000AE06269012101989047682802D045F034
:100EE000080505E045F40065626901210198904715
:100EF000C4E9015765283DD019DC58287AD00CDCAC
:100F0000452837D004DC252826D0412831D131E0CE
:100F100046282FD047282CD12CE05B2877D0612899
:100F200028D063287CD0642823D15AE0D0E06F28F1
:100F300048D008DC66281DD067281BD0692821D03E
:100F40006E2816D127E0702845D0732868D0752800
:100F500047D078280DD14DE0A1690B988847054608
:100F600025283FF469AFE1690B9888476D1C3FF471
:100F70006AAFB3E023466A466FF001000B99FFF7B2
:100F8000B1FA9EE045F040006060A80723464FF0AC
:100F9000000236D43EE0E8077FF447AF2068011D29
:100FA00021600068290501D506701BE7290701D5D6
:100FB000068017E7A90703D5F117C0E9006111E71B
:100FC00006600FE745F040006060A80723464FF039
:100FD000080216D41EE040F60E0125EA010060600A
:100FE00016E045F040006060A80723464FF00A0273
:100FF00007D40FE045F040006060A80708D52346FD
:1010000010226FF001000B99AFF3008059E007E068
:10101000234610226FF001000B99FFF729F950E0E9
:101020004FF000094F464B46632802D05B2806D09C
:1010300040E0E80601D40120A06001273AE062699F
:101040000121019890475E2805D14FF0010962699E
:10105000494601989047216939B900210A4653460B
:1010600043F82120491C0829FADBB0B3216969B98A
:10107000C11700EBD16253110AEB830122F01F026A
:10108000821A01200B68904003430B6062690121C2
:10109000019890475D28E8D1B9F1000F09D00020F0
:1010A000514651F82020D24341F82020401C082806
:1010B000F7DB02AB224600976FF001000B99AFF30C
:1010C000008000280CDA401C08D1BBF1000F05D0CD
:1010D0004FF0FF300DB0BDE8F08FFFE74046F9E775
:1010E000E90701D108F1010806444FF0000B79E649
:1010F000CCCCCC0C7F2801D9002208E0064A02EBB8
:101100005002C007127800D1120902F00F0201202C
:10111000904008407047000054A6000870B58C1835
:1011200010F8015B15F0070301D110F8013B2A11FB
:1011300006D110F8012B03E010F8016B01F8016BE8
:101140005B1EF9D12B0705D40023521E0DD401F8E4
:10115000013BFAE710F8013BCB1A921C03E013F8AD
:10116000015B01F8015B521EF9D5A142D8D30020E2
:1011700070BD0000FEE700009FED0B1A9FED0C2AEA
:1011800020EE010A9FED091A20EE822A80EE010A64
:1011900082EE011A40F2A410C2F2000080ED050AAE
:1011A00080ED061A704700BFE15CA3410000704269
:1011B000E15CA3C140F23070C2F2000000F0C0BA9E
:1011C00040F67010C2F2000000F0BABA40F270604F
:1011D000C2F2000000F0B4BA40F2D060C2F20000E7
:1011E00000F0AEBA40F6B000C2F2000000F0A8BABB
:1011F00040F61010C2F2000000F0A2BA40F2907067
:10120000C2F2000000F09CBA40F6D010C2F200001A
:1012100000F096BA40F2F070C2F2000000F090BA0E
:1012200040F65000C2F2000000F08ABA7047000099
:1012300072B600BFFEE70000F0B581B040F6F4677B
:10124000044643F60C46C2F200070020C4F2020630
:10125000F86100F0C9FE3168C9031BD43068C007CB
:101260001CBF01203060306810F0F20F2ED03068C3
:10127000C00633D43068800639D4306840063FD485
:101280003068000645D4306880074BD4012001B097
:10129000F0BD00BFF4B10546601C0DD13068C0033D
:1012A000DCD53068C00344BF30685FEAC030D5D5B4
:1012B0003068C003F2D4D1E700F096FE401BA04294
:1012C00008D83068C003F7D4C8E700BF002001B0D9
:1012D000F0BD00BF032001B0F0BD00BFF86940F0D1
:1012E0001000F8611020306030688006C5D5F869BC
:1012F00040F00800F8612020306030684006BFD51B
:10130000F86940F00400F861402030603068000661
:10131000B9D5F86940F00200F8618020306030688B
:101320008007B3D5F86940F02000F86102203060F2
:10133000012001B0F0BD000070B581B00022009224
:1013400090F83C20012A03D10221084601B070BD6B
:101350000E6801220A2E80F83C2009D3B2B2520056
:10136000D0F800E012FA86F21E3A0EF10C0305E006
:10137000D0F800E006EB46020EF110034FF0070C28
:101380001D680CFA02F4A5431D608D681C6805FAFF
:1013900002F222431A60496806290FD801EB810145
:1013A0004A1F71461F2351F8345F934025EA030317
:1013B0000B60B3B203FA02F214E000BF01EB810349
:1013C0000C29B2B204D8714651F8304F233B03E0E8
:1013D000714651F82C4F413B1F259D4024EA0505DD
:1013E0009A400D600B6842F2043CC4F2010C1A43AF
:1013F000ACF541739E450A603BD1122E06D1DCF854
:10140000001041F48001CCF8001032E026F0010118
:1014100010292ED1DCF80010102E41F40001CCF878
:10142000001026D140F2AC01C2F2000109684DF66D
:101430008362C4F21B32A1FB0212910C01EB810109
:10144000490000910099A1B10099013900910099DA
:1014500079B1009901390091009951B10099013990
:101460000091009929B10099013900910099002952
:10147000EAD1002180F83C10084601B070BD0000A0
:10148000002804BF0120704710B50446006C0028F6
:101490003ED0206CC00645D4206C41F20211884336
:1014A000023042F204312064C4F20101086820F4E1
:1014B000403008600A6894E809101A43D4F810E034
:1014C0000A604168012321F4807141604168C0F6DF
:1014D000007341EA0E214160416821F04071416092
:1014E000416841EA0C014160816821F4006181603A
:1014F000E168826811438160A16A8268994222F0A2
:1015000070628260826813D122F0405119E000BFFE
:10151000204600F065F80020606484F83C00206CF0
:10152000C006B9D50120002184F83C1010BD00BFD1
:1015300011438160816821F040518160E16A8268D5
:1015400011438160816821F0020181608168227EFF
:1015500094F8203041EA42018160416883B141F44E
:101560000061416041684EF2000221F46041416037
:10157000616ACFF6FF72436802EB4131194301E023
:1015800021F400614160C16A40F2000C21F4700155
:10159000C162E2696169CFF6F07CC36A0CEB02526A
:1015A0001A43C262826822F40072826094F830208A
:1015B000836843EA42228260826822F48062826009
:1015C000826842EA8121816000206064216C0122EE
:1015D00062F301012164002184F83C1010BD000079
:1015E00080B586B0006842F20012C4F20102002108
:1015F0009042CDE90411CDE90211019120D042F2CF
:101600000001C4F2010188423ED1002043F63001BE
:101610000090C4F202014A6942F480724A614A6948
:1016200002F480720092009A0090086840F0010075
:101630000860086800F00100009000980C2018E095
:1016400043F630000091C4F20200426942F4007295
:101650004261426902F400720092009A00910168AE
:1016600041F001010160006800F001000090009865
:101670000820019003200290002003900020C4F273
:10168000020001A900F0CCFB06B080BD70B5866DEC
:10169000044600F0A9FC94F83510022928D105462B
:1016A0002068216C026822F016020260426922F072
:1016B0008002426109B9A16C19B1016821F00801E9
:1016C0000160016821F00101016000BF206800682D
:1016D000C00715D000F088FC401B0628F6D3202058
:1016E0006065032084F83500002184F8341070BD53
:1016F000802060650120002184F8341070BD00BF97
:10170000E06D3F2101FA00F0B060012084F835005F
:101710000020002184F8341070BD000090F83510CE
:10172000022909D1052180F835100068016821F0EF
:101730000101016000207047802141650120704750
:10174000F0B581B004460020009040F2AC00C2F237
:1017500000000268D4E9166048F2B5133768082122
:10176000C1F64E3381403942A2FB03250CD02268DA
:1017700013685B0708D5136823F004031360B16096
:10178000616D41F00101616501218140394208D05C
:1017900022685269120604D5B160616D41F0020100
:1017A000616504218140394208D02268126892079D
:1017B00004D5B160616D41F0040161651021814083
:1017C000394217D020680268120713D5B160026849
:1017D0000168520308D4C90508D4016821F0080142
:1017E0000160216C21B905E008033FD4216C09B1E7
:1017F00020468847E16D202000FA01F23A4241D0AC
:1018000020680368DB063DD5B26094F83530026885
:10181000052B1BD122F016020260426922F08002E1
:101820004261226C0AB9A26C1AB1026822F0080265
:1018300002603F208840B060012084F83500216DAF
:101840000020002984F8340052D157E00168520387
:1018500010D4C90512D4016821F0100101600120E3
:1018600084F83500002084F8340007E0A16C0029DA
:10187000BED1BFE7080301D4616C00E0E16B09B1A0
:1018800020468847606DC8B3606DC0072ED0052024
:1018900084F835002068A90A026822F0010202607B
:1018A000009A01328A4200921AD80268D20717D0F1
:1018B000009A01328A42009212D80268D2070FD0F1
:1018C000009A01328A4200920AD80268D20707D0F1
:1018D000009A01328A42009202D80268D207DFD110
:1018E000012084F83500002084F83400E16C29B12F
:1018F000204601B0BDE8F040084700BF01B0F0BD90
:101900002DE9F041044600F06FFBECB105460220E2
:1019100084F835000020216884F83400086820F03D
:101920000100086021680868C00711D000F05CFB66
:10193000401B0528F6D9032520230320636584F87E
:101940003550BDE8F08100BF0120BDE8F08100BF47
:10195000086848F23F02CFF21002D4E9013500EAEC
:10196000020C04F10C0898E8C10143EA0C032B4374
:101970001843D4E9072E304338431043626A40EAE3
:101980000E00042A40EA08031CD1206BD4E90A2E79
:1019900040EA0E00184308604869BEF1000F20F0CD
:1019A000030040EA020040F0040C11D0B8F5005FDB
:1019B00036D0B8F1000F45D1022A46D0012A3BD0DB
:1019C00032B942E00B60486920F0070040EA020C9F
:1019D00001F0F8004AF6AB221038CAF6AA22A0FBA2
:1019E00002231A094AF6CC63C1F814C0C0F60003FA
:1019F0009A5C40F2FF335F284FF03F0021EA030179
:101A000000FA02F088BF0431C4E91612886000238E
:101A100001250020636584F83550BDE8F08100BFE2
:101A2000032AD5D8012540230120DFE802F0030E68
:101A3000030500BF82E700BFAEF1C070B0FA80F0CE
:101A4000400904E0032A04D3C2D1CEF30060002889
:101A5000BED0012540230120636584F83550BDE8E0
:101A6000F081000090F834C0BCF1010F04BF0220E7
:101A7000704770B54FF0010C80F834C0D0F858E0D2
:101A800090F835C0BCF1010F38D14FF0020C80F84E
:101A900035C04FF0000CC0F854C0D0F800C08468C6
:101AA000056CC06DDCF80060402C26F48026CCF874
:101AB0000060CCF804300B4604BF13460A463F21B1
:101AC00001FA00F0CCF80830CCF80C20CEF8080071
:101AD000DCF8000040F01600CCF800002DB1DCF876
:101AE000000040F00800CCF80000DCF8000040F0F6
:101AF0000100CCF80000002070BD00BF002180F87C
:101B00003410022070BD0000B0B5044600F06CFA3D
:101B1000054640F20400C2F200000078611C18BFC4
:101B2000044400BF00F060FA401BA042FAD3B0BDED
:101B30002DE9F04381B040F6F468C2F2000898F84D
:101B40001820012A04D1022001B0BDE8F08300BFB3
:101B50000546012088F818004CF250308946FFF7FE
:101B60006BFB28B1002188F8181001B0BDE8F083A4
:101B70004FF0FF30C9F80000286843F610470128ED
:101B8000C4F202071CD128693968000221F44071AF
:101B90003960396880B241F004013960396808431E
:101BA00040F4803038604CF25030FFF745FB396824
:101BB00021F00401396057F8101C89053BD452E02C
:101BC000D5E902603044864230D2F000841C00BF68
:101BD00028694FF44072C1B2032939684FEA0020E6
:101BE00021F440713960396838BF82B241EA02009D
:101BF0003860386820F078003860386820433860F2
:101C0000386840F4803038604CF25030FFF714FBF5
:101C10003968002821F07A01396047D1D5E90201FD
:101C200001360844864204F10804D1D3002057F855
:101C3000101C890517D557F8101C21F4007147F8BE
:101C4000101C57F8101C41F4006147F8101C57F89D
:101C5000101C21F4006147F8101C57F8101C41F4C7
:101C6000007147F8101C57F8101C49057FF57AAF32
:101C700057F8101C21F4806147F8101C57F8101C0D
:101C800041F4805147F8101C57F8101C21F4805182
:101C900047F8101C57F8101C41F4806147F8101CDD
:101CA000002188F8181001B0BDE8F083C9F8006081
:101CB00057F8101C8905BED4D5E7000043F6104143
:101CC000C4F20201086840F0004200200A60704738
:101CD0002DE9F04381B040F6F464C2F2000490466E
:101CE000227E012A04D1022001B0BDE8F08300BFAA
:101CF0000746012020764CF250301E460D46FFF775
:101D00009BFA28B10021217601B0BDE8F08300BF25
:101D100043F61049022FC4F2020917D0012F2BD02D
:101D2000002F3FD1D9F8000020F44070C9F800001E
:101D3000D9F80000C9F80000D9F8000040F001000F
:101D4000C9F8000085F8008043E000BFD9F8000022
:101D500020F44070C9F80000D9F8000040F4007089
:101D6000C9F80000D9F8000040F00100C9F80000EF
:101D7000C5F800802DE000BFD9F8000020F44070C5
:101D8000C9F80000D9F8000040F48070C9F80000DC
:101D9000D9F8000040F00100C9F80000A5F8008063
:101DA00017E000BFD9F8000020F44070C9F8000027
:101DB000D9F8000040F44070C9F80000D9F80000DC
:101DC00040F00100C9F80000C5F80080BFF36F8F34
:101DD0006E604CF25030FFF72FFAD9F8001021F066
:101DE0000101C9F800100021217601B0BDE8F0839F
:101DF00043F60440C4F20200C168B1F1FF3FC4BF22
:101E00000020704740F22311C4F26751016048F688
:101E1000AB11CCF6EF510160C068C00F70470000F5
:101E20002DE9F04F82B000F13E4707F1FF778605BC
:101E300046EA972741F60046C4F20206082243F616
:101E4000004EB04208BF0722C4F2010E072F38BF70
:101E50003A46002600274FF00008009209E000BF34
:101E600008F101080237B8F1100F06F1040600F07E
:101E7000A3800D68012202FA08F415EA0409EFD0E4
:101E8000D1F804B003220BF0030CACF10105BA4009
:101E9000012D6FEA020A0FD88268CD6802EA0A02B1
:101EA000BD402A4382604268A243CBF3001404FA87
:101EB00008F42243426005E0BCF1030F02D14FF069
:101EC000030C1EE0C2688C6802EA0A02BC4022438E
:101ED000BCF1020FC26014D16FF0030202EA580293
:101EE0000244D2F820C006F01C040F230D69A34061
:101EF0002CEA0303A5402B431362D1F804B00BF086
:101F0000030C02680CFA07F302EA0A021A431BF4F4
:101F1000403F0260A4D0002243F644030192C4F281
:101F200002031A684FF6084C42F480421A601A689D
:101F3000CFF6FF7C02F480420192019A28F003025E
:101F4000724452F80C3006F00C050F24AC40A34349
:101F5000009C04FA05F52B4342F80C30DEF808200B
:101F60004B6842EA090543F60C4CDC0258BF22EAF2
:101F70000905CEF80850C4F2010CDCF800209C02E0
:101F800042EA090558BF22EA0905CCF80050DEF8FC
:101F900004209C0342EA090558BF22EA0905CEF84D
:101FA0000450DEF80020DB0342EA090558BF22EAAC
:101FB0000905CEF8005053E702B0BDE8F08F0000ED
:101FC0000069084018BF012070470000426902EA1A
:101FD0000103914341EA034181617047002A08BF30
:101FE000090481617047000041F25810C2F20000FC
:101FF00000687047002804BF01207047F0B581B029
:10200000044690F83D0028B9002084F83C002046A2
:1020100000F050F9242084F83D002068016821F088
:1020200001010160016841F400410160016821F48F
:102030000041016000F064FB636848F2A16CC0F2EB
:10204000010C40F60011C0F23D0163453CBF48F26F
:102050008041C0F21E01884202D2012001B0F0BDD1
:102060004DF68361C4F21B31A0FB01122168970C6D
:10207000D1F804E04FF496762EF03F0545EA9245FC
:102080004D60774348F638160D6AC0F24106A7FB4B
:10209000067625F03F07634538BF960C721C3A431D
:1020A0000A62CA6948F2A0664CF6FF77C0F20106E0
:1020B000B34222EA07020BD801385B00B0FBF3F011
:1020C00001306FF31F30042898BF04201BE000BFCD
:1020D000A768013857B119277B43B0FBF3F00130F3
:1020E0006FF31F3070B100F5804007E003EB43034E
:1020F000B0FBF3F001306FF31F3018B100F5004072
:1021000001E000BF01201043C8610868D4E907233B
:1021100020F0C000104318430860886848F2FF327E
:1021200004F10C0790438CCF18431043A6698860D4
:10213000C86820F0FF0038433043C860086840F0AA
:102140000100086000202021206484F83D102063F5
:1021500084F83E0001B0F0BD2DE9F04383B099460C
:1021600016460F460446FFF73FFF94F83D1020291E
:1021700024D10546206800BF816989071AD5FFF779
:1021800033FF411B20681A29F6D381698907F3D5EB
:1021900000202021206384F83D1084F83E00216C4B
:1021A00041F02001216484F83C00022003B0BDE826
:1021B000F08300BF94F83C10012903D1022003B042
:1021C000BDE8F083012284F83C200368DDE90B18A8
:1021D0000A9ADB0703D1036843F001030360036835
:1021E00023F400630360212084F83D00402084F83C
:1021F0003E000020206462626185608D3946208542
:102200000020CFF6FF70E062204632464B46CDE913
:10221000008502F0EDFB18B1012003B0BDE8F083AA
:10222000208D98B9204641462A4602F045FC88B3E5
:10223000206C0428F0D12068016841F4007101602D
:10224000012003B0BDE8F0830004EBD020464146F6
:102250002A4602F0E1FD0028EAD1616A22680846B8
:1022600010F8013B1361238D6062581E2085678D35
:10227000013F678557697F07E6D50704E4D04878B2
:102280001061881C6062981E2085618D013961850E
:10229000DAE700BF2068016841F400710160202086
:1022A00084F83D00002084F83E0084F83C0003B030
:1022B000BDE8F0832DE9F04786B0006845F600419F
:1022C000C4F2000100258842CDE90455CDE902554C
:1022D000019535D045F60001C4F20001884275D061
:1022E00045F20041C4F20001884240F09980002488
:1022F00043F630050094C4F20205286801A940F0B5
:1023000002002860286800F00200009000984FF456
:10231000407001901220CDE90204032004900420B3
:10232000059040F20040C4F20200FFF779FD0094EE
:10233000286940F400102861286900F400106DE05D
:1023400043F630060095C4F20206306840F20047BA
:1023500040F0040030603068C4F2020700F004006E
:10236000009000980095306801AC40F001003060AA
:1023700030684FF0120800F00100009000984FF410
:10238000007001904FF003094FF0040A07F58060D8
:102390002146CDE90285CDF81090CDF814A0FFF7C5
:1023A0003FFD4FF48070CDE9010803A880E82006C6
:1023B000A7F580602146FFF733FD0095306940F4B2
:1023C00000003061306900F4000027E0002443F68B
:1023D00030050094C4F20205286801A940F002000B
:1023E0002860286800F00200009000984FF44060D8
:1023F00001901220CDE902040320049004200590EE
:1024000040F20040C4F20200FFF70AFD0094286980
:1024100040F480002861286900F480000090009852
:1024200006B0BDE8F087000040F2040041F2581108
:10243000C2F20000C2F2000100780A68104408608D
:102440007047000080B543F60040C4F20200016806
:1024500041F400710160016841F48061016001682C
:1024600041F480710160032000F088F8032000F03F
:1024700005F800F027F8002080BD000070B540F29C
:102480000406C2F2000640F2AC013278C2F200014A
:102490004FF47A730968B3FBF2F20446B1FBF2F130
:1024A000084600F045FC0F2C4FF0010508D838B95C
:1024B0004FF0FF3021460022002500F033F8746011
:1024C000284670BD82B0002043F640010190C4F25E
:1024D00002014A6842F480424A604A6802F480423B
:1024E0000192019A0090086840F0805008600868E6
:1024F00000F0805000900098052002B000F03EB837
:10250000002848BF704700F01F01012202FA01F1C4
:102510001C2202EAD0004EF20012CEF200028150DC
:102520007047000010B54EF60C5CCEF2000CDCF8E3
:102530000030C3F3022E8EF00704042C28BF0424BD
:10254000BEF103034FF0FF3E0EFA04F438BF002340
:10255000A14399400EFA03F39A43114300F00F028E
:1025600000F160430901043A03F564436244002822
:1025700048BF02F10C03197010BD00004EF60C515B
:10258000CEF200010A684FF6FF031A4060F30A22F8
:1025900042F0806040F0FD7008607047002804BF82
:1025A000012070472DE9F04143F60808C4F2020803
:1025B0000446D8F8F8030D4600F00700884207D219
:1025C00088F8F853D8F8F80300F00700A84277D14C
:1025D0002068810717D5410705D5D8F8001041F4C8
:1025E000E051C8F80010010705D5D8F8001041F4F3
:1025F0006041C8F80010D8F80010A26821F0F0017E
:102600001143C8F80010C00740D1D8F8F80300F013
:102610000700A84207D988F8F853D8F8F80300F063
:102620000700A8424CD12068410707D5D8F8001010
:10263000E26821F4E0511143C8F80010000708D502
:10264000D8F80000216920F4604040EAC100C8F8D1
:10265000000000F07DF8D8F800104AF2AC62C1F337
:102660000311C0F60002515C40F2AC0220FA01F105
:1026700040F20800C2F200000068C2F200021160DD
:10268000FFF7FCFE0020BDE8F08100BF6068811EFE
:10269000022907D258F8081C89015CBF0120BDE857
:1026A000F08111E0012807D158F8081C89035CBFAC
:1026B0000120BDE8F08107E058F8081C890703D421
:1026C0000120BDE8F08100BFD8F8001021F003011F
:1026D0000843C8F80000FFF787FC064641F2883738
:1026E000D8F80000616800F00C00B0EB810F8CD0CE
:1026F000FFF77AFC801BB842F2D90320BDE8F081D5
:1027000040F2AC0043F60801C2F20000C4F202013C
:10271000006809684AF2BC62C1F38221C0F6000277
:10272000515CC8407047000040F2AC0043F608011D
:10273000C2F20000C4F20201006809684AF2BC62F9
:10274000C1F34231C0F60002515CC840704700003E
:1027500010B543F60404C4F20204606800F00C01F2
:1027600042F200400829C0F2F40007D0042918BF43
:1027700010BD41F20020C0F27A0010BD216801F0C6
:102780003F02216823684902C3F3881106D4A1FBE4
:1027900000010023FDF714FD07E000BF41F2002017
:1027A000C0F27A004843B0FBF2F021680222C1F384
:1027B000014102EB4101B0FBF1F010BD002804BF64
:1027C000012070472DE9F04182B00446007843F6BD
:1027D0000006C007C4F202060CD0B06800F00C007E
:1027E000042840F081803068800303D560680028A9
:1027F00000F06A81207880071BD5B06810F00C0FBC
:1028000009D0B06800F00C00082840F0878070689C
:10281000400200F183803068800703D5E06801281A
:1028200040F052813068216920F0F80040EAC10090
:1028300030602078000713D4207840072AD4A56997
:10284000002D00F03C81B06800F00C00082840F03A
:10285000A180012D40F01081012002B0BDE8F0817F
:102860006069002840F20000C4F2472000F07E803A
:102870000121C0F8801EFFF7B7FB0546706F800787
:10288000DAD4FFF7B1FB401B0228F7D9032002B0CE
:10289000BDE8F081306C5FEAC0080AD400200190E6
:1028A000306C40F080503064306C00F0805001900B
:1028B000019847F20007C4F200073868C00547D402
:1028C000386840F480703860FFF78EFB054600BF23
:1028D0003868C0053CD4FFF787FB401B0228F7D9B6
:1028E000032002B0BDE8F081B06800F00C000828B9
:1028F00003D1706840023FF576AF6068B0F5803F65
:1029000007D0B0F5A02F40F09B80306840F48020C5
:102910003060306840F4803030609BE0E068002830
:102920005CD00020C4F2472001210160FFF75CFB6E
:10293000054600BF306880073FF574AFFFF754FBD2
:10294000401B0228F6D9032002B0BDE8F08100BF89
:10295000A068012805D0052854D1306F40F004004C
:102960003067306F40F00100306755E00021C0F85B
:10297000801EFFF739FB0546706F80077FF55CAF5F
:10298000FFF732FB401B0228F6D9032002B0BDE856
:10299000F08100BF0027C4F2472700203866FFF708
:1029A00023FB022D05460DD13068800140F1908057
:1029B000FFF71AFB401B02284FF00300F4D902B0C6
:1029C000BDE8F0813068800179D5FFF70DFB401B31
:1029D00002284FF00300F5D9F1E700BF0020C4F250
:1029E000472000210160FFF7FFFA054630688007A5
:1029F0007FF51FAFFFF7F8FA401B02284FF00300E6
:102A0000F4D9DCE7316F002821F001013167316F23
:102A100021F0040131677DD0FFF7E6FA054641F267
:102A2000883700BF306F800700F18680FFF7DCFA3F
:102A3000401BB842F6D9032002B0BDE8F08100BFC8
:102A40003168002821F480313160316821F480211F
:102A500031607BD0FFF7C8FA054600BF30688003BD
:102A60003FF5C8AEFFF7C0FA401B6428F6D9032033
:102A700002B0BDE8F08100BF7068E16900F4800237
:102A80008A4221D1216A00F03F028A421CD147F6D6
:102A9000C071626A0140B1EB821F15D1A16A4FF685
:102AA000FF73C903994300F44032A1F580318A4293
:102AB0000AD1E16A00F07060B0EB016F04D1002030
:102AC00002B0BDE8F08100BF012002B0BDE8F08196
:102AD00004F11C052FCD084340EA8210D9034FF6BC
:102AE000FF729143A1F5803140EA056008437060B0
:102AF00001203866FFF778FA044600BF306880018D
:102B0000DDD4FFF771FA001B02284FF00300F5D95E
:102B100055E700BFFFF768FA054641F2883700BF66
:102B2000306F800708D5FFF75FFA401BB8424FF0BF
:102B30000300F5D943E700BFB8F1000F3FF57FAEC2
:102B4000306C20F08050306479E600BFFFF74CFA1B
:102B5000054600BF306880037FF54CAEFFF744FAAE
:102B6000401B64284FF00300F4D928E770B538B152
:102B70000446406A30B10020206104F1140007E0EF
:102B8000012070BD6068B0F5827F03D004F11C00A5
:102B9000002101600026A66294F8510020B9204669
:102BA00084F8506000F03CF8022084F8510094E86A
:102BB0000F0001F48271056802F4044225F040051B
:102BC0000560114403F400622369114403F002021A
:102BD0006369114403F00102A369E569114403F438
:102BE0000072114405F03802256A114405F0800294
:102BF000A56A114305F4005211430160626A042181
:102C000001EA134102F0100211444160C16921F44C
:102C10000061C1610120666584F85100304670BDD5
:102C20002DE9F04786B0006843F6000240F2000844
:102C3000C4F20002C4F2020800219042CDE904115E
:102C4000CDE9021101912FD043F20001C4F201013C
:102C5000884269D1002043F630010090C4F202019D
:102C60004A694FF0300A42F480524A614A6902F4DC
:102C700080520092009A00900A6842F001020A60B5
:102C80000A6802F001020092009A0090086840F081
:102C900002000860086800F0020000900098202000
:102CA0000190404628E000BF43F630000091C4F296
:102CB000020002694FF4005A42F480420261026944
:102CC00002F480420092009A0091026842F00402ED
:102CD0000260026802F004020092009A009101680A
:102CE00041F002010160006800F0020000900098CD
:102CF0000C20019008F5006001AC4FF0020900259E
:102D0000032705262146CDF80890039504970596DC
:102D1000FFF786F808F580602146CDE901A9CDE9E5
:102D200003570596FFF77CF806B0BDE8F087000072
:102D3000411E0020B0EB116F1CBF012070474EF206
:102D40001002CEF2000251604EF62351CEF2000185
:102D5000F0230B70072190601160704770470000EE
:102D60007047000090F83C20012A04BF0220704701
:102D7000B0B501F108053CCDD1E900CE23F47C5378
:102D800022F470521A432EF4F0431A432CF4E04319
:102D90001A4324F4C0431A432A43C96922F48042E7
:102DA000036811435964002180F83C10BDE8B0402D
:102DB0000846704790F83C20012A4FF0020254D098
:102DC00010B580F83D200268D2F804E0D2F808C0BF
:102DD0000C682EF07003234341F2FF74C4F2000428
:102DE000A24253600EDC40F2FF73C4F200039A4229
:102DF00016DCB2F1804F2BD040F20043C4F2000346
:102E000024E000BF40F2FF33C4F201039A4213DC16
:102E100041F60003C4F200039A4219D0002313E0E4
:102E200040F60003C4F200039A4211D040F600437A
:102E3000C4F200030AE000BF44F20003C4F201033D
:102E40009A4205D040F20043C4F201039A4204D1F1
:102E500049682CF08003194391600121002280F819
:102E60003D1080F83C20BDE810401046704700003F
:102E7000002804BF0120704710B5044690F83D00BB
:102E800028B9002084F83C00204600F01FF80220FA
:102E900084F83D002068211D04F0D6FD012084F84F
:102EA000460084F83E0084F83F0084F8400084F82F
:102EB000410084F8420084F8430084F8440084F818
:102EC000450084F83D00002010BD00000068B0F10E
:102ED000804F18BF704780B582B00020019043F644
:102EE0004000C4F202000168002241F001010160CB
:102EF0000068002100F00100019001981C20FFF7FC
:102F000011FB1C2002B0BDE88040FFF7F9BA0000B9
:102F100090F83D1001291CBF01207047022180F864
:102F20003D10006841F2FF72C168C4F20002904295
:102F300041F00101C1600DDC40F2FF71C4F20001FB
:102F4000884215DCB0F1804F2AD040F20041C4F233
:102F5000000123E040F2FF31C4F20101884213DC9A
:102F600041F60001C4F20001884219D0002113E0AB
:102F700040F60001C4F20001884211D040F6004141
:102F8000C4F200010AE000BF44F20001C4F20101F2
:102F9000884205D040F20041C4F20101884206D1C6
:102FA000816801F00701062904BF0020704701680D
:102FB00041F00101016000207047000090F83C20C2
:102FC000012A4FF0020200F0C58080B580F83D2054
:102FD000D0F800C04FF67772DCF8083023EA02021E
:102FE000CCF808200B684F2B28DC1F2B44DD202B4E
:102FF00045D0302B43D0402B40F0AE80D1F804E0D8
:10300000C968DCF82030DCF8202022F00102CCF87E
:103010002020DCF8182022F0F00242EA011123F00F
:103020000A0242EA0E02CCF81810CCF82020DCF894
:10303000081041F0470121F0300180E06F2B27DDBF
:10304000B3F5005F48D0B3F5805F7AD0702B40F0C5
:103050008380D1E901E3C968DCF8082043EA0E0364
:1030600022F47F4243EA01211143CCF80810DCF836
:10307000081041F0770162E00BB1102B6CD1DCF845
:10308000081021F07001194341F0070157E000BF1B
:10309000502B35D0602B5FD1D1F804E0C968DCF843
:1030A0002030DCF8202022F01002CCF82020DCF8C0
:1030B000182022F4704242EA013123F0A00242EAD1
:1030C0000E12CCF81810CCF82020DCF8081041F0D3
:1030D000670121F0100132E0D1E901E3C968DCF8B1
:1030E000082043EA0E0322F47F4243EA0121114300
:1030F000CCF80810DCF8081041F480411FE000BF54
:10310000D1F804E0C968DCF82030DCF8202022F097
:103110000102CCF82020DCF8182022F0F00242EA6C
:10312000011123F00A0242EA0E02CCF81810CCF882
:103130002020DCF8081041F0570121F02001CCF8E4
:1031400008100022012180F83D10002180F83C1079
:10315000BDE88040104670470122F3E7002804BF15
:10316000012070472DE9F047044690F83D000D46D8
:1031700028B9002084F83C00204600F049F80220DD
:1031800084F83D00206844F2070281689143816021
:10319000211D04F059FC20684FF6FF788168826990
:1031A000D0F820C0D5E9003ED5E9026A43EA01091A
:1031B000AB6922EA080246EA03234FF6FC46B34312
:1031C000D5E9076742EA0A0229691A4342EA062258
:1031D00042EA01112CF0AA026B6942EA0E0241EAAE
:1031E000073142EA0312C0F80890816102620120AF
:1031F00084F8460084F83E0084F83F0084F84200DA
:1032000084F8430084F83D000020BDE8F08700000A
:1032100080B586B0006840F60042C4F2000200218A
:103220009042CDE90411CDE9021101912ED040F276
:103230000041C4F20001884255D1002043F630011C
:103240000090C4F202010A6942F002020A610A69AE
:1032500002F002020092009A00900A6842F0010215
:103260000A60096801F0010100910099C0210191F3
:103270000221CDE90210CDE904010020C4F20200D0
:1032800001A9FEF7CDFD06B080BD00BF43F63000BA
:103290000091C4F20200026942F008020261026970
:1032A00002F008020092009A0091026842F00102C6
:1032B0000260006800F00100009000980320019077
:1032C0000220CDE90201CDE904100020C4F2020081
:1032D00001A9FEF7A5FD322000210022FFF722F907
:1032E0003220FFF70DF906B080BD000080B590F8E0
:1032F0003E2090F83F3090F842E090F843C0042917
:103300000AD0B9B9012A4FF0010208BFBEF1010F7E
:1033100034D0104680BD00BF012B4FF0010208BF22
:10332000BCF1010FF5D1022180F83F1080F8431065
:1033300000681EE0012A4FF0010208BF012BE8D10E
:10334000BEF1010FE5D1BCF1010FE2D1022280F8FC
:103350003E2080F83F2080F8422080F8432091B141
:103360000068016A21F001010162016A41F0010176
:10337000016210216FF0100209E000BF022180F805
:103380003E1080F84210006801216FF00102036ACC
:103390001A400262026A114301620168002241F090
:1033A00001010160104680BD7047000070B5044601
:1033B0000068C5680669B10716D515F0020113D07B
:1033C0006FF002010161012121778069800703D03C
:1033D0002046FFF7E9FF05E0204600F08FF8204681
:1033E00000F0FEF900202077700719D515F00400D1
:1033F00016D020686FF004010161022121778069F5
:1034000010F4407F04D02046FFF7CEFF06E000BF57
:10341000204600F073F8204600F0E2F90020207703
:10342000300717D515F0080014D020686FF0080198
:10343000016104212177C069800703D02046FFF78E
:10344000B3FF05E0204600F059F8204600F0C8F927
:1034500000202077F00619D515F0100016D020684E
:103460006FF01001016108212177C06910F4407FDD
:1034700004D02046FFF798FF06E000BF204600F08A
:103480003DF8204600F0ACF900202077F00718BF87
:1034900015F0010002D1300609D412E020686FF067
:1034A00001010161204600F02DFA300609D515F022
:1034B000800006D020686FF0800101612046FFF790
:1034C0004DFC700609D515F0400006D020686FF05D
:1034D00040010161204600F033FAB00658BF70BDCC
:1034E00015F0200008D021686FF0200220460A6104
:1034F000BDE87040FFF734BC70BD000070470000AD
:1035000090F83C30012B04BF022070474FEAB20212
:10351000032A00F201812DE9F043DFE802F0033FC6
:103520007FBF00BF036840F200461C6A1A6A24F09D
:10353000020422F001021A621A46D3F804C052F8BB
:1035400018EF8F6843F48065C4F20106B54244EA7F
:10355000070405D1CF6824F00C0427F004073C438E
:103560000F68B54206D1D1E905582CF440762E43B8
:1035700046EA080C2EF073063743C3F804C09F6177
:103580004F6809695F631C629F6947F008079F6184
:103590009F6927F004079F61B2E000BF036840F213
:1035A00000481C6A1A6A24F0200422F010021A62F1
:1035B0001A46D3F804C052F818EF8F6843F48065B8
:1035C000C4F20108454544EA071407D1CF686FF0FB
:1035D000400624F0C00406EA07163443D1F80090F0
:1035E000454506D1D1E905562CF440672E4347EAFC
:1035F000860C2EF4E64747EA0927C3F804C09F610A
:103600004F6809699F631C629F6947F400679F6167
:103610009F6927F480679F6171E000BF036840F2F3
:1036200000481C6A1A6A24F4007422F480721A6238
:103630001A46D3F804C052F81CEF8F6843F4806533
:10364000C4F20108454544EA072408D1CF6840F296
:10365000FF463F0224F4406427EA06063443D1F8CB
:103660000090454506D1D1E905562CF440572E432C
:1036700047EA061C2EF0730747EA0907C3F804C09F
:10368000DF614F680969DF631C62DF6947F0080783
:10369000DF61DF6927F00407DF6131E0036840F292
:1036A0000045D3F820C01A6A43F4806722F48052A0
:1036B0001A621A465C6852F81CEFD1F800808E68D6
:1036C000C4F20105AF4204D14D6924F4804444EAB8
:1036D00085142CF4005747EA06372EF4E64646EAEE
:1036E00008265C60DE614E6809691E641F62DF693E
:1036F00047F40067DF61DF6927F48067DF61090253
:103700001368194311600021BDE8F043002280F8DE
:103710003C200846704700BF0121002280F83C2071
:1037200008467047002804BF0120704710B50446C2
:1037300090F83D0028B9002084F83C00204600F0B5
:103740001FF8022084F83D002068211D04F07CF958
:10375000012084F8460084F83E0084F83F0084F895
:10376000400084F8410084F8420084F8430084F863
:10377000440084F8450084F83D00002010BD00009E
:1037800082B0006840F60001C4F20001884215D002
:103790000021C4F2010188421FD10020019043F6AC
:1037A0004000C4F20200416841F0010141604068FC
:1037B00000F001000190019802B0704700200090D5
:1037C00043F64000C4F20200016841F004010160C8
:1037D000006800F004000090009802B070470000FC
:1037E0007047000041B1082910D0042914BF00F12E
:1037F000410200F13F020BE090F83E20012A1CBF7D
:1038000001207047022280F83E2013E000F14002C0
:103810001278012A1CBF012070470222082907D014
:10382000042914BF80F8412080F83F2002E000BF47
:1038300080F84020006801F01F010122036A02FAAB
:1038400001F123EA01020262026A114341F2FF72AE
:10385000C4F200029042016210DC40F2FF71C4F237
:10386000000188421CDCB0F1804F3FD040F20041A3
:10387000C4F20001884239D03DE000BF40F2FF3180
:10388000C4F20101884219DC41F60001C4F20001D2
:1038900088422BD00021C4F2010188421AD02AE0CC
:1038A00040F60001C4F2000188421FD040F60041FA
:1038B000C4F20001884219D01DE000BF44F20001AB
:1038C000C4F20101884211D040F20041C4F201016A
:1038D000884210D1416C40F2004340F48062C4F24F
:1038E000010341F400419A42416404D1816801F02E
:1038F0000701062903D0016841F0010101600020A1
:10390000704700000068B0F1804F18BF704710B5D5
:1039100001F0E8FA04F062F840F29824C2F20004E0
:1039200020780130C1B20A29207003D30020207012
:1039300004F068F8606801306060BDE810407047CE
:103940007047000070B582B0044690F8420020280D
:103950000AD113460A4600294FF0010018BF002B78
:1039600006D102B070BD00BF022002B070BD00BF22
:103970002063002622206663A262A385666484F821
:103980004200E06B47F62D5C47F68D652168C0F676
:10399000000CC0F60005C0E90FC547F6B135C0F60A
:1039A00000050431C0E91356FEF75CF8E0B31020BF
:1039B0006064202084F842000120216B012940F03E
:1039C000B3800021009121680A6800924968009143
:1039D000009900BF216851E8031F226841F01001DF
:1039E00042E80313002BBCD0216851E8031F226872
:1039F00041F0100142E80313002BB2D0216851E8D6
:103A0000031F226841F0100142E80313002BA8D0E5
:103A1000216851E8031F226841F0100142E80313B6
:103A2000002BD7D19DE700BF019620680168019166
:103A3000406801900198206930B300BF206850E8C9
:103A4000030F216840F4807041E80302E2B120686E
:103A500050E8030F216840F4807041E803029AB1F6
:103A6000206850E8030F216840F4807041E80302A9
:103A700052B1206850E8030F216840F4807041E89B
:103A80000302002ADAD100BF206850E8050F216840
:103A900040F0010041E80502BAB3206850E8050F84
:103AA000216840F0010041E8050272B3206850E847
:103AB000050F216840F0010041E805022AB32068A3
:103AC00050E8050F216840F0010041E80502002A96
:103AD000DAD11AE0206850E8050F216840F0400074
:103AE00041E80502DAB1206850E8050F216840F08E
:103AF000400041E8050292B1206850E8050F2168B6
:103B000040F0400041E805024AB1206850E8050F46
:103B1000216840F0400041E80502002ADAD1002087
:103B2000216B01293FF44DAF012002B070BD0000B0
:103B3000B0B586B040F64452C2F20002904215D0B1
:103B40000C4640F6D451C2F20001884248D040F6FB
:103B50001C61C2F20001884260D040F66461C2F28A
:103B60000001884200F0828006B0B0BD40F26024BF
:103B7000C2F20004A0780121617008BB40F28230DB
:103B80000DF10F05C2F2000053A105AA04AB009588
:103B9000FCF752FB032813D19DF80F00411E0529A5
:103BA0000ED8059940F26C32C2F2000211600499FD
:103BB00040F2DC52C2F20002207401201160A070B9
:103BC00040F6445040F28231C2F20000C2F20001DD
:103BD000C822FFF7B7FE40F2F070C2F2000061E0C9
:103BE00040F60040C4F202000221FEF7EFF940F275
:103BF0006020C2F2000000F114052846214604F0BE
:103C000033FC40F6D450C2F2000029462122FFF7CF
:103C100099FE40F67010C2F2000043E040F200222C
:103C200040F2F410C2F2000240F24A4440F2F815A9
:103C3000C2F2000002F10801C2F20004C2F2000563
:103C4000CDE90010131D1FA120460295FCF7F4FAE0
:103C500040F61C60C2F200002146C822FFF772FE47
:103C600040F27060C2F200001CE000BF40F20C3273
:103C700040F21254C2F20002C2F2000402F108053E
:103C8000131D0CA120460095FCF7D6FA40F664609F
:103C9000C2F200002146C822FFF754FE40F2307005
:103CA000C2F200000068016821F00801016006B05E
:103CB000B0BD00BF212C25662C25662C25642C2345
:103CC00000000000212C25662C25662C25662C255D
:103CD000662C25662C230000666972652C25662CEF
:103CE00025662C25642C400070470000B0B582B0DA
:103CF000044600680168C368426901F02F05202D61
:103D000003F0200506D12DB1204602B0BDE8B04039
:103D100004F024B95FEA017C1EBF02F0010E03F437
:103D2000907212EB0E0243D1226BCD0618D5012AF8
:103D300016D113F0100213D00021019101680191F6
:103D4000416801910199406940063BD4A08DE18D05
:103D5000E28D002A18BF884240F0FE8102B0B0BD5B
:103D60000A0640F1E98013F0800200F0E58094F843
:103D700041102129F2D1A168B1F5805F03D12169F9
:103D8000002900F06F82216A4A1C22620978416092
:103D9000E18C01390A04E184E0D1C16821F080019D
:103DA000C160C16841F04001C16002B0B0BD00BF58
:103DB000CA0718BF13F4807240F0DC804A0700F194
:103DC000DF80E4E0E06B01684A68A38D91B20029CE
:103DD00000F0C680994280F0C380E285C069B0F5EA
:103DE000807F00F09C80206850E8030F216820F459
:103DF000807041E80302DAB1206850E8030F2168BF
:103E000020F4807041E8030292B1206850E8030F6B
:103E1000216820F4807041E803024AB1206850E82C
:103E2000030F216820F4807041E80302002ADAD1F0
:103E3000206850E8050F216820F0010041E80502E4
:103E4000DAB1206850E8050F216820F0010041E850
:103E5000050292B1206850E8050F216820F00100AA
:103E600041E805024AB1206850E8050F216820F0BA
:103E7000010041E80502002ADAD1206850E8050F68
:103E8000216820F0400041E80502DAB1206850E8DE
:103E9000050F216820F0400041E8050292B120683A
:103EA00050E8050F216820F0400041E805024AB1C2
:103EB000206850E8050F216820F0400041E8050225
:103EC000002ADAD1202084F84200002020632068F4
:103ED00050E8030F216820F0100041E80302DAB136
:103EE000206850E8030F216820F0100041E8030229
:103EF00092B1206850E8030F216820F0100041E8DB
:103F000003024AB1206850E8030F216820F0100036
:103F100041E80302002ADAD1E06BFDF7B7FB02208B
:103F20006063A08DE18D401A81B2204602B0BDE8E9
:103F3000B040FFF7FDBD00BF49067FF50FAF13F09E
:103F400040013FF40BAFC16821F04001C160202166
:103F5000204684F8411002B0BDE8B04000F036BD04
:103F60008B427FF4FBAEC069B0F5807F7FF4F6AE84
:103F700002226AE1626C42F0010262644A0706D5DD
:103F8000BEF1000F03D0626C42F0020262648A0745
:103F900006D5BEF1000F03D0626C42F004026264E9
:103FA000BCF1000F06D55EEA050203D0626C42F058
:103FB00008026264626C002A3FF4D0AE890604D520
:103FC0001DB1204603F0CAFF20684069616C00F013
:103FD000400001F00801401800F0B680206850E869
:103FE000030F216820F4907041E80302BAB32068FF
:103FF00050E8030F216820F4907041E8030272B387
:10400000206850E8030F216820F4907041E8030213
:104010002AB3206850E8030F216820F4907041E82B
:104020000302002ADAD11AE0206850E8050F21685F
:1040300020F0010041E80502DAB1206850E8050FE0
:10404000216820F0010041E8050292B1206850E8A3
:10405000050F216820F0010041E805024AB12068FF
:1040600050E8050F216820F0010041E80502002A10
:10407000DAD1206B012824D1206850E8030F216891
:1040800020F0100041E80302DAB1206850E8030F85
:10409000216820F0100041E8030292B1206850E846
:1040A000030F216820F0100041E803024AB12068A4
:1040B00050E8030F216820F0100041E80302002AB5
:1040C000DAD1202084F84200002020632068406973
:1040D000400640F1C180206850E8050F216820F0BB
:1040E000400041E80502DAB1206850E8050F216878
:1040F00020F0400041E8050292B1206850E8050F29
:10410000216820F0400041E805024AB1206850E8EB
:10411000050F216820F0400041E80502002ADAD1AD
:10412000E06B002800F0988047F6A531C0F600014A
:104130000165FDF7F3FA00283FF410AEE06B016D66
:1041400002B0BDE8B04008472046FFF7CDFD002093
:10415000606402B0B0BD00BF401A00BF216851E8E2
:10416000031F226821F4907142E80313BBB3216856
:1041700051E8031F226821F4907142E8031373B3DE
:10418000216851E8031F226821F4907142E803136B
:104190002BB3216851E8031F226821F4907142E893
:1041A0000313002BDAD11AE0216851E8051F2268B9
:1041B00021F0010142E80513DBB1216851E8051F38
:1041C000226821F0010142E8051393B1216851E80A
:1041D000051F226821F0010142E805134BB1216857
:1041E00051E8051F226821F0010142E80513002B68
:1041F000DAD1202184F8421000212163216851E89E
:10420000031F226821F0100142E80313DBB121688B
:1042100051E8031F226821F0100142E8031393B113
:10422000216851E8031F226821F0100142E80313BE
:104230004BB1216851E8031F226821F0100142E8C8
:104240000313002BDAD1022281B22046626302B04E
:10425000BDE8B040FFF76CBC204602B0BDE8B040FE
:10426000FFF742BD216A31F8022B6FF35F224260F3
:1042700021628DE5002804BF0120704710B5044677
:1042800090F8410028B9002084F84000204600F052
:1042900021F8242084F841002068C16821F40051ED
:1042A000C160204603F0DAFE2068016921F49041E4
:1042B0000161416921F02A014161C16841F4005165
:1042C000C16000202021606484F8411084F842100D
:1042D000606310BD2DE9F04F87B00446006844F6D6
:1042E000FF71C4F2000188424FF000010691CDE950
:1042F0000411CDE9021100F3838044F20041C4F2BD
:104300000001884200F0DE8044F60001C4F20001A2
:10431000884200F0458144F60041C4F20001884221
:1043200040F08782002643F630000196C4F2020076
:10433000016946F2100841F4002101610169C4F2EB
:10434000020801F40021019101990196016841F0F0
:1043500004010160006802A900F0040001900198C6
:104360004FF4406002900220CDE90306032005903F
:104370000820069040F60000C4F20200FDF750FD50
:1043800040F2D06508F16000C2F200054FF000670E
:104390004021C5E9000705F108004FF4806980E875
:1043A00042022846C5E90566C5E907666E62FDF763
:1043B000A7FA002818BFFCF73BFFA563AC6340F2E7
:1043C000706508F13000C2F20005C5E90007284613
:1043D000C5E90266C5E90496C5E90666C5E9086649
:1043E000FDF78EFA002818BFFCF722FF34200121C8
:1043F0000122E563AC63FEF795F8342017E200BFB5
:1044000045F20001C4F20001884200F01B8141F234
:104410000001C4F20101884200F09C8141F2004198
:10442000C4F20101884240F00482002643F63000C5
:104430000196C4F20200416941F0200141614169E5
:1044400001F02001019101990196016841F00401F8
:104450000160006802A900F0040001900198C020EA
:1044600002900220CDE90306032005900820069063
:1044700040F60000C4F20200FDF7D2FC46F2100044
:10448000C4F2020040F6D01500F58360C2F20005C8
:104490004FF020614FF4806285E843002846C5E96B
:1044A0000362C5E90566C5E907666E62FDF728FA8D
:1044B000002818BFFCF7BCFEE563AC6307B0BDE89D
:1044C000F08F00BF002643F630000196C4F20200D0
:1044D000016946F2100841F4003101610169C4F23A
:1044E000020801F40031019101990196016841F03F
:1044F00008010160006802A900F00800019001981D
:10450000602002900220CDE90306032005900720D9
:10451000069040F60000C4F2020000F58060FDF74E
:104520007FFC40F6B00508F17800C2F200054FF0BC
:1045300000674FF48069C5E900072846C5E90266AF
:10454000C5E90496C5E90666C5E90866FDF7D8F928
:10455000002818BFFCF76CFEE563AC6340F610154D
:1045600008F19000C2F200054021C5E9000705F1FD
:10457000080080E842022846C5E90566C5E90766E5
:104580006E62FDF7BDF9002818BFFCF751FE26202A
:1045900000210022A563AC63FDF7C4FF262046E19D
:1045A000002643F630000196C4F20200016941F48E
:1045B00080210161016901F4802101910199019635
:1045C000016841F008010160006802A900F00800DC
:1045D000019001984FF4407002900220CDE903064B
:1045E000032005900720069040F60000C4F2020068
:1045F00000F58060FDF714FC46F21000C4F20200E2
:1046000040F670151830C2F200054FF000614FF40B
:10461000806285E843002846C5E90362C5E905666E
:10462000C5E907666E62FDF76BF9002818BFFCF755
:10463000FFFD272000210122E563AC63FDF772FF37
:104640002720F4E0002743F630000197C4F202006F
:10465000016940F6000541F4801101610169C4F26D
:10466000020501F48011019101990197016802AEE0
:1046700041F004010160016846F2100801F00401F4
:1046800001910199019701684FF0020941F0080179
:10469000016000684FF0030A00F0080001900198E3
:1046A0004FF4805002904FF0080B28463146C4F278
:1046B0000208CDE90397CDF814A0CDF818B0FDF7A6
:1046C000AFFB0420CDE9020904A880E8800C05F5C1
:1046D00080603146FDF7A4FB40F23075C2F2000560
:1046E0004FF000664FF480692846C5E90086C5E9A9
:1046F0000277C5E90497C5E90677C5E90877FDF7AC
:10470000FFF8002818BFFCF793FDE563AC6340F2A7
:10471000907508F1A800C2F200054021C5E9000625
:1047200005F1080080E882022846C5E90577C5E959
:1047300007776F62FDF7E4F8002818BFFCF778FDF3
:10474000352000210222A563AC63FDF7EBFE352086
:104750006DE000BF002643F630000196C4F202006F
:10476000416946F2100841F0100141614169C4F20B
:10477000020801F01001019101990196016841F0D0
:1047800002010160006802A900F002000190019896
:10479000C02002900220CDE90306032005900720E7
:1047A000069040F60000C4F20200A0F58060FDF71C
:1047B00037FB40F2F07508F58660C2F200054FF055
:1047C00000674FF48069C5E900072846C5E902661D
:1047D000C5E90496C5E90666C5E90866FDF790F8DF
:1047E000002818BFFCF724FDE563AC6340F65005D4
:1047F00008F59560C2F200054021C5E9000705F102
:10480000080080E842022846C5E90566C5E9076652
:104810006E62FDF775F8002818BFFCF709FD25202A
:1048200001210222A563AC63FDF77CFE2520FDF784
:1048300067FE07B0BDE8F08F90F84230202B07D11B
:1048400000294FF0010318BF002A05D11846704710
:1048500002231846704700BF0023036381622221B0
:104860008285C285436480F842100169006819B1ED
:10487000C16841F48071C160416941F00101416149
:10488000C16841F02001C16018467047006844F2D9
:104890000041C4F20001884218BF704740F6147C02
:1048A000C2F2000CBCF804108A087C2A1BD880B520
:1048B000BCF8022041F26F20531CC0F28300A3FB1E
:1048C000000E4FF4FA700EFB103040F28033C2F24B
:1048D00000031B786244ACF80200481C9371ACF8EA
:1048E0000400BDE8804040F68C5040F28031C2F2B6
:1048F0000000C2F200010122FFF79EBF70470000D6
:10490000B0B5044690F8410020281CBF0220B0BD7D
:1049100000294FF0010056D0002A134608BFB0BD51
:104920004FF0000C21202162A384E384C4F844C02A
:1049300084F84100A06B47F6A56E47F655752268CE
:10494000C0F6000EC0F60005C0E90FE547F6B13528
:10495000C0F600050432C0E9135CFDF783F838B1F6
:1049600010206064202084F841000120B0BD00BF09
:1049700020686FF040010160206850E8050F216851
:1049800040F0800041E80502F2B1206850E8050FD0
:10499000216840F0800041E80502AAB1206850E893
:1049A000050F216840F0800041E8050262B12068EF
:1049B00050E8050F216840F0800041E80502002A18
:1049C0004FF00000D8D1B0BD0020B0BD40F61C6152
:1049D000C2F20001884218BF704740F26020C2F264
:1049E000000000210170704770470000FEE70000E2
:1049F0002DE9F04383B0044600680D4601680A9F24
:104A00000B9E41F4807199469046016020464FF01C
:104A1000011100223B46009600F0ACF850B120682E
:104A20000068C00544BF4FF400702064032003B049
:104A3000BDE8F083206805F0FE0101610221C0F2AB
:104A4000010120463A46334600F07AF920B10120B0
:104A500003B0BDE8F08300BF00200290206832461A
:104A6000416902918069394602900298204600F01F
:104A7000D3F958B1206C0428E9D12068016841F4C9
:104A800000710160012003B0BDE8F0832068B9F136
:104A9000010F0AD04FEA18210161204639463246FB
:104AA00000F0BAF90028E5D120685FFA88F10161C9
:104AB000002003B0BDE8F08370B50368044653F8E6
:104AC000140F400711D40E46481C29D086BB00BFE6
:104AD0001868400527D4FDF787FA236853F8140FA8
:104AE000400737D518684007F2D5002070BD00BFD9
:104AF00018684007F9D41868400514D418684007AE
:104B0000F3D4186840050ED418684007EDD418682F
:104B1000400508D4186840074FF0000048BF70BD3A
:104B200018684005E4D56FF480601860042012E036
:104B3000154603E053F8140F4007D6D41868400513
:104B4000F1D4FDF751FA401B2368B042F2D95869FD
:104B50004007EFD4202000212022216384F83D204B
:104B600084F83E10226C10432064012084F83C102D
:104B700070BD00002DE9F041054600681E46144650
:104B800001F47F0201338FB242D0DDF81880B2F514
:104B9000803F40F0878040693840C01BB0FA80F009
:104BA0004009A04240F0C8804EB924E04069384036
:104BB000C01BB0FA80F04009A04240F0BD80FDF774
:104BC00013FAA0EB08012868B142EFD941693940D6
:104BD000C91BB1FA81F14909A142E7D19BE000BFAD
:104BE00040693840C01BB0FA80F04009A0424FF045
:104BF000000040F0A280FDF7F7F9286841693940CC
:104C0000C91BB1FA81F14909A142E9D183E000BF92
:104C1000B2F5803F24D100BF41693940C91BB1FAC8
:104C200081F14909A14240F0878041693940C91B9F
:104C3000B1FA81F14909A14240F07E8041693940D1
:104C4000C91BB1FA81F14909A14275D141693940C5
:104C5000C91BB1FA81F14909A142DDD06CE000BF66
:104C600081693940C91BB1FA81F14909A14263D177
:104C700081693940C91BB1FA81F14909A1425BD16F
:104C800081693940C91BB1FA81F14909A14253D167
:104C900081693940C91BB1FA81F14909A142DFD0CC
:104CA0004AE000BF80693840C01BB0FA80F040097C
:104CB000A04241D146B923E080693840C01BB0FA18
:104CC00080F04009A04237D1FDF78EF9A0EB080132
:104CD0002868B142F0D981693940C91BB1FA81F124
:104CE0004909A142E8D116E080693840C01BB0FAFA
:104CF00080F04009A0424FF0000018BFBDE8F081ED
:104D0000FDF772F9286881693940C91BB1FA81F150
:104D10004909A142E8D100202021286385F83D10EF
:104D200085F83E00296C41F02001296485F83C009B
:104D30000120BDE8F08100BF0020BDE8F081000047
:104D4000F0B581B0044600681D4643698FB203EA9E
:104D50000701B94202D1002001B0F0BD41691646F9
:104D600001323FD049053FD4CEB100BFFDF73CF939
:104D7000411B2068B14203D941693940B94215D17C
:104D800041693940B942E6D041694905EED52BE089
:104D900041693940B942DED04169490524D4FDF763
:104DA00023F9206841693940B942F1D0202023E03D
:104DB00041693940B942CED04169490514D44169AD
:104DC0003940B942C7D0416949050DD441693940DC
:104DD000B942C0D04169490506D441693940B94258
:104DE000B9D041694905E3D5016841F4007101601A
:104DF0006FF480614161042000212022216384F846
:104E00003D2084F83E10226C1043206484F83C104E
:104E1000012001B0F0BD000070B50368044653F8EE
:104E2000140F000611D40E46481C29D086BB00BFC3
:104E30001868400527D4FDF7D7F8236853F8140FF6
:104E4000000637D518680006F2D5002070BD00BFF7
:104E500018680006F9D41868400514D418680006CC
:104E6000F3D4186840050ED418680006EDD418680D
:104E7000400508D4186800064FF0000048BF70BD18
:104E800018684005E4D56FF480601860042012E0D3
:104E9000154603E053F8140F0006D6D418684005F1
:104EA000F1D4FDF7A1F8401B2368B042F2D958694C
:104EB0000006EFD4202000212022216384F83D2029
:104EC00084F83E10226C10432064012084F83C10CA
:104ED00070BD000040F2C421C2F2000188780022B7
:104EE0008A70704770B540F2C425C2F20005287878
:104EF00041F20004C4F20204687020460221FDF76A
:104F00005FF8B0FA80F0460920460421FDF758F812
:104F1000002820464FF0080108BF0226FDF750F890
:104F2000002820464FF0100108BF0326FDF748F87F
:104F3000002820464FF0200108BF0426FDF740F866
:104F4000002820464FF0400108BF0526FDF738F83D
:104F5000002808BF062668782E70002808BF012E9A
:104F600022D0012808BF002E24D0002808BF022E1E
:104F70001AD0022808BF002E28D0002808BF032E10
:104F800030D0032808BF002E34D0042808BF002EDC
:104F90003BD12420C4F20000006842F21071884224
:104FA00034BF042008202FE02420C4F20000002198
:104FB000016070BD2420C4F20000006842F210714C
:104FC000884234BF012005201EE000BF2420C4F227
:104FD0000000006842F21071884234BF02200620AF
:104FE00012E000BF2420C4F2000000210160016033
:104FF00070BD00BF2420C4F20000006842F21071AE
:10500000884234BF03200720A87070BDB0B584B0BB
:1050100040F2E05042F2000101230024C2F20000FD
:10502000C4F20101C0F60073012503944FF48032ED
:10503000047680F82040C0E90A34C56180F8304029
:1050400080E81600C0E903444561FCF719FA00281E
:1050500018BFFCF7EDF80220CDE9000540F2E05062
:10506000C2F2000069460294FCF766F9002818BFF6
:10507000FCF7DEF804B0B0BDB0B584B040F22860F3
:1050800042F2001101230024C2F20000C4F2010127
:10509000C0F60073012503944FF48032047680F843
:1050A0002040C0E90A34C56180F8304080E816002D
:1050B000C0E903444561FCF7E3F9002818BFFCF799
:1050C000B7F80320CDE9000540F22860C2F20000E5
:1050D00069460294FCF730F9002818BFFCF7A8F8DD
:1050E00004B0B0BD80B582B0002043F6300101901D
:1050F000C4F202010A6842F400120A600A6802F46B
:1051000000120192019A00900868002240F4800089
:1051100008600868002100F48000009000980B20CF
:10512000FDF700FA0B20FDF7EBF90C20002100221F
:10513000FDF7F8F90C20FDF7E3F90D20002100221E
:10514000FDF7F0F90D20FDF7DBF90F20002100221B
:10515000FDF7E8F90F20FDF7D3F910200021002218
:10516000FDF7E0F91020FDF7CBF911200021002216
:10517000FDF7D8F91120FDF7C3F92F2000210022F7
:10518000FDF7D0F92F20FDF7BBF9392000210022CF
:10519000FDF7C8F93920FDF7B3F93A2001210222C1
:1051A000FDF7C0F93A20FDF7ABF9462000210022B7
:1051B000FDF7B8F9462002B0BDE88040FDF7A0B980
:1051C0002DE9F04F87B0002443F63000CDE90544C7
:1051D0000194C4F20200016841F2000841F010019C
:1051E00001600168C4F2020801F010010191019907
:1051F00001940168A8F5805641F0800101600168C2
:10520000002201F0800101910199019401684FF0A1
:10521000100B41F004010160016801F004010191EB
:1052200001990194016841F001010160016801F0F8
:105230000101019101990194016841F002010160AD
:10524000016801F00201019101990194016841F0A6
:10525000080101600068102100F008000190019829
:105260003046FCF7BBFE40464FF41A410022FCF7E3
:10527000B5FEA8F580652846022100224FF00209FC
:10528000FCF7ACFE7E2002AFCDE902044FF0010A2C
:1052900040463946CDF810A0FCF7C2FD30463946ED
:1052A000CDE902BACDE90449FCF7BAFD4FF41A4042
:1052B000CDE9020A40463946CDE90444FCF7B0FD89
:1052C00028463946CDE9029ACDE90444FCF7A8FD09
:1052D00007B0BDE8F08F000080B540F6302045F201
:1052E0000041C2F20000C4F2000100234FF4804CE0
:1052F0004CF2503280E80E00C0E9033CC0E90533AF
:10530000C0E90733FCF776FE002808BF80BDBDE882
:105310008040FBF78DBF000080B540F6842045F645
:105320000001C2F20000C4F2000148F2A0620023B2
:105330004FF4804CC0F2010280E80E00C0E9033C4B
:10534000C0E90533C0E90733FCF754FE002808BF65
:1053500080BDBDE88040FBF76BBF000080B540F624
:10536000D82045F60041C2F20000C4F2000148F224
:10537000A06200234FF4804CC0F2010280E80E00CE
:10538000C0E9033CC0E90533C0E90733FCF732FE4E
:10539000002808BF80BDBDE88040FBF749BF000082
:1053A00080B540F62C3043F20001C2F20000C4F296
:1053B00001014FF48272002380E80E0000F1140115
:1053C0004FF4007C4FF0300E81E808500A21C0E90C
:1053D0000333C0E90833C0E90A31FDF7C7FB0028F1
:1053E00008BF80BDBDE88040FBF722BF80B540F616
:1053F000843043F60001C2F20000C4F200014FF411
:10540000827200234FF4007C80E80E000A21C0E97C
:105410000333C0E9053CC361C0E90833C0E90A3180
:10542000FDF7A4FB002808BF80BDBDE88040FBF766
:10543000FFBE0000B0B598B0002540F6DC30C4F2E5
:1054400001050021C2F20000A72244F61F6311915A
:10545000CDE90F11CDE90D11CDE90B11CDE9091100
:10546000CDE90711CDE90511CDE90311CDE9011110
:10547000C0E90052C0E90213C0E904118161FEF7DE
:1054800051F9002818BFFBF7D3FE40F6DC30C2F21A
:10549000000010A9FDF78EFC002818BFFBF7C8FE1E
:1054A000602009900020CDE90A00CDE90C00CDE98B
:1054B0000E0040F6DC30C2F2000009A90822FEF717
:1054C0001FF8002818BFFBF7B3FE40F6DC30C2F22D
:1054D000000009A90C22FEF713F8002818BFFBF7FB
:1054E000A7FE40F6DC3400204FF40051C2F2000465
:1054F0000590CDE90300CDE901000691089001A9CE
:105500002046FDF72FFC002818BFFBF791FE20680E
:1055100040F60001C4F20001884217D0A84233D1FE
:105520000020139043F63000C4F2020001684FF4EB
:10553000C04241F0100101600068012100F010003C
:105540001390139805F5883014E000BF00201390E5
:1055500043F63000C4F2020001684FF4404241F0CB
:10556000080101600068022100F008001390139800
:1055700005F586301392022214920022179113A986
:10558000CDE91522FCF74CFC18B0B0BD80B586B053
:1055900040F624400021C2F2000040F2E73C0591B1
:1055A000CDE90311CDE900114FF080425323C0E94A
:1055B000021C01618021C0E900238161FDF758FCD4
:1055C000002818BFFBF734FE4FF48050029040F6DD
:1055D0002440C2F2000002A9FDF7F0FC002818BF29
:1055E000FBF726FE40F62440C2F200006946FDF7B4
:1055F000E1FB002818BFFBF71BFE06B080BD0000D2
:1056000080B58CB040F66C4040F200420021C2F2FE
:105610000000C4F20002C0E9002103224FF6FF732C
:10562000CDE903210122CDE90011C0E90213016196
:105630008161CDE90521CDE90711CDE909210B9162
:1056400003A9FDF78BFD002818BFFBF7F1FD40F61D
:105650006C40C2F200006946FDF7ACFB002818BFA1
:10566000FBF7E6FD0CB080BDB0B590B040F600058C
:1056700040F6B440C4F200050021C2F20000072247
:1056800040F21A43CDE90811CDE90611CDE9041124
:10569000C0E90052C0E9021301618161FEF742F8DE
:1056A000002818BFFBF7C4FD40F6B440C2F200006A
:1056B00008A9FDF77FFB002818BFFBF7B9FD6020A4
:1056C00001900020CDE90200059040F6B440C2F2FE
:1056D000000001A90822FDF713FF002818BFFBF7FF
:1056E000A7FD40F6B444C2F2000401A920460C22F2
:1056F000FDF706FF002818BFFBF79AFD2068A842B7
:105700001AD00021C4F20101884233D100200B904D
:1057100043F63000C4F2020001684FF4C04241F089
:10572000100101600068012100F010000B900B983F
:1057300005F5023014E000BF00200B9043F6300066
:10574000C4F2020001684FF4404241F008010160D8
:105750000068022100F008000B900B9805F501305D
:105760000B9202220C9200220F910BA9CDE90D227F
:10577000FCF756FB10B0B0BD80B58CB040F6FC40D5
:1057800040F600420021C2F20000C4F20002C0E96B
:10579000002103224FF0FF33CDE903210122CDE99F
:1057A0000011C0E9021301618161CDE90521CDE954
:1057B0000711CDE909210B9103A9FDF7CFFC0028C2
:1057C00018BFFBF735FD40F6FC40C2F20000694609
:1057D000FDF7F0FA002818BFFBF72AFD0CB080BDDA
:1057E00080B540F61C6044F60041C2F20000C4F2ED
:1057F000000100234FF00C0C4FF4E13280E80E0062
:10580000C0E90333C0E905C3C361FEF733FD0028D7
:1058100008BF80BDBDE88040FBF70ABD80B540F6FB
:10582000646045F20001C2F20000C4F200010023EE
:105830004FF00C0C4FF4E13280E80E00C0E9033366
:10584000C0E905C3C361FEF715FD002808BF80BD90
:10585000BDE88040FBF7ECBC80B540F6445041F217
:105860000001C2F20000C4F2010100234FF00C0C51
:105870004FF4E13280E80E00C0E90333C0E905C30C
:10588000C361FEF7F7FC002808BF80BDBDE880407B
:10589000FBF7CEBC80B540F68C5044F20041C2F21A
:1058A0000000C4F2000100234FF00C0C4FF4E13271
:1058B00080E80E00C0E90333C0E905C3C361FEF709
:1058C000D9FC002808BF80BDBDE88040FBF7B0BC14
:1058D00080B540F6D45044F60001C2F20000C4F294
:1058E000000100234FF00C0C4FF4E13280E80E0071
:1058F000C0E90333C0E905C3C361FEF7BBFC002860
:1059000008BF80BDBDE88040FBF792BC80B540F683
:10591000AC6041F20041C2F20000C4F20101002378
:105920004FF00C0C4FF4E13280E80E00C0E9033375
:10593000C0E905C3C361FEF79DFC002808BF80BD18
:10594000BDE88040FBF774BCFEE7000070B582B094
:10595000FCF74AFB044602F07FFD40F26435C2F2D8
:105960000005296943F69922611A914230D39A20A1
:1059700028700024A3A2002000210C23009401F031
:10598000A5FAA879411EC8B205280CD8042202EB5A
:1059900081014AF29462C0F6000252F82000697058
:1059A000E8600320687101F01BFDE868AC7090ECC2
:1059B000020A03F0FDF8A878E96800EB400001EB6B
:1059C000800090EC020A02B0BDE8704003F002B91A
:1059D000E978032900F2E380DFE801F00254127253
:1059E000022840F0C580E879012840F0CB80686942
:1059F000201A40F6B931884280F0CD80CFE000BF58
:105A0000002675A2002002210C23009601F05EFA08
:105A1000FCF7EAFAA9693322411AC9292A70C0F0B1
:105A2000BE8040F20C31C2F200010A7AA861012A5C
:105A300040F0A48091ED000AB3EE041AB0EEC02A43
:105A40002879B4EE412AF1EE10FA06DAB4EE410AF2
:105A5000F1EE10FABCBF01302871C0B23421052824
:105A60002970C0F09C800521002029705CA20321D0
:105A70000C2328710090032401F028FAEC7002B086
:105A800070BD00BF00265BA2002001210C23009600
:105A900001F01CFA01F09EFB9FED581AB4EE410A8A
:105AA000F1EE10FA08D101F09DFB9FED551AB4EE0E
:105AB000410AF1EE10FA72D00420287054E000BFC1
:105AC00000263BA2002004210C23009601F0FEF9E1
:105AD000FCF78AFAA9693322411AC9292A7043D3EB
