:020000040800F2
:10000000280D002029020008C129000889230008C2
:1000100001290008350400083D32000800000000F6
:10002000000000000000000000000000C5290008DA
:100030002505000800000000C3290008C7290008A2
:10004000430200084302000843020008430200087C
:10005000430200084302000843020008430200086C
:10006000430200084302000843020008430200085C
:1000700043020008690400084302000875040008F0
:10008000430200084302000843020008430200083C
:10009000430200084302000843020008430200082C
:1000A000430200084302000843020008430200081C
:1000B000752A0008430200084302000843020008B2
:1000C00043020008430200084302000843020008FC
:1000D000430200084302000843020008F53100080B
:1000E00043020008430200084302000843020008DC
:1000F00043020008430200084302000843020008CC
:1001000043020008430200084302000843020008BB
:10011000912D000843020008430200084302000832
:10012000430200084302000843020008430200089B
:10013000430200084302000843020008430200088B
:10014000430200084302000843020008430200087B
:10015000430200084302000843020008430200086B
:10016000430200084302000843020008430200085B
:100170004302000843020008430200080000000098
:10018000430200084302000800F002F800F03CF8C7
:100190000AA090E8000C82448344AAF10107DA45E2
:1001A00001D100F031F8AFF2090EBAE80F0013F0F8
:1001B000010F18BFFB1A43F001031847F43C00007D
:1001C000143D0000103A24BF78C878C1FAD852070D
:1001D00024BF30C830C144BF04680C6070470000C1
:1001E0000023002400250026103A28BF78C1FBD840
:1001F000520728BF30C148BF0B6070471FB503F0DE
:100200002DFE1FBD10B510BD00F0E2F81146FFF73E
:10021000F5FF03F025FB00F000F903B4FFF7F2FF50
:1002200003BC00F001F90000094880470948004775
:10023000FEE7FEE7FEE7FEE7FEE7FEE7FEE7FEE796
:10024000FEE7FEE704480549054A064B70470000F3
:10025000652A00088901000828070020280D0020D1
:10026000280900202809002053EA020C00F06980C8
:100270002DE9F04B4FF00006002B1FBFB3FA83F5BA
:1002800003FA05F424FA05F65E4012BF1643B2FAEB
:1002900082F502FA05F4C5F120051EBF22FA05FC1D
:1002A00044EA0C04203556EA044C4FEA144418BFC3
:1002B000641C4FF000084FF00009904271EB030CF2
:1002C00039D3002919BFB1FA81F701FA07F6B0FA5C
:1002D00080F700FA07F6C7F120071EBF20FA07FCD7
:1002E00046EA0C062037B6FBF4FCA7EB0507103FE7
:1002F00007F01F0BCBF120060CFA0BFB2CFA06F6CD
:1003000044BFB3460026202FA4BF5E464FF0000B2B
:100310005BEA060C08BF4FF0010B19EB0B09ABFBB6
:10032000027C48EB0608C01B06FB02CC0BFB03CC8F
:1003300071EB0C01C1E70B46024641464846BDE859
:10034000F08B13B54FF000004FF00001AFF30080C9
:10035000BDE81C4070474FF0000200B513469446BC
:100360009646203922BFA0E80C50A0E80C50B1F10D
:100370002001BFF4F7AF090728BFA0E80C5048BF21
:100380000CC05DF804EB890028BF40F8042B08BFBF
:10039000704748BF20F8022B11F0804F18BF00F8BB
:1003A000012B704770477047704710B500F008F890
:1003B000006810BD10B5044600F002F8046010BDDE
:1003C00000487047C806002000487047C806002053
:1003D0007546FFF7F9FFAE4605006946534620F023
:1003E0000700854618B020B5FFF72CFFBDE8204078
:1003F0004FF000064FF000074FF000084FF0000BE1
:1004000021F00701AC46ACE8C009ACE8C009ACE893
:10041000C009ACE8C0098D4670470446AFF30080C0
:100420002046FFF7FAFE704701491820ABBEFEE7F1
:1004300026000200FEE700009FED081A094860EE62
:10044000011A9FED070A60EE810A81EE802A80EE94
:10045000801A80ED052A80ED061A7047E4CB96419C
:100460000000704210000020014800F0B9B8000000
:10047000D4040020014800F0B3B800007404002048
:1004800001681823CAB2103AB2FBF3F2054B6FF3BE
:100490000901032A9B5CC36500D9091D81650846D3
:1004A00070470000703E000810B5014600208B69BF
:1004B0008A6A4FF0C07453B1B3F5005F15D072B1C2
:1004C000012A0CD0022A0AD0032A09D104E01AB169
:1004D000012A06D0022A03D1C96AC90100D5012028
:1004E00010BDC96AA142FAD010BD002AF7D0012A76
:1004F000F2D0022AF3D0032AF3D010BD30B504683D
:10050000256825F480252560046863608368402B96
:10051000036803D099600068C26030BD9A600068CB
:10052000C16030BD704772B6FEE72DE9F041044668
:10053000876D00F0C5FA064694F8350000250228BC
:1005400006D08020606584F834500120BDE8F08139
:100550002068016821F0160101602068416921F0DE
:1005600080014161206C08B9A06C20B1206801684D
:1005700021F0080101602068016821F0010101609B
:100580000CE000F09DFA801B052807D9202060654B
:10059000032084F8350084F83450D7E720680068D9
:1005A000C007EED194F85C103F208840B86001206D
:1005B00084F8350084F834500020C7E790F83510EF
:1005C000022903D08021416501207047052180F870
:1005D00035100068016821F00101016000207047BA
:1005E0002DE9F84304464FF00009CDF80090634828
:1005F0004FF41651A56D0068B0FBF1F72E6894F822
:100600005C10082000FA01F131420FD021680A681D
:1006100052070BD50A6822F004020A6094F85C10B5
:100620008840A860606D40F00100606594F85C103F
:100630004FF0010808FA01F0304208D021684969FA
:10064000090604D5A860606D40F00200606594F86A
:100650005C1004208840304208D02168096889076E
:1006600004D5A860606D40F00400606594F85C10EB
:1006700010208840304218D021680968090714D535
:10068000A86020680168490304D50068000308D504
:10069000A16C07E00168C90503D4016821F00801D5
:1006A0000160216C09B12046884794F85C10202035
:1006B0008840304231D021680968C9062DD5A8602C
:1006C00094F8350005282068016806D0490347D50D
:1006D000006800031DD4616C1CE021F0160101606C
:1006E0002068416921F080014161206C08B9A06C4B
:1006F00020B12068016821F00801016094F85C10C5
:100700003F208840A86084F8358084F83490216DBB
:100710001FE0E16B09B120468847606D00282BD0AF
:10072000606DC00714D0052084F83500206801688A
:1007300021F0010101600098401C0090B84203D8EC
:1007400020680068C007F6D184F8358084F83490BA
:10075000E16C002910D001B02046BDE8F043084705
:100760000168C905D5D4016821F01001016084F841
:10077000358084F83490CCE7BDE8F8830C00002085
:100780002DE9F041044600F09BF906465CB10220D9
:1007900084F83500002584F834502068016821F081
:1007A000010101600DE00120BDE8F08100F088F951
:1007B000801B052805D920206065032084F83500BA
:1007C000F2E720680068C007F0D12268116820486D
:1007D0000140D4E901031843D4E9033633431843F5
:1007E00063691843A3691843E3691843236A1843EC
:1007F0000843616A042903D1D4E90B131943084360
:10080000106020684069666A20F0070130460E4398
:10081000012704280CD1A06A0643E06A40B12046B3
:10082000FFF742FE20B14020606584F83570BAE7DA
:10083000206846612046FFF723FE94F85C203F21A4
:1008400091408160656584F835700020ACE7000058
:100850003F8010F02DE9F0410446866D90F8340099
:10086000002501280DD0012084F8340094F835705B
:100870000020012F07D084F8340002252846BDE867
:10088000F0810220FBE7022784F83570606520467E
:10089000FFF734FE94F85C103F208840B060206879
:1008A000016841F016010160206C20B120680168E8
:1008B00041F0080101602068016841F00101016018
:1008C000DCE700002DE9F84FDFF8BCA1002201258C
:1008D00003264FF00F090AF1040BAAF1040E00BF22
:1008E0000B6805FA02F42340A34270D10F7907F098
:1008F0000307012F01D0022F16D187684FEA420863
:1009000006FA08FC27EA0C07D1F80CC00CFA08FC20
:100910004CEA070CC0F808C04768A7430C79C4F339
:10092000001494403C4344600C79E443A4070AD08B
:10093000C4684FEA420C06FA0CF7BC438F6807FA0A
:100940000CF72743C7600C7904F00304022C12D182
:10095000D40800EB840CDCF820405707FF0E09FA9E
:1009600007F824EA0804D1F8108008FA07F848EAE2
:100970000408CCF8208004684FEA420C06FA0CF711
:10098000BC430F7907F0030707FA0CF7274307600A
:100990004C6814F4403F70D03C4C276847F48047C3
:1009A0002760246822F0030704F480440094384C44
:1009B00007EB040CDCF8084897074FEA177809FAA8
:1009C00008F7BC43334FB84202D1002724E054E07B
:1009D000314FB84201D101271EE0304FB84201D15A
:1009E000022719E02E4FB84201D1032714E02D4F02
:1009F000B84201D104270FE02B4FB84201D105279F
:100A00000AE02A4FB84201D1062705E0284FB84234
:100A100001D1072700E0082707FA08F72743CCF899
:100A20000878DAF800405746D1F804C09C435FEAE2
:100A3000CC2C00D51C433C60DBF800405F46D1F86D
:100A400004C09C435FEA8C2C00D51C433C60DEF85C
:100A500000407746D1F804C09C435FEA8C3C00D547
:100A60001C433C60084F083F3C68D1F804C09C43DD
:100A70005FEACC3C00D51C433C60521C102AFFF4BA
:100A80002FAFBDE8F88F0000083C01404438024019
:100A90000030014000000240000402400008024013
:100AA000000C0240001002400014024000180240F6
:100AB000001C02400AB1816170470904FBE7000095
:100AC00001488068704700000000002070B50400F5
:100AD00025D094F83D00002520B984F83C502046EC
:100AE00000F0B8F8242084F83D002068016821F067
:100AF000010101602068016841F400410160206843
:100B0000016821F40041016000F064FA4D4A616817
:100B1000914201D84C4900E04C49884201D2012061
:100B200070BD4B492368B0FBF1F15E6826F03F06CB
:100B30000E435E606368934206D94FF4967359433F
:100B40004FF47A73B1FBF3F12368491C1E6A26F057
:100B50003F06314319626168914210D84900401E36
:100B6000B0FBF1F2521CC2F30B02042A01D20420A2
:100B700022E0B0FBF1F0401CC0F30B001CE0A268C7
:100B8000F2B301EBC10303EB0116431EB3FBF6F313
:100B90005B1C43F480431B0549D092B301EBC102B7
:100BA00002EB0111401EB0FBF1F0401CC0F30B0042
:100BB00040F4804040F400402168CA694CF6FF735D
:100BC0009A431043C861D4E90710014320680268C2
:100BD00022F0C00211430160D4E9030101432068FF
:100BE000826848F2FF339A4311438160D4E90501DA
:100BF00008432168CA6822F0FF021043C86001E080
:100C00000EE016E02068016841F0010101602564F2
:100C1000202084F83D00256384F83E50002070BDFC
:100C200001EB4106431EB3FBF6F35B1CB3E7012067
:100C3000C2E701EB4101401EB0FBF1F0401CC0F3E4
:100C40000B00B7E7A086010080841E0000093D006C
:100C500040420F002DE9F04186B004461421684659
:100C6000FFF779FB23683B4CDFF8E4C000223949E9
:100C700012250326042738481034634518D10B6821
:100C800043F002030B60096802AB01F00201059119
:100C90003102CDE9001583E8C4006946FFF712FE72
:100CA000206840F400102060206800F400101CE070
:100CB000DFF8A8C063451CD10B6843F002030B604A
:100CC000096802AB01F0020105914FF44061CDE9E2
:100CD000001583E8C4006946FFF7F4FD206840F47E
:100CE00080002060206800F48000059006B0BDE818
:100CF000F0811B488342F9D10868904640F0040017
:100D00000860086800F004000590086840F00100E1
:100D100008600868694600F00100059058158DE8E4
:100D200021011048CDE90367FFF7CCFD4FF4807037
:100D30008DE8210169460C48CDE90367FFF7C2FD44
:100D4000206840F400002060206800F40000CCE738
:100D50000054004030380240000402400058004077
:100D6000005C004000080240000002400248816828
:100D70000278114481607047000000200B4810B5D4
:100D8000016841F400710160016841F48061016013
:100D9000016841F480710160032000F06FF80F20BA
:100DA00000F006F800F024F8002010BD003C0240DE
:100DB00070B50D4D04464FF47A712878B1FBF0F010
:100DC0000A490968B1FBF0F000F00CFB48B9102C9F
:100DD00007D200222146501E00F030F800206C603F
:100DE00070BD012070BD0000000000200C0000203C
:100DF0000A4808B5016841F480410160006800F4C8
:100E0000804000900548001F016841F0805101605A
:100E1000006800F08050009008BD00004438024097
:100E2000002809DB00F01F020121914040098000E9
:100E300000F1E020C0F8001170470000F0B40E4B44
:100E40001B680C46C3F30223C3F10705042D00D928
:100E50000425191D072901D2002300E0DB1E01260D
:100E600006FA05F1491E214099409E40761E164023
:100E70003143F0BC02F0F6B90CED00E0064900F099
:100E8000070208684FF6FF03184040EA0220034AB1
:100E900010430860704700000CED00E00000FA0508
:100EA0002DE9F0470E46050065D0DFF81481D8F82B
:100EB0000000F7B200F00700B04207D288F80070D7
:100EC000D8F8000000F00700B04254D128683D4C2B
:100ED000810712D5400703D5206840F4E050206018
:100EE0002878000703D5206840F46040206020681F
:100EF000A96820F0F000084320602878C0072DD0B2
:100F0000304968680839012812D0022813D0032814
:100F100011D00968890700292DDA216821F0030121
:100F200001432160FFF7CCFD814641F2883A0EE093
:100F300009688903EFE709688901ECE7FFF7C0FD5D
:100F4000A0EB0901514502D90320BDE8F0872068D4
:100F5000696800F00C00B0EB810FEFD1D8F80010F9
:100F6000404601F00701B14207D90770006800F060
:100F70000700B04201D00120E7E72878400705D5F7
:100F80002068E96820F4E0500843206028780007D2
:100F900006D52068296920F4604040EAC10020603D
:100FA00000F038F82168084AC1F30311515CC840C9
:100FB0000649086006480068FFF7FAFE0020C4E70B
:100FC000003C024008380240783E00080C00002037
:100FD000040000200448054900680968044AC1F378
:100FE0008221515CC84070470C0000200838024044
:100FF000883E00080448054900680968044AC1F3AE
:101000004231515CC84070470C0000200838024053
:10101000883E0008154810B5006810F00C0214480E
:1010200013D01449042A0FD0082A0ED10F4C241FC4
:101030002268236802F03F025B0207D52068C0F3F4
:101040008810A0FB010106E0084610BD2168C1F32D
:101050008811A1FB00010023FFF706F92168C1F305
:101060000141491C4900B0FBF1F010BD08380240B5
:101070000024F40040787D012DE9F84F04006ED083
:101080002078DFF84C93C007A9F104054AD009F194
:1010900004000168C1F38101012908D00068C0F390
:1010A000810002280AD1D9F80000400206D528683C
:1010B000800337D560680028E1D033E06068B0F580
:1010C000803F10D0B0F5A02F286810D020F48030D9
:1010D0002860286820F4802028606068A8B1FFF7A5
:1010E000EFFC06460DE0286840F48030F4E740F459
:1010F00080202860F7E700BFFFF7E2FC801B642830
:1011000073D828688003F7D50CE0FFF7D9FC0646B2
:1011100005E000BFFFF7D4FC801B6428F0D82868E6
:101120008003F7D42078DFF8AC8280074FF0000A04
:101130003ED5A748001D016811F00C0F08D00068CB
:10114000C0F3810002280BD1D9F80000400207D477
:101150002868800716D5E068012800D112E033E145
:10116000E068B8B10120C8F80000FFF7A9FC064606
:1011700005E000BFFFF7A4FC801B0228C0D8286848
:101180008007F7D52868216920F0F80040EAC100FF
:1011900028600DE0C8F800A0FFF792FC064604E0C6
:1011A000FFF78EFC801B02281FD828688007F7D421
:1011B0002078000722D5864F87486169703771B162
:1011C00001210160FFF77CFC064604E0FFF778FC94
:1011D000801B022809D838688007F7D50EE0C0F8D0
:1011E00000A0FFF76DFC064605E082E0FFF768FC13
:1011F000801B02287DD838688007F7D42078400704
:1012000068D5DFF8CCB100270BF13C0BDBF8000010
:10121000C0000BD4DBF8001041F08051CBF8001077
:10122000DBF80000012700F0805000906B4E306822
:10123000C00510D4306840F480703060FFF740FC87
:10124000009005E0FFF73CFC0099401A022850D8B6
:101250003068C005F6D55E4EA0686C3601280FD008
:101260000528306810D020F001003060306820F090
:1012700004003060A068B8B1FFF722FC00900FE0D6
:10128000306840F00100F4E740F004003060F7E718
:10129000FFF716FC0099411A41F28830814266D866
:1012A00030688007F4D50EE0FFF70AFC009007E0F5
:1012B000FFF706FC0099411A41F28830814256D866
:1012C00030688007F4D42FB1DBF8001021F0805192
:1012D000CBF80010A069C8B33D49091D0968C1F3E6
:1012E000810102294AD00228504607D0C8F8600080
:1012F00000E03CE0FFF7E4FB04463BE04746C8F86B
:101300006000FFF7DDFB064605E000BFFFF7D8FBF6
:10131000801B02282BD828688001F7D4D4E9070164
:101320000843A16A2E4A490802EB0141626A41EA78
:101330008211084394F82C1040EA0161C9F80010AA
:1013400001203866FFF7BCFB044606E03EE000BF24
:10135000FFF7B6FB001B022809D828688001F7D5E3
:1013600034E000BFFFF7ACFB001B022802D90320CA
:10137000BDE8F88F28688001F4D427E00128F7D071
:10138000D9F80000E26900F4800191421CD1226A80
:1013900000F03F01914217D147F6C071626A0140E7
:1013A000B1EB821F10D1A26A4FF0FF3300F440313D
:1013B00003EB5202B1EB024F06D194F82C1000F06F
:1013C0007060B0EB016F01D00120D1E70020CFE7C2
:1013D0000438024000004742800E4742007000403F
:1013E0000000FFFF10B5401EB0F1807F01D3012047
:1013F00010BD4FF0E02460610F21601701F032FF53
:101400000020A06107202061002010BD70477047B8
:1014100010B590F83C20012A22D0012280F83C200F
:10142000CA688C6822F4407222434C6822F48062BD
:1014300022430C6822F4006222430C6922F4805299
:1014400022434C6922F400522243C969002322F44A
:1014500080420A4301684A6480F83C30002010BD95
:10146000022010BD70B590F83C20012A32D0012432
:1014700080F83C40022280F83D2003685A689D684D
:1014800022F070060A6832435A60134B02689A428F
:1014900014D0B2F1804F11D0104B9A420ED0104BA5
:1014A0009A420BD00F4B9A4208D00F4B9A4205D06C
:1014B0000E4B9A4202D00E4B9A4204D1496825F055
:1014C00080031943916080F83D40002180F83C1072
:1014D000084670BD022070BD0000014000040040BD
:1014E00000080040000C00400004014000400140A2
:1014F0000018004010B5040003D094F83D0010B16E
:1015000007E0012010BD002084F83C00204600F0D8
:101510001FF8022084F83D00211D206801F0CAFA5E
:10152000012084F8460084F83E0084F83F0084F8E7
:10153000400084F8410084F8420084F8430084F8B5
:10154000440084F8450084F83D00002010BD0000F0
:1015500008B50068B0F1804F12D10A48016841F027
:10156000010101600068002200F0010000901146B6
:101570001C20FFF763FCBDE808401C20FFF750BCAF
:1015800008BD00004038024090F83D10012901D00C
:1015900001207047022180F83D100168CA6842F0BE
:1015A0000102CA6000681149884214D0B0F1804F2E
:1015B00011D00F4988420ED00E4988420BD00E49F7
:1015C000884208D00D49884205D00D49884202D092
:1015D0000C49884204D1816801F00701062903D033
:1015E000016841F0010101600020704700000140E6
:1015F0000004004000080040000C004000040140CE
:10160000004001400018004070B5044690F83C00CE
:101610000025012817D0012684F83C60022084F8B8
:101620003D002068826822F0770222F47F428260C7
:101630000868502838D00DDC20284FD005DC90B346
:10164000102811D14AE0022070BD302846D0402831
:101650000AD13BE060282FD070280DD0B0F5805F14
:1016600003D0B0F5005F12D0012584F83D60002062
:1016700084F83C00284670BDCB68D1E90121206880
:1016800001F08DFA2068816841F0770109E0CB68AC
:10169000D1E90121206801F082FA2068816841F4D3
:1016A00080418160E1E719E0CA684968206801F07B
:1016B0004BFB5021206806E0CA684968206801F0A9
:1016C00054FB6021206801F074FACEE7CA684968CB
:1016D000206801F039FB40212068F4E722680146C8
:1016E0001046F0E72DE9F0410D46040003D094F8D0
:1016F0003D0018B108E00120BDE8F081002084F829
:101700003C00204600F040F8022084F83D002068AC
:10171000816844F2070291438160211D206801F035
:10172000C9F9226890689169166A2B68AF6903430A
:1017300040F20330814341EA0721A868EF6908437A
:101740004FF6FC418843E96840EA072001432869D5
:101750002F6A000140EA0730084369686D6926F086
:10176000AA0646EA0515294393602268906154F859
:10177000460B0162012004F81F09E0752076E0762F
:101780002077A0750020B7E730B587B00446142154
:101790006846FEF7E0FD214824681F4D00221F49DE
:1017A00010380223AC4216D10C6844F002040C60DD
:1017B000096801F002010591016841F00101016031
:1017C0000068694600F001000590C0200090CDE956
:1017D0000132134819E0134DAC421AD10C6844F0A1
:1017E00004040C60096801F004010591016841F0EE
:1017F000080101600068694600F0080005904FF498
:1018000040500090CDE901320748CDE90323FFF7AE
:1018100059F807B030BD00000004004040380240D5
:101820000000024000080040000C024070B590F833
:101830003E60044690F83F5090F8423090F84320C4
:10184000022021B104290ED0012E1BD114E0012E5B
:1018500018D1012B16D184F83E0084F842000122F1
:101860000021206820E0012D0CD1012A0AD184F842
:101870003F0084F8430014E0012D03D1012B01D176
:10188000012A01D0012070BD84F83E0084F83F0099
:1018900084F8420084F8430001220021206801F00E
:1018A00071F901220421206801F06CF920680168B7
:1018B00041F001010160002070BD70472DE9F04149
:1018C00004460068C66805694FF00007A90713D5EC
:1018D000B10711D5F91E01610120207720688069C8
:1018E0008007204602D0FFF7E8FF04E000F0C0F8D0
:1018F000204600F073F92777680716D5700714D5CE
:1019000021686FF004000861022020772068806958
:1019100010F4407F204602D0FFF7CFFF04E000F034
:10192000A7F8204600F05AF92777280715D5300781
:1019300013D521686FF00800086104202077206823
:10194000C0698007204602D0FFF7B7FF04E000F02F
:101950008FF8204600F042F92777E80616D5F00602
:1019600014D521686FF010000861082020772068E6
:10197000C06910F4407F204602D0FFF79EFF04E0CC
:1019800000F076F8204600F029F92777E80708D01C
:10199000F00706D021686FF001000861204600F0D2
:1019A00083F9280608D5300606D521686FF0800037
:1019B00008612046FFF72AFD680608D5700606D59F
:1019C00021686FF040000861204600F083F9A80606
:1019D0000AD5B00608D521686FF0200008612046BE
:1019E000BDE8F041FFF713BDBDE8F08110B586B04A
:1019F000044614216846FEF7AEFC2368174C00210C
:101A000017480222A34212D1036843F01003036077
:101A1000006800F0100005904FF4D4400090CDE92C
:101A200001210120CDE9031069460E4812E00E4C59
:101A3000A34211D1036843F001030360006800F082
:101A4000010005900C200090CDE90121CDE90312A1
:101A500069460648FEF736FF06B010BD000001409B
:101A60003038024000100240000C004000000240EC
:101A7000704770B5044690F83C0000260D460128DA
:101A80000FD0012084F83C006AB1042A1DD0082A36
:101A90002FD00C2A3FD00126002084F83C0030468D
:101AA00070BD022070BD206801F08CF8206881694B
:101AB00041F0080181612068816921F004018161A0
:101AC000206881692A69114311E0206801F0AAF8B1
:101AD0002068816941F4006181612068816921F495
:101AE00080618161206881692A6941EA02218161FE
:101AF000D2E7206801F0CCF82068C16941F0080104
:101B0000C1612068C16921F00401C1612068C16917
:101B10002A69114311E0206801F0EEF82068C169DC
:101B200041F40061C1612068C16921F48061C16133
:101B30002068C1692A6941EA0221C161ACE710B598
:101B4000040003D094F83D0010B107E0012010BD5F
:101B5000002084F83C00204600F01EF8022084F8A3
:101B60003D00211D206800F0A5FF012084F84600FB
:101B700084F83E0084F83F0084F8400084F8410077
:101B800084F8420084F8430084F8440084F8450057
:101B900084F83D00002010BD08B500680C4988425B
:101BA00008D10C48016841F001010160006800F0B3
:101BB00001000BE00849884209D10648001F01686E
:101BC00041F008010160006800F00800009008BDC5
:101BD0000000014044380240000C00407047000003
:101BE00010B50446022249B104290ED0082913D0A9
:101BF00094F84100012816D0012010BD94F83E0051
:101C00000128F9D184F83E200FE094F83F00012824
:101C1000F2D184F83F2008E094F840000128EBD18D
:101C200084F8402001E084F841200122206800F07F
:101C3000A9FF16492068164A884201D0904203D174
:101C4000436C43F4004343642068884213D0B0F1EE
:101C5000804F10D00F4988420DD00F4988420AD0DA
:101C60000E49884207D0904205D00D49884202D0E3
:101C70000C49884204D1816801F00701062903D08C
:101C8000016841F001010160002010BD0000014029
:101C9000000401400004004000080040000C004027
:101CA000004001400018004010B50068B0F1804FBE
:101CB0000CD100F0E5FE06480178491CC9B201705C
:101CC0000A2903D30021017000F0ECFE10BD0000D2
:101CD0003D000020704738B5044690F842002028A7
:101CE00001D0022038BD51B14AB10120206300204B
:101CF0006063204601F012FA216B012901D0012016
:101D000038BD21680A684968009121680C3151E8A2
:101D1000002F42F0100241E80023002BF5D138BD1E
:101D20000A4A10B590420FD10A460949074800F007
:101D3000E7FAC82206490548FFF7CDFF05480068C5
:101D4000016821F00801016010BD0000C4020020FC
:101D5000E8050020D404002070470000F8B50168B1
:101D600004460868CA684B6910F00F0F4FF0000571
:101D70005AD003F0010602F49077374365D0C107CB
:101D800005D0D10503D5616C41F0010161644107C3
:101D900005D5D90703D0616C41F002016164810768
:101DA00005D5D90703D0616C41F0040161640107D6
:101DB00007D502F02001314303D0616C41F00801E6
:101DC0006164616C00293BD0800604D5900602D581
:101DD000204601F0BCF820684069616CC0F38010B7
:101DE00001F00801014320462BD001F07BF8206868
:101DF0004069400621D52068143050E8001F21F0CA
:101E0000400140E80012002AF5D1E06BA8B1724908
:101E10000165E06BFEF7D2FB002811D0E06B016D8D
:101E200001B0BDE8F040084783060ED593060CD5F7
:101E30002046BDE8F84001F08AB82046FFF78CFF45
:101E4000F8BDFFF789FF6564F8BD266B2023012EDE
:101E50007ED1C6067CD5D6067AD50868486800903B
:101E600048694FF0020640064DD5E26B10684068A5
:101E70004FF480770004000C3AD0A18D814237D90D
:101E8000E085D069B8422DD020680C3050E8001FA2
:101E900021F4807140E80012002AF5D12068143046
:101EA00050E8001F21F0010140E80012002AF5D19E
:101EB0002068143050E8001F21F0400140E8001273
:101EC000002AF5D184F84230256320680C3050E8B0
:101ED000001F21F0100140E80012002AF5D1E06B4C
:101EE000FEF723FB6663A08DE18D401A81B206E008
:101EF000A18D8142A8D1D069B842A5D166632046A0
:101F0000FFF70EFFF8BDA08DE18D401A81B2E08D84
:101F10000028F7D00029F5D020680C3050E8002FB9
:101F200022F4907240E80027002FF5D12068143089
:101F300050E8002F22F0010240E80027002FF5D1E1
:101F400084F84230256320680C3050E8002F00E010
:101F500006E022F0100240E80023002BF3D1CDE789
:101F600005062BD5150629D594F841002128C9D19D
:101F7000A068B0F5805F01D12069B0B1206A411C32
:101F80002162216800784860E08C401E0004000C4B
:101F9000E084B7D12068C16821F08001C160206869
:101FA000C16841F04001C160F8BD206A0088C0F3FB
:101FB00008004860206A801C2062E5E74006F3D5EF
:101FC0005006F1D5CA68204622F04002CA6084F863
:101FD000413000F0D7F9F8BD9D2D000870B5040020
:101FE00004D094F84100002510B106E0012070BD36
:101FF00084F84050204600F023F8242084F8410063
:102000002068C16821F40051C160204601F000F849
:102010002068016921F4904101612068416921F043
:102020002A0141612068C16841F40051C1606564C2
:10203000202084F8410084F842006563002070BDD0
:102040002DE9F04F87B0064614216846FEF783F964
:102050008E48DFF834C233688C49103802250327D4
:102060008B4A00244FF0080863454FD10B6843F4B6
:1020700000230B60096801F400210591016841F01B
:1020800004010160006802AB00F004000590B80292
:10209000CDE9000583E8900169461046FEF712FC81
:1020A0007D4D7C484FF00067E5E8020740204FF483
:1020B0008068A5E81101784845F81449AC61EC61E5
:1020C0002C626C62FEF75CFB08B1FEF72CFAB5637C
:1020D000AE63714D6F48603530382860C5E90174D2
:1020E000C5E903486C61AC61EC612C6228466C6206
:1020F000FEF746FB08B1FEF716FAF563002211461B
:102100003420AE63FEF79AFE34209BE0634EDFF886
:1021100090B1B3422AD10B6843F480130B60096875
:1021200001F480110591016841F00401016001682A
:1021300001F004010591016841F0080101600068A7
:1021400002AB00F008000590B014CDE9000583E86B
:10215000900169461046FEF7B5FB0420CDE9000565
:1021600002AB694683E89001584624E0DFF834C1A9
:10217000DFF81891072609F104094FF0C00A6345FA
:102180001ED1D9F8002042F01002C9F80020D9F879
:10219000001001F010010591016841F00201016099
:1021A0000068CDF800A000F00200CDE904606946A7
:1021B00003973D4865E0FEF785FB07B0BDE8F08F6B
:1021C000DFF8E8C0634518D10A6842F400320A60BB
:1021D000096801F400310591016841F008010160CE
:1021E0000068CDE9024700F0080005906020CDE9C5
:1021F0000005694604965846DDE7DFF8B4C063453C
:1022000023D10A6842F480220A60096801F480211F
:102210000591016841F0080101600068CDE90247BD
:1022200000F0080005904FF44070CDE900056946C4
:1022300004965846FEF746FB002211462720FEF77B
:10224000FDFD2720FEF7ECFDB7E71A498B42B4D11C
:10225000D9F8003043F02003C9F80030D9F8001055
:1022600001F020010591016841F00401016000685E
:10227000CDF800A000F00400CDE904806946039782
:102280001046CDE9015496E7004C0040403802402A
:1022900000080240706002407404002000500040BA
:1022A000000C0240001001400004024000440040C5
:1022B000004800400014014090F84230202B01D02B
:1022C0000220704721B11AB10023036300F076BFEA
:1022D00001207047074910B588420AD106480078A6
:1022E00001F068FABDE81040012203490148FFF7F8
:1022F000E3BF10BDE40300203C0000207047000055
:1023000070B5044690F84100202801D0022070BD2D
:1023100001B3FAB12162A284E28400206064212327
:1023200084F84130A56B144BEB63A56B134B2B6406
:10233000A56B134BEB64A36B186520681346A56B64
:10234000021D2846FEF786FA30B110206064202076
:1023500084F84100012070BD21686FF040000860E2
:102360002068143050E8001F41F0800140E800125E
:10237000002AF5D1002070BD992E0008DB2E000840
:10238000AB2D000870477047FEE700000D4808B508
:10239000016841F4001101600068002200F400109F
:1023A000009011460D20FEF749FD0D20FEF738FD87
:1023B000002211460F20FEF741FDBDE808400F2026
:1023C000FEF72EBD3038024070B586B01421684645
:1023D000FDF7C1FF22480025016841F0800101603E
:1023E000016801F080010591016841F0010101607F
:1023F000016801F001010591016841F010010160DF
:10240000016801F010010591016841F002010160CD
:10241000016801F002010591016841F008010160C5
:10242000016801F008010591016841F004010160B3
:1024300000680C4E00F004004FF440440590002268
:1024400021463046FEF736FB0121CDE90041CDE9BA
:10245000021569463046FEF735FA06B070BD000039
:1024600030380240000C02400D4810B50B490160A5
:102470000C49416000214FF480428160C0E90312A1
:1024800041618161C1610162FEF720FB002803D038
:10249000BDE81040FEF747B810BD000000540040F2
:1024A00060000020A08601000D4810B50B490160B6
:1024B0000C49416000214FF480428160C0E9031261
:1024C00041618161C1610162FEF700FB002803D018
:1024D000BDE81040FEF727B810BD000000580040CE
:1024E000B4000020A08601000D4810B50B49016022
:1024F0000C49416000214FF480428160C0E9031221
:1025000041618161C1610162FEF7E0FA002803D0F8
:10251000BDE81040FEF707B810BD0000005C0040A9
:1025200008010020A086010010B592B000240F948D
:102530001C2168461094FDF70EFF202107A8FDF727
:102540000AFF2C482A4901600721C0E9011440F222
:102550001941C0E9031444618461FFF7F0FA08B13E
:10256000FDF7E1FF0F940FA922481094FEF77AFFC0
:1025700008B1FDF7D8FF6020CDE900040294039470
:1025800004940594002269461A480694FFF771FAEC
:1025900008B1FDF7C8FF042269461648FFF769FA3B
:1025A00008B1FDF7C0FF082269461248FFF761FA3B
:1025B00008B1FDF7B8FF0C2269460E48FFF759FA3B
:1025C00008B1FDF7B0FF0794089409944FF4005048
:1025D0000A94CDE90B4007A906480E94FEF718FFB0
:1025E00008B1FDF7A0FF0348FFF700FA12B010BDD5
:1025F000000001405C01002010B586B000241648A0
:10260000009401940294039404944FF08041059443
:1026100001601021C0E9011441F24C31C0E90314FA
:102620008461FEF767FF08B1FDF77DFF4FF480502E
:10263000009069460848FEF7E7FF08B1FDF773FF11
:10264000049404A904480594FEF70CFF002801D067
:10265000FDF769FF06B010BDA401002010B58CB0D5
:1026600024216846FDF777FE002416480994144992
:102670000A94C0E900144FF6FF71C0E902410461F9
:1026800084610320CDE900040120CDE90204049413
:10269000CDE90540079469460A480894FFF722F8F7
:1026A00008B1FDF740FF099409A906480A94FEF70E
:1026B000D9FE002801D0FDF736FF0CB010BD000098
:1026C00000040040EC01002010B58CB024216846C5
:1026D000FDF741FE00241648099414490A94C0E904
:1026E00000144FF6FF71C0E90241046184610320C8
:1026F000CDE900040120CDE902040494CDE90540B0
:10270000079469460A480894FEF7ECFF08B1FDF704
:102710000AFF099409A906480A94FEF7A3FE0028B7
:1027200001D0FDF700FF0CB010BD00000008004014
:102730003402002010B58AB0002407941C2168469A
:102740000894FDF708FE19481749C0E90014611EF6
:10275000C0E9024104618461FFF7F1F908B1FDF7B6
:10276000E2FE079407A911480894FEF77BFE08B122
:10277000FDF7D9FE6020CDE90004029408226946E5
:102780000A480494FFF775F908B1FDF7CCFE0C2256
:1027900069460648FFF76DF908B1FDF7C4FE034826
:1027A000FFF724F90AB010BD000C00407C020020A5
:1027B0000C4810B50A4901604FF4E1314160002135
:1027C00081600C22C160C0E904128161C161FFF720
:1027D00005FC002803D0BDE81040FDF7A4BE10BDE5
:1027E000004C0040C40200200C4810B50A490160AA
:1027F0004FF4E1314160002181600C22C160C0E9E9
:1028000004128161C161FFF7E9FB002803D0BDE834
:102810001040FDF788BE10BD005000400C030020A2
:102820000C4810B50A4901604FF4E13141600021C4
:1028300081600C22C160C0E904128161C161FFF7AF
:10284000CDFB002803D0BDE81040FDF76CBE10BDE5
:1028500000100140540300200C4810B50A490160E3
:102860004FF4E1314160002181600C22C160C0E978
:1028700004128161C161FFF7B1FB002803D0BDE8FC
:102880001040FDF750BE10BD004400409C030020E6
:102890000C4810B50A4901604FF4E1314160002154
:1028A00081600C22C160C0E904128161C161FFF73F
:1028B00095FB002803D0BDE81040FDF734BE10BDE5
:1028C00000480040E40300200C4810B50A490160AC
:1028D0004FF4E1314160002181600C22C160C0E908
:1028E00004128161C161FFF779FB002803D0BDE8C4
:1028F0001040FDF718BE10BD001401402C0400204C
:10290000FEE710B50C4600F005F82046BDE8104083
:1029100000F020B830B50E4940F21A4500246B4251
:102920000A68A84201DD284605E0984201DA184607
:1029300004E0002801DD506307E005DA546309680C
:10294000C0F10000886330BD54630868846330BD03
:102950005C01002030B50E4940F21A4500246B425C
:102960000A68A84201DD284605E0984201DA1846C7
:1029700004E0002801DDD06307E005DAD4630968CC
:10298000C0F10000086430BDD4630868046430BD41
:102990005C01002010B500210848FFF721F904214F
:1029A0000648FFF71DF908210448FFF719F9BDE8AB
:1029B00010400C210148FFF713B900005C01002012
:1029C000FEE770477047FEF7D1B9000030B593B00D
:1029D00030216846FDF7BFFC14210CA8FDF7BBFCB5
:1029E0001E480025016841F080510160006800F038
:1029F000805011901A48016841F4804101600068DC
:102A0000022400F480401190012000900004019005
:102A10008001CDE90640192008904FF4A870CDE957
:102A2000090404200B906846FEF726FB08B172B635
:102A3000FEE70CA90F2081E831004FF4A0500F9061
:102A40004FF48050109005210CA8FEF729FA0028B9
:102A500001D072B6FEE713B030BD0000403802402E
:102A6000007000400248016841F470010160704745
:102A700088ED00E00148FEF721BF0000A40100201E
:102A800010B500F05FFE0548D0ED000A044890ED57
:102A9000000ABDE81040FDF7CFBC00002000002078
:102AA0001C00002010B501F00FF8BDE8104001F047
:102AB0008BB80000F0B50268274B284D284E294FEF
:102AC000294C4FF0804C984209D0604507D0A8426D
:102AD00005D0B04203D0B84201D0A04204D122F0C8
:102AE000700E4A6842EA0E0298421BD0604519D027
:102AF000A84217D0B04215D0B84213D0A04211D08E
:102B00001A4DA8420ED01A4DA8420BD0194DA8421A
:102B100008D0194DA84205D0184DA84202D0184D32
:102B2000A84203D122F44075CA682A434D6922F0B5
:102B300080022A438D68C5620D688562984201D083
:102B4000A04201D109690163016841F004010160FB
:102B5000012141610260F0BD00000140000400401D
:102B600000080040000C004000040140004001400B
:102B7000004401400048014000180040001C004093
:102B80000020004010B501F01F030121046A9940A4
:102B90008C430462016A9A401143016210BD10B572
:102BA000846842EA032224F47F440A432243826079
:102BB00010BD826822F070020A4342F00701816072
:102BC00070470000F0B5036A026A22F00102026257
:102BD00042688469124E24F073050C682C4323F07C
:102BE00002058B682B430D4DA84201D0B04205D1A0
:102BF00023F00807CB683B4323F00403A84201D02D
:102C0000B04205D14D6922F4407215438A692A43C6
:102C100042608461496841630362F0BD0000014085
:102C200000040140F0B5026A036A23F01003036256
:102C3000436884690D6824F4E64444EA05248D68F9
:102C400022F0200242EA05120F4D104EA84201D098
:102C5000B04206D1CF6822F0800242EA071222F089
:102C60004002A84201D0B04207D14D6923F440632D
:102C700043EA85038D6943EA8503436084614968BB
:102C800081630262F0BD00000000014000040140C9
:102C9000F0B5026A036A23F4807303624368C4696F
:102CA00022F4007224F073050C68124E2C438D68D8
:102CB00042EA05220E4DA84201D0B04206D1CF68AB
:102CC00022F4006242EA072222F48062A84201D084
:102CD000B04207D14D6923F4405343EA05138D698F
:102CE00043EA05134360C4614968C1630262F0BDF1
:102CF000000001400004014030B5046A026A22F479
:102D0000805202624268C3690D6823F4E64343EAD5
:102D100005238D6824F4005444EA0534084DA84284
:102D200002D0084DA84204D14D6922F4804242EA03
:102D300085124260C36149680164046230BD0000CD
:102D4000000001400004014010B5036A046A24F049
:102D500001040462846924F0F00444EA021423F0BC
:102D60000A020A438461026210BD10B5036A046A54
:102D700024F010040462846923F0A00324F4704456
:102D800044EA023243EA01118261016210BD00008F
:102D90000148FEF7E3BF0000C402002010B5806BBD
:102DA0000021C185FEF7D8FF10BD70B5846B206887
:102DB000406994F84110C0F3C0100025212904D1C6
:102DC00018B1E584204600F0B4F82068406994F812
:102DD0004210C0F38010222904D118B1E5852046A5
:102DE00000F080F8606C40F0100060642046FEF750
:102DF000B3FF70BD10B50146806B096809684FF0DC
:102E00000002C9052ED4C28501680C3151E8003F8B
:102E100023F4807341E80034002CF5D101681431AB
:102E200051E8003F23F0010341E80034002CF5D1C4
:102E30000168143151E8003F23F0400341E80034B9
:102E4000002CF5D1202180F84210016B012909D115
:102E500001680C3151E8003F23F0100341E80034D1
:102E6000002CF5D14263016B012902D0FFF732FA41
:102E700010BD818DFEF754FF10BD10B5806B012190
:102E80004163016B012902D0FFF738FA10BD818D33
:102E90004908FEF745FF10BD10B50146806B096873
:102EA0000968C90516D40021C1840168143151E8AC
:102EB000002F22F0800241E80023002BF5D10168A9
:102EC0000C3151E8002F42F0400241E80023002B72
:102ED000F5D110BDFFF756FA10BD10B5806BFFF7A6
:102EE00052FA10BD01680C3151E8002F22F49072A3
:102EF00041E80023002BF5D10168143151E8002F7F
:102F000022F0010241E80023002BF5D1016B0129D9
:102F100009D101680C3151E8002F22F0100241E87C
:102F20000023002BF5D1202180F8421000210163FD
:102F3000704701680C3151E8002F22F0C00241E8CF
:102F40000023002BF5D1202180F84110704708B5EF
:102F500090F84210222901D0022008BD82684FF467
:102F600080539A4201D1016921B1816A9A421BD0F2
:102F70004AB10AE00268816A5268C2F308020A8014
:102F8000816A891C08E0026972B10268526802F025
:102F90007F020A70816A491C8162C18D491E090441
:102FA000090CC18503D01BE002685268F1E7016893
:102FB000CA6822F02002CA600168CA6822F48072DE
:102FC000CA6001684A6922F001024A61202180F842
:102FD000421000214163026B012A03D0FFF77AF906
:102FE000002008BD016301680C3151E8002F22F078
:102FF000100241E80023002BF5D101680A68D206CF
:1030000002D50A6849680091818DFEF789FEE7E7DD
:1030100070B5044600680169E26821F4405111432B
:1030200001612169A068E2690843616911430843AD
:103030002168CA6849F20C639A430243CA60206857
:103040004169A26921F4407111434161314920680D
:10305000884202D03049884202D1FDF7CBFF01E01F
:10306000FDF7B8FFE2690023192164253226B2F585
:10307000004F626828D0A0FB0101930F9200FDF77A
:10308000F3F80146B0FBF5F06FF01802504301EB86
:10309000800006EB0010B0FBF5F000F0F002B1FB91
:1030A000F5F002EB0012B1FBF5F06FF01803584396
:1030B00001EB800006EB0010B0FBF5F000F00F0014
:1030C00021681044886070BDA0FB010192185B412B
:1030D000FDF7CAF80146B0FBF5F00201B1FBF5F0CF
:1030E0006FF01803584301EB800006EBC000B0FB03
:1030F000F5F000F0F80002EB4002B1FBF5F05843A8
:1031000001EB800006EBC000B0FBF5F000F007001B
:10311000D6E70000001001400014014038B581627C
:1031200004468285002013466064222284F84220EF
:10313000E56B1F4AEA63E56B1E4A2A64E56B1E4A8B
:10314000EA64E26B10650A462168E06B091DFDF731
:1031500081FB30B110206064202084F842000120FF
:1031600038BD2068016840680090206948B1206837
:103170000C3050E8001F41F4807140E80012002A32
:10318000F5D12068143050E8001F41F0010140E8FB
:103190000012002AF5D12068143050E8001F41F0D9
:1031A000400140E80012002AF5D1002038BD00009F
:1031B000F52D00087B2E0008AB2D0008816282856A
:1031C000C28500214164222180F84210016921B1A9
:1031D0000168CA6842F48072CA6001684A6942F0B4
:1031E00001024A610068C16841F02001C16000200D
:1031F000704700000148FEF7B1BD0000E403002065
:1032000010B5C82208490948FEF765FD084800685E
:10321000016821F008010160BDE810400122054964
:103220000548FFF749B80000E8050020C402002067
:10323000D40400203C000020E4030020FEE741000D
:10324000080218BF04200A0E18BF40F001004FF01A
:103250007F4232EA010108BF40F00200012808BFA6
:10326000052070470907090E002804DB00F1E02063
:1032700080F80014704700F00F0000F1E02080F8A3
:10328000141D704710EE101A08B5444A6846B2EB98
:10329000410F28D94FF0E640B0EB410F94BF00201A
:1032A0004FF0FF3000900098002861DB60EE000ACC
:1032B00010F0010F45D010F0020FDFED391A9FED2D
:1032C000391A00EEE11ADFED381A40EE811A21EECC
:1032D000A01AF0EE400A40EE010A08BFF1EE600AC3
:1032E000B0EE600A08BD314B21F0004293423CD958
:1032F00011F0004FDFED2E0A20EE201ADFED2D0A2F
:1033000019BF31EE601A71EE200A31EE201A71EE0B
:10331000600ABDEEE01A11EE100A9FED271A00F0C8
:10332000030000EEC10A9FED251A009000EEC10ACD
:103330009FED231A00EEC10A9FED221A00EEC10A8A
:10334000B1E79FED211A9FED210A10F0020F00EE68
:10335000810A9FED1F1A00EE801AB7EE000A00EEF8
:10336000810A18BFB1EE400A08BD00F00FF99AE7D4
:1033700010EE100A4000B0F17F4F3CBFB7EE000ADC
:1033800008BD07D14FF00100FDF714F8BDE8084073
:1033900000F0ECB8BDE8084000F0E4B8B61F927E3B
:1033A000336D4C39DA82083CA0AA2ABE490E494640
:1033B00083F9223F0000004B0000C93F00A0FD3907
:1033C0000020A2331A61342CB93AB2BACA9F2A3DFE
:1033D000DDFFFFBE00B510EE101A2DED028B81B09F
:1033E000524A6846B2EB410F2ED94FF0E640B0EB9F
:1033F000410F94BF00204FF0FF3000900098B0EED6
:10340000408A00286ADB10F0010F4BD068EE080AF2
:103410009FED471A9FED470A00EE810A9FED461A7D
:1034200010F0020F00EE801AB7EE000A00EE810ADB
:1034300002BF01B0BDEC028B00BD00BF01B0B1EE18
:10344000400ABDEC028B00BD3C4B21F00042934290
:1034500041D911F0004FDFED3A0A20EE201ADFEDDE
:10346000390A19BF31EE601A71EE200A31EE201AC6
:1034700071EE600ABDEEE01A11EE100A9FED321AED
:1034800000F0030000EEC10A9FED301A009000EE3C
:10349000C10A9FED2F1A00EEC10A9FED2E1A00EE11
:1034A000C10AABE728EE080A9FED2B1ADFED2B0AC5
:1034B00010F0020F40EE410A9FED291A00EE201A8B
:1034C00061EE000AB0EE480A08EE200AB6D101B05B
:1034D000BDEC028B00BD00F059F88FE718EE100A22
:1034E0004000B0F17F4F0DD218EE100AFFF7A7FE93
:1034F000042808BF00F042F8B0EE480A01B0BDEC65
:10350000028B00BD09D10120FCF754FF01B0BDECD6
:10351000028B5DF804EB00F029B801B0B0EE480A68
:10352000BDEC028B5DF804EB00F01CB8B61F927E78
:10353000B93AB2BACA9F2A3DDDFFFFBE490E4946DD
:1035400083F9223F0000004B0000C93F00A0FD3975
:103550000020A2331A61342C336D4C39DA82083CD6
:10356000A0AA2ABE30EE000A70470000DFED020A72
:1035700080EEA00A70470000000000009FED020AE4
:1035800020EE000A70470000000000102DE9F00155
:103590004FF07F42B2EB410F9FBF4FF0FF31016010
:1035A000BDE8F00170474FF0004242EA0123C1F349
:1035B000C752783A551112F01F0C434CCCF120063B
:1035C0007C44C1F3C752A2F178024FEA621204EBC5
:1035D000820254F8254008BFD2E9015612D055683E
:1035E00004FA0CF425FA06F73C43976805FA0CF543
:1035F00027FA06F8D26807FA0CFCF24045EA0805FB
:103600004CEA0206A4FB034CA5FB0352A6FB036392
:103610001D449D4234BF012600261319334416B1C0
:10362000934202D903E0934201D2012200E000223A
:10363000624402F1200C9206DC0C42EA443200EEB5
:10364000102A5B03DFED210AF8EEC01A00EE103AF3
:103650004FEA9C1C11F0004FB8EE400AC0F800C0C1
:1036600020EE201A00EE105ADFED190AB8EE400ADB
:1036700020EE200A71EE810A70EE800A10EE902A88
:1036800002F500626FF30B0200EE902A70EEE11A71
:1036900031EEC11ADFED101A30EE411A9FED0D0A1E
:1036A00020EE800A01EE210A9FED0C1A00EE810A3D
:1036B00004BFBDE8F0017047CCF180510160BDE866
:1036C000F001B1EE400A7047CC080000000000365F
:1036D0000000802C22AAFD29DB0FC92F0000C92F72
:1036E00010B5FFF757F90C48FDF74EFF3C210B488A
:1036F000FEF79CF83C210A48FEF798F8FFF780FD9A
:1037000000F06CF99FED070AF0EE400A00F0D6F9E0
:10371000BDE8104000F0E4B8A4010020EC01002056
:103720003402002000004842DFED040A9FED041A35
:1037300060EE200A80EE810A70470000DB0F4940EE
:103740000000344316480068416A16480288018028
:103750008A1A12B241681144416000EE102ADFED6E
:10376000120A1349B8EEC01A81EE200A9FED0F1A13
:1037700020EE010A80ED030A09684A6A4188428006
:10378000511A09B282680A44826000EE101AB8EE3B
:10379000C00AC0EE201A21EE810A80ED040A7047AB
:1037A000EC010020100000200000B64400606A47D1
:1037B0003402002070B5204C1E4D0026217868543C
:1037C000491CC8B2207002280DD00B281AD009D38A
:1037D000667060782E5400F10100C0B260700B2852
:1037E000F7D3267070BD28785528FBD06878532809
:1037F000F8D0667060782E54401CC0B260700B2800
:10380000F8D3EEE768785328E2D1E88800F015FA9B
:103810009FED0A1B53EC112B00F022FA9FED091BC0
:1038200053EC112B00F01CFA00F0D6F901490C31D1
:103830000862CDE7340500202C00002000000000C5
:103840000000003F00000000008066400248D0ED0C
:10385000000A024800F04EB8240000206405002051
:10386000FDF78CFAFFF7B2F8FEF7AEFDFEF78EFD1E
:10387000FEF75AFEFEF7C0FEFEF7F0FEFEF724FF4D
:10388000FEF796FFFEF7B0FFFEF7CAFFFFF700F85E
:10389000FFF71AF8FEF7E8FDFEF706FEFEF724FE36
:1038A000FEF7DAFFFEF746FFFFF71AFFFFF7A8FC67
:1038B000F3EE040AB3EE040A00F000F94FF4804579
:1038C000064C6E00012229462046FDF7F3F801223E
:1038D00031462046FDF7EEF8F4E70000000C024008
:1038E00000B500F0BFF802490020087000BD0000DC
:1038F0004000002080ED030A30EE600AC0ED040AAB
:103900009FED251A80ED050AD0ED070A234A40EE07
:10391000010A10EE901AC0ED070A914203DDDFEDB7
:10392000200AC0ED070A10EE901A1E4A914203D9F0
:10393000DFED1D0AC0ED070AD0ED060A90ED072A5B
:1039400070EE600AC0EE811AD0ED000A90ED011A07
:1039500060EE800A41EE020A90ED021A41EE210A61
:10396000C0ED080A90ED091AF4EEC10AF1EE10FA62
:1039700002DCB0EE601A01E080ED081AD0ED0A0A10
:10398000B4EEE01AF1EE10FA01D2C0ED080A80EDB3
:10399000060A90ED080A70470AD7233C00007A44D3
:1039A00000007A4400007AC400007AC480EC030A64
:1039B0009FED090A80ED030A80ED040A80ED050AF7
:1039C00080ED060A80ED070A80ED080AC0ED091AAD
:1039D00080ED0A2A70470000000000009FED193AB0
:1039E000DFED193ADFED192A9FED194A00B5B0EE67
:1039F000432AF0EE631AB0EE621AF0EE440AB0EE1B
:103A0000040A1448FFF7D2FF1248B0EE432AF0EE42
:103A1000631AB0EE621AF0EE440AB0EE040A2C30DB
:103A2000FFF7C4FF0B489FED0C2ADFED0C1A9FED4A
:103A30000C1AF0EE620AB0EE000A58305DF804EBA2
:103A4000FFF7B4BF00007AC400007A44CDCC4C3DEF
:103A5000CDCCCC3D640500200000FAC30000FA4341
:103A6000CDCC4C3E0D4800B5DFED0B1A0C49C0ED36
:103A7000001AC0ED011A91ED080AFFF755FE80ED1E
:103A8000020A0848C0ED031AC0ED041AC0ED011A7D
:103A9000C0ED021A00BD000000000000B0060020CA
:103AA00040050020400000200248D0ED000A0248F6
:103AB000FFF720BF2800002090050020014880EC7F
:103AC000020A70473000002010B52C482C49DFED69
:103AD0002D0AF2EE042A2DED028B90ED032A91EDD2
:103AE000001A294AB0EE420A01EE200AD2ED001A6D
:103AF00080EE221A90ED040AB0EE403A01EEA03AB0
:103B0000C3EE221AD0ED012A90ED023A80ED011A9F
:103B100071EE622AC0ED021A91ED001A31EEC33A3D
:103B200001EE202A80ED032A92ED001A01EE200A10
:103B3000F6EE000A80ED040A32EE830A134820EE06
:103B4000208A90ED080AFFF7EFFD114C84ED020A80
:103B5000FFF798FBD4ED000A48EE000AC4ED000A16
:103B600094ED020AFFF736FCD4ED010A48EE000A94
:103B7000C4ED010ABDEC028B10BD00004000002026
:103B8000240000200AD7233C280000204005002004
:103B9000B006002010B5B0EE603AFFF757FEF0EE29
:103BA000402AB0EE430AFFF77FFFBDEEC00ABDE832
:103BB000104010EE100ABDEEE20A01B210EE100A3B
:103BC00000B2FEF79EBE0000024890EC020AFFF72A
:103BD000E1BF00003000002021F00042A2F160525D
:103BE000B2F5801F01F0004328BFD2F17F6C0BD9E2
:103BF0005FEA001C43EAC20242EB507018BF7047F4
:103C000028BF20F001007047B2F5801FBCBF1846E6
:103C100070474FEA410C1CF5001F02D2084600F025
:103C200022B970B500F0C6F800000089FFF7F6BFB2
:103C30004FF00040A0F580007047B0FA80F310FA12
:103C400003F10AD0C3F11D0303F580634FEA41502D
:103C50004FEA035202EBD12170474FF0000070474A
:103C6000DFF848C170B51CEA111E1EBF1CEA13150F
:103C70009EEA0C0F95EA0C0F00F06F8081EA0304B6
:103C800023EA4C134EEAD47E21EA4C1141F4801110
:103C900043F48013AE44A1FB024CA0FB0365AEF1DC
:103CA0007F7E361955EB0C05A1FB034C4CF100034C
:103CB000A0FB021C16EB0C06654153F10003094200
:103CC00018BF46F0010613F4007F0BD14FEA033111
:103CD0004FEA0530340341EA155140EA16506FF0BF
:103CE00003020AE04FEAC3214FEAC520F40241EA89
:103CF000555140EA56506FF0020202EB2E4201EBA2
:103D0000025585EACE710AD05FEA440C18BF24F050
:103D1000004450F1000041F1000120EAD47040F26B
:103D2000FE7C624500D270BDA84214BF4FF08044B3
:103D30004FF04044002E08BF0024BEF1806FA8BFA2
:103D4000A1F1C041BDE8704080F282804FF00000D8
:103D500001F1C04101F0004170479EEA0C0F0CEAEE
:103D6000131518BF95EA0C0F06D04FF0000081EA3A
:103D7000030E0EF0004170BD00F01CF88900013EFA
:103D800000F007B800F009B84FEA430C5FEA5C5C4A
:103D900008D081EA030100F05BB84FEA410C5FEA0A
:103DA0005C5CF6D14FF00000014970470000FF074E
:103DB0000000F87F0EF1020E2EF0030E5EF8046B89
:103DC000364205D4012A43EB030515F5001F12D82E
:103DD000012841EB010C1CF5001F0CD80ED14FEA55
:103DE000D17C15F5001F0CEB4C0C0CF1020C08BF3C
:103DF0004CEBD37C04E04FF0080C01E04FEAD37C9D
:103E00000CEB4C0526FA05F606F00706B6F1040C95
:103E100006D20EEB860CBDE870404CF0010C6047FA
:103E2000DFE80CF0090B02024FF000414FF00000F8
:103E3000A1F5002170BD19461046012851EB01047F
:103E400018BFD4F5001484BF002001F0004170BDFC
:103E50000808A0F500114FEA310170474FF040709B
:103E6000E1EE100A7047FF2141EAD050C0057047CB
:103E700000061016000610160000000000000000EA
:103E80000102030406070809000000000102030400
:103E9000000000006E83F9A22915444ED15727FC7B
:103EA000C0DD34F5999562DB4190433CAB6351FE34
:103EB000D03E00080000002060000000C40100089F
:103EC000303F000860000020C80C0000E00100083E
:103ED0000100000010000000000000000024F400B9
:103EE00000000000000000000000000000000000D2
:103EF00000000000000000000000000000000000C2
:103F000000000000000000000000000000000000B1
:103F100000000000000000000000000000000000A1
:103F2000000000000000003F00002041000070423F
:040000050800018965
:00000001FF
